:020000040800F2
:10000000185300205502000841400008D13D000867
:1000100000000000000000000000000000000000E0
:1000200000000000000000000000000085480008FB
:100030000000000000000000DB010008D54B0008B4
:10004000670200080000000067020008670200085D
:1000500067020008670200086702000867020008DC
:1000600000000000C9210008D9210008A5210008CE
:10007000670200086702000867020008000000002D
:1000800067020008694C0008670200086702000860
:10009000670200086702000867020008670200089C
:1000A000670200086702000867020008CD540008D4
:1000B000455600085956000800F002F800F063F8B1
:1000C0000CA030C8083824182D18A246671EAB466D
:1000D00054465D46AC4201D100F055F87E460F3ED5
:1000E0000FCCB6460126334200D0FB1AA246AB46DF
:1000F00033431847BC770000DC770000103A02D386
:1001000078C878C1FAD8520701D330C830C101D5B8
:1001100004680C60704700000023002400250026BE
:10012000103A01D378C1FBD8520700D330C100D5B3
:100130000B60704710B5642902D100F00BF910BDB7
:10014000782902D100F03CF910BD632902D100F0FA
:10015000B3FC10BD732902D100F0B6FC10BD002025
:1001600010BD1FB500F044FE04000020002107F080
:10017000FFF9401C60600020002107F0E3F9E06017
:100180001FBD10B510BD00F014FE1146FFF7E9FFCA
:1001900005F040FE01F0D0F803B4FFF7F2FF03BC16
:1001A00001F05AFC084B19680868203080F3098870
:1001B000022080F31488BFF36F8F3FBCAE4608BCAB
:1001C00004BC62B61847000030000020EFF3108036
:1001D00072B6704780F310887047EFF309800E4BBA
:1001E0001A6820381060F0C044464D4656465F46B7
:1001F000F0C008B572B606F0C1FD62B60CBC11685D
:1002000008681030F0C8A046A946B246BB4680F345
:1002100009882038F0C818473000002070B505461E
:100220000C46164602E00FCC0FC5103E102EFAD237
:10023000082E02D303CC03C5083E042E07D301CCFD
:1002400001C5361F03E021782970641C6D1C761EE1
:10025000F9D270BD0748804707480047FEE7FEE730
:10026000FEE7FEE7FEE7FEE704480549054A064BC0
:1002700070470000674C0008B900000818430020D0
:1002800018530020184B0020184B00200FB41CB549
:10029000074B06AA7B4469460090059800F0E9FBED
:1002A0000020694600F0F8FB1CBC08BC04B01847ED
:1002B0000108000070B5044685690068C10601D5D3
:1002C000302600E02026C00707D070BD62683046A7
:1002D000A1689047206A401C20626D1EF6D570BD53
:1002E00070B5044685690078C00707D170BD6268A3
:1002F000A16820209047206A401C20626D1EF6D520
:1003000070BD70B50C460546012A05D028788006D8
:1003100000D5EA69002302E0012305E05B1C93425B
:1003200002D2E05C0028F9D1A869E618C01AA861D9
:10033000286AC01828622846FFF7BCFF04E06A68F4
:100340002078A968641C9047B442F8D32846FFF788
:10035000C7FF70BDF7B5002575291068009914A670
:1003600011D0C046C046002802DA404211A608E07B
:10037000009909688A0701D50FA602E0490704D54C
:100380000EA6012501E0C046C046009F0024243788
:1003900004E000F04FFC30313955641C0028F8D1DE
:1003A0002B4632462146009800F005FBFEBD0000BA
:1003B000000000002D0000002B00000020000000C5
:1003C00070B504460D4621461068C046C0462188D7
:1003D000090502D50F4A7A4402E00E4A7A440E32E9
:1003E00023460021243305E006070009360F965DF9
:1003F0005E54491C0028F7D120780023000705D55A
:10040000702D03D0002901D002231132204600F0C4
:10041000D2FA70BDDE730000F3B50446002081B04F
:1004200020622046E168884700287DD0252802D038
:100430006268A16883E0454F00257F442046E1685B
:1004400088472028064608DB312E06D2B819203806
:100450000078002801D00543F0E7A80701D5042063
:1004600085430020E0610746A0612A2E0AD030466D
:1004700005F0ACFA002827D0B8000019303E0090F3
:10048000866119E00298BA00121902C891610290BF
:100490002046E1688847012F064617D1E069002809
:1004A0001FDA202085431CE000980A218069484318
:1004B00000998019303888612046E16888470646EF
:1004C00005F084FA0028EFD1012F0AD02E2E08D192
:1004D0002046E16888470646202005437F1C022FFE
:1004E000C3DBA069002803DA4042A0610120054374
:1004F000E80701D010208543002E24D03046413833
:10050000192803D80120C002054320362046256063
:100510003146029A1546FFF70DFE00280CD001283F
:1005200007D0ED1DE80800E00DE0C00008300290A3
:1005300077E72D1D029574E762683046A168904701
:10054000206A401C6CE7206AFEBD0000A273000018
:1005500070B5064600F020FA0468054630460A22C7
:10056000002100F00BFB2C6070BD000010B5024AAA
:1005700000F03CFB10BD0000A4000020401ECAB2E9
:100580004178401C8A4202D00029F9D100207047EE
:1005900030B5441C03E00178401C00290DD08107D0
:1005A000F9D10B4BDD0104C8D11A91432940FAD08F
:1005B000001B0A0603D0C01E30BD001B30BD0A045C
:1005C00001D0801E30BD0902FCD0401E30BD0000AD
:1005D000010101010346F0B50B439B072DD1244DCA
:1005E000EF01042A29D308C810C95E1B9E43121FBD
:1005F0003E4017D0D8B2E1B2401A3106014310D1C3
:1006000098B2A1B2401A310401430AD11802210262
:10061000000A090A401A3102014302D1180E210EC4
:10062000401AF0BDA342DCD018BA21BA884201D9E1
:100630000120F0BD0020C043F0BD002A01D1002000
:10064000F0BD03780C78401C491C002B0DD0A34250
:100650000BD1521E09D003780C78401C491C002B8A
:1006600003D0A34201D1521EEBD1181BF0BD0000F4
:1006700001010101F8B5042A2CD3830712D00B78AD
:10068000491C0370401C521E83070BD00B78491C79
:100690000370401C521E830704D00B78491C037062
:1006A000401C521E8B079B0F05D0C91ADF00202368
:1006B000DE1B08C90AE0FFF7B1FDF8BD1D4608C9F9
:1006C000FD401C46B4402C4310C0121F042AF5D232
:1006D000F308C91A521EF0D40B78491C0370401C51
:1006E000521EEAD40B78491C0370401C012AE4D442
:1006F00009780170F8BD431A70B593421BD289186E
:10070000801804E0491E401E0B78521E03709307A8
:10071000F8D106E01039103878C9103978C010388F
:10072000103A102AF6D203E0091F001F0B6803607D
:10073000121FF9D570BDFFF771FD70BDF8B5064603
:1007400014460843800707D0751AA54219D2081924
:10075000102D13D2311907E03046FFF7CCFFF8BD5A
:10076000401E491E02780A70641EF9D2F8BD471B6C
:100770002A463946FFF77EFF641B3846A542F6D36A
:10078000011B22463046FFF775FFF8BD01E004C0AB
:10079000091F0429FBD28B0701D50280801CC907E1
:1007A00000D00270704700290BD0C30702D002703E
:1007B000401C491E022904D3830702D50280801CF5
:1007C000891EE3E70022EEE70022DFE7F8B50746DF
:1007D0000B4639461943890713D1164CE601042A02
:1007E0000FD302CB0D1B8D43354202D102C0121F25
:1007F000F5E7CBB20370401C521E002B13D0090A40
:10080000F7E7002A14D01978521E5B1C0170401CB7
:10081000002908D0002A0BD01978521E5B1C0170E9
:10082000401C0029EDD1002A02D01146FFF7CAFF73
:100830003846F8BD01010101002203098B422CD387
:10084000030A8B4211D300239C464EE003460B4320
:100850003CD4002243088B4231D303098B421CD382
:10086000030A8B4201D394463FE0C3098B4201D374
:10087000CB01C01A524183098B4201D38B01C01AAC
:10088000524143098B4201D34B01C01A5241030923
:100890008B4201D30B01C01A5241C3088B4201D3D2
:1008A000CB00C01A524183088B4201D38B00C01A7F
:1008B000524143088B4201D34B00C01A5241411AA6
:1008C00000D201465241104670475DE0CA0F00D089
:1008D0004942031000D34042534000229C46030982
:1008E0008B422DD3030A8B4212D3FC22890112BA08
:1008F000030A8B420CD3890192118B4208D38901E0
:1009000092118B4204D389013AD0921100E08909F7
:10091000C3098B4201D3CB01C01A524183098B42D8
:1009200001D38B01C01A524143098B4201D34B01C1
:10093000C01A524103098B4201D30B01C01A524124
:10094000C3088B4201D3CB00C01A524183088B42AB
:1009500001D38B00C01A5241D9D243088B4201D334
:100960004B00C01A5241411A00D20146634652411F
:100970005B10104601D34042002B00D5494270471E
:1009800063465B1000D3404201B50020C046C0461C
:1009900002BD70477047704700487047B44200205E
:1009A00010B5FFF7F9FF006810BD10B50446FFF75A
:1009B000F3FF046010BDFFB504460D4681B024303E
:1009C00000902168880604D51022E06991432160D7
:1009D00000E00120A84201DD471B00E00027049849
:1009E000A1697A191018081AA0612078C00602D4EB
:1009F0002046FFF75FFC002608E003986268A168C4
:100A0000805D9047206A401C761C206204988642D4
:100A1000F3DB2078C0060AD52046FFF74BFC06E042
:100A20006268A16830209047206A401C20623846E6
:100A30007F1E0028F4DC07E000986268A168405D32
:100A40009047206A401C206228466D1E0028F3DC77
:100A50002046FFF745FC2078000602D5022005B0AD
:100A6000F0BD0120FBE7000001694A1C0261087823
:100A7000704700B58FB0029100210591054901939F
:100A800079440391114604906846FFF7C5FC0FB006
:100A900000BD0000E5FFFFFF0A681070521C0A60ED
:100AA000704710B54369002B02D0C046C04601E034
:100AB000FFF727FC012010BD1278014624310A708F
:100AC00000224A700122ECE711680022D243E8E7D5
:100AD0000FB4002300B589B00CA900910B99CB602D
:100AE000224B7B44224A7A440792042206930192C5
:100AF000204A0292204A7A446B460892024600201D
:100B000006F0B2FD09B008BC04B0184770B506463F
:100B100015460C46324686B00020C04301900020A6
:100B2000049004A8009102916946FFF7D1FF0246A4
:100B300004982118002D05D0002801D0084600E0B7
:100B400020462860049800280DD0002A02DD009875
:100B5000884208D03246081B6946019004A80094D8
:100B60000294FFF7B5FF06B070BD0000A1010000C0
:100B7000BD010000FFFFFF7F7B010000F7B50F46BE
:100B80000026009C2578641C002D05D000F06AF832
:100B90000068405DC007F5D12B2D02D02D2D18D057
:100BA000641E3946029A204600F08FF8002F04D0C8
:100BB0003968A14201D100993960710502240029E8
:100BC0000BDA4042002803DDFFF7E6FE0460A007D1
:100BD000FEBD012080020643E3E70028F8DAFFF7B4
:100BE000DBFE04600048FEBDFFFFFF7FF8B5154641
:100BF0000E46040003D12C68002C00D10CA4204622
:100C000000F0C7F80419207800280ED02746314696
:100C1000384600F0ADF804192078002802D00020F2
:100C20002070641C38462C60F8BD0027FAE70000ED
:100C30000000000001468008081A02091018020A84
:100C40001018020C1018C008820012185200891ADD
:100C500001E0401C0A390A29FBD27047004870475E
:100C6000B442002010B500F0C3F8001D10BD00BF55
:100C70000169000010B50446FFF7F4FF0068005D4D
:100C8000C007C00F10BD4268002A08D001680B7869
:100C9000491C002B03D0521E06C018467047012184
:100CA000C160881E70474268002A0BD0C368016883
:100CB000002B07D183688B4204D0491E521C06C00A
:100CC000002070470020C0437047F7B5154682B03A
:100CD0000027029C2078641C0197302802D0002D48
:100CE00015D015E020780127641C782804D05828F6
:100CF00002D0002D09D00BE0002D01D0102D07D11E
:100D0000207800271025641C02E0082500E00A2551
:100D10000026009610E0009901276943081829462B
:100D20007143020C80B200908E183804864201D3C1
:100D3000012001902078641C294600F05DF800280D
:100D4000E9DA0398002805D0002F01D0641E00E0E6
:100D5000029C04600198002806D0FFF71DFE0221C6
:100D60000160C81E05B0F0BD009930040843F9E7E2
:100D700030B503461D78002D03D00A4603E0AC428F
:100D800001D1181A30BD1478521C002CF7D15B1C0D
:100D9000F0E730B503461D78002D08D00A461478D8
:100DA000521C002C03D0AC42F9D15B1CF3E7181A9B
:100DB00030BD7546FFF752FFAE4605006946534603
:100DC000C008C000854618B020B5FFF74DFA60BCDA
:100DD00000274908B6460026C0C5C0C5C0C5C0C565
:100DE000C0C5C0C5C0C5C0C5403D49008D4670479F
:100DF00000487047D44200203A2800D230382023DF
:100E000002469A43412A01D310463738884201D31B
:100E10000020C04370470000FFB58BB00878FF2862
:100E200006D0491C2D2805D000230020009009E0A1
:100E300000200EE00123F8E7009A0A24624380189C
:100E4000491C00900878FF28F6D1002B02D00098AA
:100E500040420090002503952C460D9800782D28DF
:100E600001D02B2815D10D99491C2D280D9102D0A8
:100E7000002003900DE00120FBE7401C21460027E5
:100E80000A223B460D90284600F0A2FA35183C464F
:100E90004C410D980678FF2EEFD100210846002026
:100EA000C0460399002902D0810040184008000282
:100EB000860F012E01DD0026F6430E990098471893
:100EC000284620430BD0FF20F530C7421ADA03989A
:100ED000C1070B98002E41600ADD012009E003984C
:100EE000C1070B9841600B99002008600FB0F0BD5E
:100EF00000200B990860FFF74FFD022101601821C7
:100F000008461AE0FF20F530874219DD002E02DA8C
:100F1000FC48784401E0FC48784406C80B9806C0B9
:100F20000B9803994068C90708430B994860FFF77D
:100F300033FD02210160142108460020C046D5E798
:100F4000002108460020C04639000A9001D57242AF
:100F500000E03246002900DA794207A800F050FA92
:100F600007AB07CB04AB07C3E8480090002001465D
:100F7000214304D12C460546E44920390091210C37
:100F80000904014306D1290C24040C4300992D04C3
:100F900010390091210E0906014306D1290E2402C1
:100FA0000C4300992D0208390091210F09070143D4
:100FB00006D1290F24010C4300992D01091F00912E
:100FC000A10F8907014306D1A90FA4000C43009982
:100FD000AD00891E0091E10FC907084304D10098B4
:100FE0006D196441401E0090002F0295019406DDAA
:100FF00032466846012304A900F096FC05E001236F
:101000003246684604A900F0E4FC044603980D4605
:10101000002802D00120C0074440002108460020DB
:10102000C0460A99BA4E48400007800F07D16000B9
:101030004008284303D06000400DB04214D1FFF7B0
:10104000ABFC022101606000400DB0420CD1B14800
:10105000784406C80B9806C00B98E10FC907406892
:1010600008430B99486041E70B9844600B98056072
:101070003CE7FFB51F4695B0002000250C909E6808
:101080005C68ED431390FFF7B3FEC0680168405CF5
:101090001490B96916986D1C88470A90396A884778
:1010A0000028F6D10A98401C0AD00D20C0018443C4
:1010B000002E12DD0A982B2809D02D280DD103E02F
:1010C0000020C04319B0F0BD012080020443B9697B
:1010D00016986D1C8847761E0A90600504A901D5F4
:1010E0002D2000E02B206A46491C107410A8002E09
:1010F0000D910B903BDD0A98692805D0492803D053
:101100006E2801D04E281DD13B4603900220029646
:10111000179A1699C0430095019406F0B5FAC11CC0
:10112000D0D10FE0B96916986D1C88470A9001204C
:10113000761E40020443179805601398401C002E49
:10114000139014DD0A983028ECD0782801D0582864
:101150000DD1139801280AD13B460296179A169989
:10116000001F0095019406F087FAC11CAAD11499BA
:101170000A98884246D18020044308E00C981799C9
:10118000401E0C90012040020443681C0860B969AD
:101190006D1C1698761E884730280A90EED031E0F4
:1011A0001499884205D1200603D480200443761E7A
:1011B0001EE00A9804F00AFC002826D0012008A9A5
:1011C000400204430D980331761E88420BD20A98E0
:1011D0000D99303808700D98401C0D90200607D5E9
:1011E0000C98401E03E0200602D40C98401C0C9082
:1011F000A00502D51799681C0860B96916986D1C7E
:1012000088470A90002ECBDC59E0002E57DD0A9863
:10121000652801D0452852D1A00550D50320B969D1
:10122000000284436D1C1698761E8847002E0A9093
:101230000CDD2B2804D02D2808D1FF2001300443D9
:10124000B96916986D1C8847761E0A90E00501D58D
:101250002D2100E02B210B9801700B98401C0B9066
:10126000009025E0012012A9400204430B980131AF
:10127000761E88420ED20A980B9930380006000E6E
:10128000087003D100990B9888420AD90B98401C2A
:101290000B9006E0E00501D51F4801E01E484042E2
:1012A0000C90B96916986D1C88470A9017980560CC
:1012B000002E04DD0A9804F089FB0028D2D1F969D8
:1012C000169888470D99FF2004AA08700B9908709A
:1012D00000200E900F900C9B10A90EA8FFF79CFD0C
:1012E000A00502D40120C043ECE62420044215D01E
:1012F000E0071FD138680F9A0E99031D3B60006804
:1013000006C017E0C2690000B46900003E4000005A
:10131000FF0700007C680000F1D8FFFF0EA96846B7
:1013200004F0DEFAE00705D13868009A011D396043
:10133000006802602846C5E610B50446C046C046AF
:101340002046FEF729FF10BD024670B50A439207FA
:101350002AD11E4DEE0104C808C9541B94433440E1
:1013600017D0D0B2D9B2401A2106014310D190B2A1
:1013700099B2401A210401430AD110021902000A4D
:10138000090A401A2102014302D1100E190E401A17
:1013900070BD9A42DFD010BA19BA884201D9012033
:1013A00070BD0020C04370BD02780B78401C491C02
:1013B000002A09D09A4207D102780B78401C491CB8
:1013C000002A01D09A42EFD0D01A70BD010101016C
:1013D0004343514330B55C18010C130C0D4692B2D7
:1013E0005D4380B251432C19054655430A0C09044C
:1013F0004D1962415843010C00044019514130BD60
:10140000F7B516468AB0334878446C4603467C33B9
:10141000C06F5A689B680DC42E487844763003AC80
:101420000DC80DC43720C001081837211B30FFF745
:101430000DFA05460C46803D1B3C02D56442012056
:1014400000E000200027099010E0E0070CD00C20FD
:1014500020497843794432464C3941186846012383
:1014600000F054FA6B4607C364107F1C002CECD1CB
:10147000184F7F442E3F16E0E80712D02001C01914
:101480000EC80691089307920068F04201D198199E
:1014900008903246012306A903A800F037FA03ABEF
:1014A00007C36D10641C002DE6D10998002806D0F2
:1014B00032466946012303A800F07EFA05E00123C5
:1014C0003246694603A800F021FA0A9B07C30DB013
:1014D000F0BD0000E8630000034640000A4610B576
:1014E000400D0BD00121C9070F24A40200191C03D1
:1014F00064082143540D2143D20207E0002101205A
:10150000F2E7D40F490021435200401E0029F8DAC7
:10151000DB0FDB07184310BDFFB50D46144685B041
:101520004868516804F080F900910190A868A168AA
:1015300004F07AF902910390A868616804F074F9E4
:10154000029A12188242029201D2012000E0002089
:10155000019A0B18D2180028019202D08A4202D9AF
:1015600003E08A4201D2012000E00020009908181F
:1015700000906868A16804F057F9029A1218824234
:10158000029201D2012000E00020019A0B18D2182B
:101590000028019202D08A4202D903E08A4201D295
:1015A000012000E0002000990818009028682168B8
:1015B00040004900400849084018FA49471814E01B
:1015C00001994000C90F084300900198029940001A
:1015D000C90F08430190029803994000C90F0843BE
:1015E0000290039840007F1E039000980028E7DADD
:1015F0000898002801D0EC4E00E00026B74201DA3E
:10160000012000E00020002804902AD0F71BF806F3
:10161000C00E15D0029B2021091A039A8B401A4351
:101620000392029A019BC2408B401A430292019A94
:10163000009BC2408B4000991A430192C140009127
:101640007B110DD06F460320C11A03D50021820003
:10165000B95003E08A008100BA587A50401EF3D591
:10166000374603980299002800D0012001430898CA
:101670000291002808460CD0002800D001200199D2
:10168000019A490508430121D20AC902D2020192F6
:1016900000E001210E9B0122D207012B02D0002B7A
:1016A00003D013E0002807D120E0904204D89042F4
:1016B0000CD1019B0B4209D0019B5918019105D116
:1016C0000099491C009101D17F1C009200280DD087
:1016D000102108460020C0460498002806D00F9824
:1016E000002803D0082108460020C0462868216849
:1016F000019B009A4840C10F0598C90739430EC0A5
:1017000009B0F0BDFFB587B0099A089808995368E9
:10171000926840688968964600220393174694466B
:10172000089A12685300099A5B081268520052081E
:101730009A1A9E4BD4180A9A002A01D0352200E04A
:10174000402206920022012315460492DB070593EE
:1017500024E0002D05D175460346039E4D1BB34181
:1017600009D375466646039B491B049D9841059B1A
:101770007519AC465F4163463B4308D0059B049E08
:10178000DD0776082E435B080496059301E0521EA0
:10179000641EC50FED0749184041521C069B9A4232
:1017A000D7DB002D04D17546039A6B1A824101D212
:1017B00003200CE0039A0B466B404240134303D0D6
:1017C000014303D0012002E0022000E00020614636
:1017D00001910021009702910A99002905D06146E4
:1017E00040020143704B019102E080070023029008
:1017F0009C4201DA012000E0002007003AD01A1BC9
:10180000D006C00E15D0029D2021019C091AC540AA
:101810008C402543029C8C4000D001242543019C30
:101820000295009DC4408D4000992C430194C14015
:10183000009154111DD06D460221002202290CD1C5
:101840000320001B07E0002804DB8600AE59002EB1
:1018500000D00122401C0328F5DB081B02D58800BC
:101860002A5004E08000285810438A00A850491EDE
:10187000E3D51C460A98002802980CD0002800D016
:1018800001200199019A490508430121D20AC902A0
:10189000D202019200E00121109B0122D207012B0C
:1018A00002D0002B03D013E0002807D11FE09042A4
:1018B00004D890420CD1019B0B4209D0019B5918CE
:1018C000019105D10099491C009101D1641C00923D
:1018D00000280CD0102108460020C046002F06D05A
:1018E0001198002803D0082108460020C046089817
:1018F0000999019A009B006809684840C10F079840
:10190000C907214382600AC00BB0F0BD00B585B0A5
:10191000019300920A460146002302A8FFF7FCFD4E
:1019200002A807C805B000BDFFB50A461F4685B02E
:101930000799019301230091014602A8FFF7ECFDEE
:1019400002990398049ECA0F4900D20700920F2201
:10195000490892028C1A0021002800DB0C46450041
:1019600013486D08844214D3079A002A04DA441EEF
:101970000026104DF64302E004460D460E461021A7
:1019800008460020C046002F03D00421084600204E
:10199000C0462005E90A0843009908436905F20A90
:1019A0001143ADE602C0FFFF013C0000FF3F000015
:1019B000FF070000FFFFFF7F00B585B00193009295
:1019C0000A460146002302A8FFF79CFE02A807C8AA
:1019D000A8E7FFB50A461F4685B007990193012382
:1019E0000091014602A8FFF78DFE02990398049E1C
:1019F000CA0F4900D20700920F22490892028C1A9E
:101A00000021002800DB0C46450011486D08844287
:101A100014D3079A002A04DA441E00260D4DF6431B
:101A200002E004460D460E46102108460020C0463E
:101A3000002F03D0042108460020C0462005E90AF3
:101A40000843009908436905F20A114358E600006B
:101A5000FF070000FFFFFF7F01491820ABBEFEE734
:101A600026000200FFB51F4689B013981299400561
:101A7000C00FC00705900020079005460446461E8B
:101A8000049002903C20491C12910690B9690A9872
:101A9000884703901498401E14901498002841DD44
:101AA00003982E2816D01021FFF7A6F9002834DB62
:101AB00001210491079901431AD0069900290CDBF2
:101AC000069AC11700F045FA054306980C43001F1B
:101AD000069006E0012002900EE0002801D00120CF
:101AE0000543012007900298002805D1361D03E028
:101AF0000298002800D0361F1298401C1290B96935
:101B00000A98884703901498401E1490049800285F
:101B1000C3D00B9912980860BFE70398702808D0CB
:101B2000502806D0F9690A9888470498002815D0EB
:101B300051E00020039001200290049800280AD070
:101B40001298401C1290B9690A9888471499491E46
:101B50000029149106DCF9690A9888470120C043DE
:101B60000DB0F0BD2B2804D02D280DD10020C0438E
:101B700002901298401C1290B9690A9888471499EB
:101B8000491E00291491E6DD411CE4D00A21FFF72B
:101B900033F90028DFDB03990A2251430818039028
:101BA0001298401C1290B9690A9888470A21FFF7D9
:101BB00023F914990B9A491E1491129911601499E2
:101BC000002901DD0028E6DAF9690A9888470299B8
:101BD0000398484386191398242108400490284606
:101BE000204304D0A10F8907090002D006E0059820
:101BF0009BE0A90FA4000C43AD00B61EE10FC9077E
:101C0000080002D16D196441761E0498002803D0A3
:101C10000B2002905D4803E0282002907D20C04305
:101C20008642039007DA811B029808184128029027
:101C300001DD41200290029A01200021521E00F095
:101C400088F9024628400B462140084301D0012074
:101C500000E0002007900020521EC04343412A406C
:101C600023401A4301D0012000E00020079906908C
:101C7000014352D0002108460020C0460321059AA6
:101C800089050840002A05D082008018C20F10186C
:101C9000401008408015012802DD0020C04301E00B
:101CA000012815D0401C38D00798002835D0069858
:101CB00000280DD1029A0120002100F04AF92840A5
:101CC0002140084301D0012000E00020002824D05A
:101CD000029A0120002100F03CF9034640198C468D
:101CE00061412A1A8C410FD30298402807DD0498DD
:101CF000039E002801D0343E02E0173E00E0761C2F
:101D000001240025E40708E05B1E62460024E4434A
:101D10006241DD43D44305400C4003980121081A79
:101D2000B04206DA1A490598084301900020009055
:101D30000EE060006205010BE80A1043059A00906E
:101D400068460A4313490A433146019203F034FEC0
:101D5000049800280AD01398C00714D13868019A53
:101D60000099031D3B60006806C00CE002A86946AC
:101D700003F0B6FD1398C00705D13868029A011D1B
:101D80003960006802601298EAE6000002FCFFFF7A
:101D90000000F07F0000F03FFFB51D4687B01198AE
:101DA000484A109C129E40051399C00F761EC0072A
:101DB0000243019200220092FF22D205104320220A
:101DC00091434929059003D017464E2928D04FE06A
:101DD0003DA002AA0BC801270BC2A9690898641C80
:101DE0008847761E014607D402A8C05D002803D0AC
:101DF0002022914381420AD0E96908988847032F3D
:101E000036D0082F34D00120C0430BB0F0BD7F1C6A
:101E1000032F01D0082FE0D10999601C0860DCE78E
:101E2000A9690898641C8847761E2DD4B8434128B8
:101E30002AD1A9690898641C8847761E24D4B8431F
:101E40004E2821D1A9690898641C8847019901226C
:101E5000D204114301910599D200114305910999CA
:101E6000761E0C6001D4282806D0E96908988847B6
:101E70001198C00712D023E0A9690898641C88470C
:101E8000761E01D4002803DAE96908988847BAE782
:101E90002928F1D10998641C0460E9E711982421EC
:101EA000084207D02868019A0099031D2B6000683A
:101EB00006C005E028680599021D2A6000680160D7
:101EC0002046A2E70000F07F494E46494E4954594A
:101ED000000000000246C80FC00781434B0030B528
:101EE0004B405B009B0D20D01923DB06C918012352
:101EF0001B05994220DB0324A40704251346AB40AD
:101F00000BD3002B04D1EB0613409B00E34204D417
:101F100001246407002312195941FF231B0599422C
:101F20000BD2C9000143500F09E0CB0204D5014395
:101F30000803024305D0054830BDFF21C905084309
:101F400030BD084607210905884330BD0000C07F29
:101F5000704710B5202A04DB0146203A914000204A
:101F600010BD914020239C1A0346E3401943904042
:101F700010BD0000F8B5224C4E00069DA6420AD8BE
:101F8000A64201D1002806D15E00A64203D8A6428F
:101F90000AD1002A08D00D24240425422CD0294639
:101FA000002000F05FF8F8BD0C461C430CD49942A9
:101FB00002D0EFF30080F8BD904202D0EFF3008032
:101FC000F8BDEFF30080F8BD09242407E5008B423B
:101FD00006D0EFF30080A043591A06D2284304E04C
:101FE000101A05D3EFF30080A04380F30088F8BDFA
:101FF000EFF30080A043F1E7009500F04BF8F8BD47
:102000000000E0FF70B505464800440D124B00206B
:10201000002C0AD0634008D09A4206DA6642B242E7
:1020200003DD12054019514170BD002C08D0002B72
:1020300009D0C90FC907002AF6DB084A114370BD51
:10204000C90FC90770BD28460A03104302D00020FB
:10205000034970BD284670BDFF0700000000F07FF7
:102060000000F87FC80212D54803400F002804D0B2
:10207000C803C043012188407047EFF3008000018E
:10208000000903210907084380F3008870470020F6
:102090007047000010B500200249029A00F004F8D1
:1020A00010BD00000000F87F10B50C461107090FA5
:1020B000092904D00A290AD008290CD104E01146C4
:1020C0000820FFF7CFFF06E0510606D501E05106D4
:1020D00001D50120C007214610BDD10607D5010159
:1020E0000909CC084907000E0006044309E0410F26
:1020F00020024907000A0143200E00061D22D1419B
:1021000001430846E7E700000078F723C007010F06
:10211000024842781A401143417070471C00002069
:102120000449007A0A784007D208D200400F0243DF
:102130000A7070471C00002010B504F00BFD134915
:10214000002008707D24E40023460C2210A11448CE
:1021500001F07EFD23460C220DA1114801F078FD0F
:1021600023460C220AA10E4801F072FD23460C22E0
:1021700007A10B4801F06CFD23460C2204A108487E
:1021800001F066FD04F0F2FC10BD00001900002013
:1021900041542A4753544154453F0D0A0000000062
:1021A0004C01002010B5054800F084F9044800F007
:1021B00081F9044800F07EF910BD0000880300207A
:1021C000E40300204004002010B5024800F072F93A
:1021D00010BD00007402002010B5034800F06AF939
:1021E000024800F067F910BDD00200202C03002047
:1021F00010B50446006C09498008800040186064EE
:10220000207814210838FEF717FB04498031A164B7
:10221000C106C90E01208840E06410BD00080240DC
:102220000179084B8906890E8A00D2180265054A91
:102230004432491E42658A07920F0121914081650F
:1022400070470000FC080240F0B5846CC56C656006
:10225000046D002C02D0446D856D65600B4C656883
:10226000066C1C273E400127B7403D43656004686B
:1022700063608368102B036803D099600068C260B4
:10228000F0BD9A600068C160F0BD0000000002402F
:1022900072B6FEE7044A5069044BC9001840014376
:1022A00003480143516170470020024007E0FFFFEF
:1022B0000200010030B505494C6901252C434C61F1
:1022C0000260BFF36F8F436030BD0000002002400A
:1022D00030B50B4C002362690125AD042A436261CD
:1022E000EFF3108272B620C95B1C20C0DBB2402B1A
:1022F000F9D32069C003FCD482F3108830BD0000FC
:1023000000200240F8B5044600F0EEFA0127064628
:102310003F04124D06E0601C04D000F0E5FA801B7B
:10232000A04213D228693842F5D128690C490840E7
:102330000C4929610CD00C4948600120F8BD601C93
:1023400006D000F0D1FA801BA04201D30320F8BDD3
:1023500028694003F3D40020F8BD000000200240AB
:10236000FA830000FB830000400F002010B5FEF749
:10237000EFF800070349420E0878872318401043FE
:10238000087010BD1C00002000780549C0014018ED
:1023900004490A785206520E104308707047000034
:1023A00000E8FFFF1C000020044900784A78C007BD
:1023B00052085200C00F02434A7070471C000020B0
:1023C000F0B5002808D0014620314A79022A05D00C
:1023D0000422C263002008710120F0BD0268136866
:1023E0000E24A3431360426C1468FF2301339C4303
:1023F0001460026814686408640014600C4A55682C
:10240000066C1C24264001242746B7403D435560F6
:10241000826CC56C5560026D002A05D015689D431D
:102420001560826D406D42604C7100200871F0BDF6
:1024300000000240F8B500240246203251790229FA
:1024400003D00421C16301242DE001680B680E252F
:10245000AB430B6001680B685B085B000B60416C71
:102460000B68FF250135AB430B6010494D68066CC6
:102470001C231E4001231F46B7403D434D60816C25
:10248000C56C4D60016D002906D00E681D02AE437B
:102490000E60416D856D4D60537100211171816B2E
:1024A000002900D088472046F8BD00000000024007
:1024B000C06B7047F0B42C490C6802681368056C57
:1024C0001C273D400426AE40264211D05E070FD5A2
:1024D00013689B0603D4146804239C4314604B6860
:1024E000046C04223C40A24013434B60016B1CE08F
:1024F0000227AF40064627402036002F19D09F07FD
:1025000017D513689B0605D413680A24A3431360E8
:10251000012272714B68046C1C2214400222A240FA
:1025200013434B6000213171C16A00291AD0F0BCFD
:1025300008470827AF40274214D01B0712D513685D
:102540000E24A34313604B68046C1C221440012228
:102550001546A5402B434B60C26372710021317157
:10256000416BE2E7F0BC70470000024070B5040028
:102570003FD02548256814212818FEF75DF9800012
:102580002064022026462036707128681F490840C2
:102590002860E168A0686269084321691143084323
:1025A000A1690843E1690843216A084321680A6870
:1025B000104308602046FFF71BFE0121A068890335
:1025C0000025884200D165602079616C8006800E0C
:1025D0000860A06CE16C41606068401E03280AD866
:1025E0002046FFF71DFE206D0560606DA16D416006
:1025F00004E0012070BD25656565A565E5630120E2
:1026000070713571002070BDF8FFFDBF0F80FFFFB6
:10261000F8B504468C4620300179002501290BD0FD
:102620000126067141790027012907D08021E16345
:10263000077101252846F8BD0220F8BD022141712D
:10264000E763206801684908490001606146204647
:10265000FFF7FAFD206B00282068016801D00E22E8
:1026600005E0042291430160206801680A221143B9
:102670000160606C0168CA03074902D502680A4319
:102680000260206D002802D002680A4302602068C0
:10269000016831430160CDE70001000070B50446D8
:1026A00000F022F90546601C02D004480078241886
:1026B00000F01AF9401BA042FAD370BD20000020A0
:1026C00010B57D200124C000FFF71CFE05484169BC
:1026D0008204114341614069002800DA0024204649
:1026E00010BD000000200240F0B51FB4144C064697
:1026F0002078154601280AD00120207000277D206F
:10270000C0006760FFF7FEFD002803D010E0022044
:1027100005B0F0BD012E0DD029460198FFF7D8FD78
:102720007D20C000FFF7EEFD06494A69B2434A61C9
:102730002770EDE72A46039B0198FFF7BBFDEFE703
:10274000400F002000200240064900204A69002A6C
:1027500007DA054A8A60054A8A604969002900DA71
:10276000012070470020024023016745AB89EFCD6F
:10277000F0B5002303249AE02A4601259D402A4013
:102780007ED00E79B607B60F012E01D0022E16D1DB
:1027900086682746B4465E00B646B7406646BE43E6
:1027A000B446CF687646B74066463743876046688A
:1027B000AE430D79ED06ED0F9D40354345600D7933
:1027C000ED43AD0708D0C5685F002646BE40B5435F
:1027D0008E68BE402E43C6600D79AD07AD0F022D49
:1027E0000ED1DD08AD002D18AC462D6A5E07F60E41
:1027F0000F27B740BD430F69B7402F4365462F628F
:1028000005685F002646BE40B5430E79B607B60F91
:10281000BE402E4306604D68AD03AD0F46D09E0806
:10282000264DB6007519AC462D6E9E07F60E0F2785
:10283000B740BD4305273F07B84201D100270FE04D
:102840001F4FB84201D101270AE01E4FB84201D103
:10285000022705E01C4FB84201D1032700E00527FD
:10286000B7402F43154D664637662D684E68954331
:10287000F60200D51543114F3D607D68954300E099
:1028800014E04E68B60200D515437D600B4D8035CF
:102890006E684F689643BF0300D516436E602E687E
:1028A0004F689643FF0300D516432E605B1C0A68F1
:1028B0001546DA4000D05FE7F0BD00000018024086
:1028C0000004005000080050000C005042691346FC
:1028D0000B401B0491430B4383617047002A01D0D6
:1028E00081617047816270470148806870470000CD
:1028F0002000002070B504000FD021681548086042
:1029000021681548086003CC41602068083C2168B4
:102910008860FFF7E9FF05460CE0012070BDFFF776
:10292000E3FF401B312805D92068C068400701D06B
:10293000032070BD2068C0684007F0D1206802699C
:10294000E1688A4201D0016101E004490160002090
:1029500070BD0000CCCC000055550000AAAA0000B4
:10296000006802490160002070470000AAAA000028
:102970000248816802788918816070472000002031
:1029800010B5084800240168821511430160032036
:1029900000F00AF8002801D0012401E000F052F80C
:1029A000204610BD0020024030B505461F4887B0C4
:1029B000C26B10210A43C263C06B0840009005A996
:1029C00001A800F0FDF90498002815D000F014FAD1
:1029D00040001749FDF730FF411E1748154A0260B5
:1029E000164AC2604160002101618160816100F08E
:1029F00056FC040003D015E000F0FEF9E9E70E48AC
:102A000000F074FC04000DD1112000F039F8042D01
:102A100007D200222946112000F03EF80848056040
:102A200000E00124204607B030BD00000010024045
:102A300040420F00001000409C040020E70300000B
:102A40002400002008B50D480168012211430160EF
:102A500000681040009009484038C26B01040A43E6
:102A6000C263C06B0022084003210090481F00F0A1
:102A700013F80320400200F005FC08BD401002409E
:102A8000002805DBC106C90E012088400149086005
:102A90007047000000E100E010B502F0EBFE10BD51
:102AA000BFF34F8F04490348C860BFF34F8F00BF87
:102AB000FDE700000400FA0500ED00E010B50F4C42
:102AC000216803225202914301432160C11FFF3953
:102AD000FA390ED10A480621006848430949FDF732
:102AE000ABFE401C02E0002805D0401E616949058C
:102AF000F9D4002010BD032010BD0000007000407C
:102B00002C00002040420F00F8B504460068002663
:102B1000524D800358D5514800274038C06BC00043
:102B200009D44E484038C26B01040A43C263C06BEB
:102B30000840012700904A4801688215114301604E
:102B4000FFF7D2FE009005E0FFF7CEFE0099401A95
:102B5000022825D842480068C005F5D5E869032158
:102B6000090208400FD0A16981420CD0E869032115
:102B70000902EA698843012109040A43EA61EA6912
:102B80008A43EA61E861C0070FD0FFF7ADFE00900D
:102B900008E0FFF7A9FE0099411A3248814201D9A5
:102BA000032609E0E8698007F3D5E86903210902F3
:102BB0008843A1690843E861002F05D027484038C1
:102BC000C16B02049143C1632078C00705D06869D6
:102BD000616880088000084368612078800705D517
:102BE00068690C218843A1680843686120788006E1
:102BF00006D56869032109038843E16808436861D1
:102C00002088400411D56869616980008008084304
:102C10006861012160698907884206D10F48403800
:102C2000C168012212041143C1602088000512D539
:102C30006869032189038843216908436861012188
:102C400020698903884206D104484038C1680122BE
:102C500012041143C1603046F8BD0000401002402C
:102C60000070004088130000F8B50F46060043D0FE
:102C70004D4D28684007400FB84213D22868C0085D
:102C8000C00038432860FFF72FFE044605E0FFF739
:102C90002BFE011B4548814261D828684007400F40
:102CA000B842F4D13068424C81070DD5400704D5B5
:102CB000A068072109030843A060A0680F2109024A
:102CC0008843B1680843A0603078C00732D070688C
:102CD00001280AD002280BD000280FD034494031F7
:102CE00003280ED0C969890704E02168890301E03F
:102CF00021688901002906DB0120F8BD216849050A
:102D0000F8E7096AEFE7A168C908C9000143A160B3
:102D1000FFF7EAFD009006E0FFF7E6FD0099411A93
:102D2000224881421BD8A068382108407168C90038
:102D30008842F1D128684007400FB84217D91A4895
:102D40000168C908C90039430160FFF7CDFD054698
:102D500007E0FFF7C9FD411B1448814201D9032058
:102D6000F8BD114800684007400FB842F1D13078F3
:102D7000400706D5A068072109038843F168084386
:102D8000A06000F04DF8A1683C2289091140094A71
:102D9000515CC906C90EC840074908600748006869
:102DA000FFF702FEF8BD000000200240881300007B
:102DB00000100240587700082C000020240000205A
:102DC00010B5072202600A4A93685B075B0F4360F5
:102DD00093680F24240223408360926807231B0317
:102DE0001A40C260034800684007400F086010BDE9
:102DF0000010024000200240064807490068896828
:102E0000064A4904490F8900515CC906C90EC840E9
:102E1000704700002C000020001002409877000846
:102E200010B5204CA068204A8006400F16D0A0683C
:102E30008006410F501001290FD0A1688906490F63
:102E4000022912D0A0688006400F042823D0A06871
:102E50008006400F032821D0002010BD20680121EA
:102E60008004400F8140104612E0E1688B07E16862
:102E70009B0F4906490F491C032B00D01046FDF754
:102E8000DBFCE1684904490E4843E168490F491CED
:102E9000FDF7D2FC10BD0120C00310BD7D20000253
:102EA00010BD0000001002400024F400F8B504003A
:102EB0007ED020783827C007E94D002846D0A86882
:102EC000E96838408907890F102802D008280BD0FC
:102ED00001E0032908D001206268000482420AD17F
:102EE00029680143296015E0286880032ED56068B1
:102EF0000028DDD02AE0052301211B0489049A4221
:102F00002A6802D10A432A60EAE782432A602868D5
:102F100088432860606800280CD0FFF7E5FC06466F
:102F200004E0FFF7E1FC801B642873D82868800365
:102F3000F7D50BE0FFF7D8FC064604E0FFF7D4FC1A
:102F4000801B6428F1D828688003F7D42078800794
:102F500069D5A868E96838408A070721920FC90235
:102F6000102802D0002813D001E0022A10D0E06817
:102F7000002846D0286888432169084328602868CB
:102F8000FF21013108432860FFF7AEFC06462CE024
:102F90002A68520502D5E268002A89D06A687F2330
:102FA0001B029A4363691B021A436A60002800E00F
:102FB0008DE00ED12868884321690843286028687D
:102FC00001218004400F8140A648FDF735FCA64949
:102FD0000860A6480068FFF7E7FC002877D122E0E8
:102FE000FFF782FC801B02289FD828684005F7D590
:102FF00068687F21090288436169090208436860A3
:1030000011E02968FF20013081432960FFF76CFC43
:10301000064605E098E0FFF767FC801B022884D88D
:1030200028684005F7D42078914E00072ED5A8686F
:103030008006400F03280AD0A0690028306A16D005
:10304000012108433062FFF74FFC07460BE0306A6E
:1030500080071BD5A06900289FD017E0FFF744FC2C
:10306000C01B022870D8306A8007F7D50EE04008F0
:1030700040003062FFF738FC074604E0FFF734FCFD
:10308000C01B022860D8306A8007F7D42078400738
:103090006CD5A86800278006400F042818D0E86B7C
:1030A000C00008D4E96B012000070143E963E96B24
:1030B0000140012700916F480168C90519D40168D2
:1030C000821511430160FFF70FFC00900DE083E0D3
:1030D000F06980074AD5A06800287DD046E0FFF758
:1030E00003FC0099401A02282ED862480068C005E7
:1030F000F5D5A168012910D004200529F16911D066
:1031000049084900F161F1698143F161A068002833
:1031100016D0FFF7E9FB00900EE0F06901210843AB
:10312000F061F3E70143F161F7E7FFF7DDFB009999
:10313000411A5148814265D8F0698007F5D50EE003
:10314000FFF7D2FB009007E05CE0FFF7CDFB0099B2
:10315000411A4948814255D8F0698007F5D4002FBB
:1031600004D0E96B012000078143E963E06900288E
:1031700073D0A9688906490F02294DD00126360669
:103180000228286805D0B0432860FFF7ADFB04464D
:103190003AE0B0432860FFF7A7FB074604E0FFF7DB
:1031A000A3FBC01B02282DD828688001F7D4616AD0
:1031B000206AA26A0843E16A120211430843216BA4
:1031C0000843E9682D4A11400843E8602868304305
:1031D0002860E868012100E03DE009070843E86055
:1031E000FFF782FB044604E0FFF77EFB001B02288A
:1031F00008D828688001F7D52FE0FFF775FB001B82
:10320000022801D90320F8BD28688001F5D4E868B8
:103210001B490840E86020E00128F4D0E868226AF1
:103220008107890F914216D17021626A0140914253
:1032300011D17F21A26A09020140120291420AD1F2
:103240001F214904E26A0140914204D1400F216BE1
:103250004007884201D00120F8BD0020F8BD0000E1
:10326000001002400024F4002C0000202400002064
:103270004010024000700040881300008C80C11F85
:10328000FCFFFEEF03490A6803235B029A430243F3
:103290000A6070470000014070477047704770B582
:1032A000040005D025462035687F002802D006E0BE
:1032B000012070BD00202877204600F016F802207B
:1032C0006877211D206801F0D7FC0122403422726A
:1032D000AA77EA7722706270A270E270227162713E
:1032E000A271E2716A77002070BD704701462031FB
:1032F0004A7F012A01D00120704702224A770168E3
:10330000CB6801221343CB6000680B49884205D08B
:103310000A49884202D00A49884207D18168094B8C
:103320001940062905D0DB1F994202D001681143DC
:103330000160002070470000002C014000040040A4
:10334000004001400700010070470000F8B5044646
:103350000068C66805690027A907002913DAB107C4
:1033600011D5F91E0161012020772068806980074E
:10337000204602D0FFF7E8FF04E000F08BF820467B
:1033800000F089F82777680716D5700714D5042050
:103390002168C04308610220207720688069800589
:1033A000800F204602D0FFF7CFFF04E000F072F854
:1033B000204600F070F82777280715D5300713D579
:1033C00008202168C0430861042020772068C06974
:1033D0008007204602D0FFF7B7FF04E000F05AF85C
:1033E000204600F058F82777E80616D5F00614D5E1
:1033F00010202168C0430861082020772068C06938
:103400008005800F204602D0FFF79EFF04E000F009
:1034100041F8204600F03FF82777E80708D0F0078A
:1034200006D001202168C0430861204600F034F82E
:10343000280601D4A80407D5300605D5216813480D
:1034400008612046FFF729FFE80507D5300605D5B6
:1034500021680F4808612046FFF71EFF680608D55F
:10346000700606D540202168C0430861204600F060
:103470001DF8A80608D5B00606D520202168C0434F
:1034800008612046FFF70AFFF8BD00007FDFFFFF5D
:10349000FFFEFFFF7047704710B500680249884281
:1034A00001D1FFF765FA10BD00100040704710B55C
:1034B000014680310A79012A15D001220A7124229D
:1034C0008A6002681368146864086400146001224A
:1034D0005207934300224266006803602020886000
:1034E0000A71104610BD022010BD7047704770B5BC
:1034F000044605468034207901281AD00120207125
:103500002420A06028680668026852085200026001
:103510002868826807235B069A430A43826028462C
:1035200001F0F6FB286806602020A06000202071D2
:1035300070BD022070BD70B5044605468034207908
:10354000012819D0012020712420A0602868066875
:10355000026852085200026028688268D200D208CD
:103560000A438260284601F0D3FB286806602020C9
:10357000A0600020207170BD022070BD70477047B0
:10358000F8B5054604468035A868EE6821688A6863
:1035900010271206002A1BDA212819D1EFF3108018
:1035A000012282F310888A6880239A438A6080F31C
:1035B0001088E06F002808D0FEF702FF002804D032
:1035C000E06FFEF775FF202824D0204601F070FD43
:1035D0002168886840061BD5222E19D1EFF3108090
:1035E000012282F310888A6840239A438A6080F31C
:1035F00010882868002808D0FEF7E2FE002804D0D2
:103600002868FEF755FF202804D0204601F01EFD53
:103610000020F8BD2F610320F8BD7047F8B503689E
:103620000446D96918689A68B44D0E462E4025465E
:103630008035002E75D0B24EB24F1640074037434A
:103640006ED0CF0706D0C70504D501271F622B69AE
:103650003B432B618B0708D5D30706D0276802238D
:103660003B622B6904273B432B614B0708D5D307EB
:1036700006D0276804233B622B6902273B432B615A
:103680000B0709D520230340334305D026680823C0
:1036900033622E691E432E610B0509D5430107D500
:1036A00001232668DB0233622B69202633432B611A
:1036B0002B69002B42D089060AD520210840C90574
:1036C0000A40104304D0616F002901D0204688478A
:1036D000286921688968490602D42821084232D025
:1036E000204601F0B3FC21688868400627D5EFF337
:1036F0001080012282F310888B68402293438B60F4
:1037000080F310882868002819D07F4981632868D1
:10371000FEF790FE002811D02868816B0DE000E0D4
:1037200017E08E0615D5012720263F0706401740D3
:103730003E430ED0616FB5E020468847F8BD204675
:10374000FFF76BFFF8BD2046FFF767FF00202861F9
:10375000F8BDE66E012E7DD1CE067BD5C60679D5A5
:1037600010221A62236898682646400640360028D0
:1037700049DA2968086840680004000CE8D0B78B73
:103780008742E5D9F08308680068800634D4EFF3F7
:103790001080012181F3108819681701B94319605D
:1037A00080F31088EFF31080012181F310882168E5
:1037B0008B685B085B008B6080F31088EFF31080F0
:1037C000012181F3108821688B684027BB438B60FF
:1037D00080F310882020E8600020E066EFF310807E
:1037E000012181F3108821680B6893430B6080F3FB
:1037F00010882868FEF7E4FD02202067B08BF18B6B
:10380000401A81B235E0B08BF18B401A81B2F08B57
:1038100000289DD000299BD0EFF31080012686F36D
:1038200010881E68FF272137BE431E6080F3108872
:10383000EFF31080012383F3108823689E68304FD4
:10384000FF433E409E6080F310882020E860002007
:10385000E06600E011E06067EFF31080012383F37E
:10386000108823681D6895431D6080F3108802202E
:1038700020672046FFF739FEF8BDCE0208D5560274
:1038800006D50120000518622046FFF778FEF8BD36
:103890000E060BD501278026FF0506403A40164349
:1038A00004D0A16F002900D046E7F8BD4A0614D520
:1038B000420612D52046EFF31081012282F31088D0
:1038C0001A684024A2431A6081F310882021A9605D
:1038D0000021816700F07AFAF8BD0A0205D542009E
:1038E00003D52046FFF74AFEF8BDC901FCD50028E4
:1038F000FADA2046FFF7FAFDF8BD00000F080000D5
:103900000100001020010004D94E000870B5040029
:1039100005D025468035A868002802D006E00120A1
:1039200070BD00202871204600F026F82420A860F1
:1039300020680168490849000160A06A002802D097
:10394000204601F007FA204601F0D0FB0128E7D01D
:10395000206841680922D202914341602068816851
:103960002A2291438160206801680122114301608D
:10397000204601F055FA70BDF0B58DB00446142113
:103980006846FCF721FF1C2105A8FCF71DFF9149A3
:1039900027462068904E8037002588425ED101205E
:1039A0000590069505A8FFF7AFF8002801D0FEF7AF
:1039B0006FFC894840300268012189030A43026094
:1039C000006808400C90716B012001437163716BBA
:1039D000049001400C9103214902009102210191C0
:1039E000029003210391052069460007FEF7C0FEFF
:1039F0007B4E7A483060B5603220F560706075614A
:103A0000B561F5618020356230613046FEF7AEFD6C
:103A1000002801D0FEF73CFC3E60B4626F48704E57
:103A200014305C363060332070601020F560B06078
:103A30007561B561F5618020356230613046FEF711
:103A400095FD002801D0FEF723FCE6670022012146
:103A50001B20B462FFF720F81B205EE0614988421A
:103A60005FD102200590079505A8FFF74DF80028C3
:103A700001D0FEF70DFCF16B012040040143F1631E
:103A8000F16B01400C91716B012001437163716B0B
:103A9000049001400C910C210091022101910290AF
:103AA00003210391052069460007FEF761FE4B499B
:103AB0004B482831B83001608560C560456185613B
:103AC0008026C5610661342105624160FEF74EFD26
:103AD000002801D0FEF7DCFB4148B8303860846232
:103AE000414F3E4839463C303860352078601020E0
:103AF000083161C17D61BD61FD6138463D62FEF7FF
:103B000035FD002801D0FEF7C3FBE7670022032143
:103B10001C20BC62FEF7C0FF1C20FEF7B1FF0DB0F9
:103B2000F0BD32498842FAD1F16B01208004014393
:103B3000F163F16B01400C91716B022001437163E1
:103B4000716B019001400C91012002900320032130
:103B50000390890204200091049069462448FEF7EE
:103B600007FE1E49204850315C3001608560C56009
:103B7000456185618026C561066136210562416027
:103B8000FEF7F4FC002801D0FEF782FB16485C30FB
:103B90003860154F84621148B83764303860372078
:103BA000786039461020083161C17D61BD61FD61D9
:103BB00038463D62FEF7DAFC002801D0FEF768FBCC
:103BC000E767002202211D20BC62FEF765FF1D2071
:103BD000A3E7000000380140001002400800024046
:103BE0007402002000440040880300200048004088
:103BF0000004005070B58C231B58202B01D00220EC
:103C000070BD00290BD0002A09D001248368240349
:103C1000A34206D10369002B03D1CB0701D00120B9
:103C200070BD0023C366046863681B020BD5EFF305
:103C30001083012585F3108825680126B6063543D3
:103C4000256083F3108801F019FB70BD7047704741
:103C5000FFB5064604468036B06883B00D4620287E
:103C600002D0022007B0F0BD002D0CD0059800282E
:103C700009D00120A1680003814206D120690028F3
:103C800003D1E80701D00120ECE7002030612120BA
:103C9000B060FEF729FE0190274640370598B882AC
:103CA0000598F8820120A1680003814202D12069B1
:103CB000002802D00295002515E00020029012E0B5
:103CC00000228021204601F02FFB002818D1029805
:103CD000002819D02168007888620298401C029060
:103CE000F88A401EF882F88A019B00280698009006
:103CF000E6D100224021204601F016FB00280AD020
:103D00002020B0600320ADE728882168C005C00DE1
:103D10008862AD1CE4E72020B0600020A2E700002C
:103D200070B5054604468035A868202801D00220D9
:103D300070BD00290BD0002A09D00123A0681B0305
:103D4000984206D12069002803D1C80701D001207C
:103D500070BD2046403021658282C28200202861E9
:103D60002121A960E16F002918D0154BCB62E36FC8
:103D700014491963E36F14495963E16F134688636B
:103D80002668216D32462832E06FFEF741FC00289C
:103D900004D0102028612020A860D8E721684020A6
:103DA0000862EFF31080012181F3108821688A688E
:103DB00080231A438A6080F31088002070BD0000C1
:103DC000F74F000843500008ED4E00087047704759
:103DD000FEE7000008B51048816B012211438163A2
:103DE000806B03211040009000220920FEF754FE52
:103DF0000920FEF745FE002203210A20FEF74CFEB3
:103E00000A20FEF73DFE002203210B20FEF744FEB0
:103E10000B20FEF735FE08BD0010024010B5174814
:103E200090B0006800220F9011460FA802F086F9AA
:103E3000134C1249E0601422091D6846FCF7EEF9A4
:103E40000021684602F062F90C4920601422183102
:103E500005A8FCF7E3F9002105A802F057F9074986
:103E6000606014222C310AA8FCF7D8F900210AA8B6
:103E700002F04CF9A06010B010BD00009876000868
:103E800008000020F0B587B014216846FCF79CFCC0
:103E90002448426B20210A434263426B0A40059248
:103EA000416B012421434163416B21400591416BEA
:103EB000022529434163416B29400591426B08214A
:103EC0000A434263406B0F030840059000223946C5
:103ED0001548FEF703FD0520002239460007FEF7CE
:103EE000FDFC002202211148FEF7F8FC032601AA7E
:103EF000009770C269460C48FEF73AFC0520019411
:103F000069460007009703960294FEF731FC01947E
:103F100069460648039600950294FEF729FC07B00F
:103F2000F0BD00000010024000040050000C0050E2
:103F30007047000010B5184816490160E121490298
:103F4000416000218160C16001618161C1610162E4
:103F50000C22416242618162FFF7D8FC002801D047
:103F6000FEF796F900210C48FFF7E5FA002801D08A
:103F7000FEF78EF900210848FFF7B9FA002801D0B2
:103F8000FEF786F90448FFF792FA002801D0FEF701
:103F90007FF910BD00380140B800002010B5184866
:103FA00016490160E1214902416000218160C16040
:103FB00001618161C16101620C22416242618162E1
:103FC000FFF7A4FC002801D0FEF762F900210C489D
:103FD000FFF7B1FA002801D0FEF75AF9002108488E
:103FE000FFF785FA002801D0FEF752F90448FFF7E1
:103FF0005EFA002801D0FEF74BF910BD00440040E6
:104000004C01002010B50D480B490160E121490227
:10401000416000218160C16001618161C161016213
:104020000C22416242618162FFF770FC002801D0DE
:10403000FEF72EF910BD000000480040E00100200E
:10404000FEE7F7B5B2B00F460446C8216846FCF754
:10405000BBFBC825002607E02C212046FCF78EFA82
:10406000002827D0441C761CBE42F5DB2C212046BC
:10407000FCF784FA002801D0001B02E02046FCF780
:1040800087FA0746681E6E46874207D23A4621469F
:104090003046FCF79BFB0020F05508E06A1E2146E5
:1040A0003046FCF793FB002071192039C87734990A
:1040B0006846884735B0F0BDF0B5C8260D460022E9
:1040C000B3B00446114601E0491CC9B2435C002B61
:1040D000FAD1012304E0C75C2A2F03D07A405B1C8D
:1040E0008B42F8DB29A132A8FCF7D0F8002707E0C3
:1040F0002C212046FCF742FA002830D0441C7F1CBB
:10410000AF42F5DB2C212046FCF738FA002801D01D
:10411000001B02E02046FCF73BFA0746701E874270
:1041200008D23A4621466846FCF750FB0020694613
:10413000C85509E0721E21466846FCF747FB6946F0
:10414000002089192039C877124C2B0001F084FB1C
:10415000060704090D12170768460078207133B06E
:10416000F0BD684600786071F9E76846FCF7F0F941
:10417000A071F4E707486A4607A1C01D03E005489F
:104180006A4605A16B30FCF781F8E8E72530325824
:1041900000000000700E002025730000F0B5C82656
:1041A00004460022B3B00F46104601E0401CC0B2E6
:1041B000215C0029FAD1012504E0615D2A2903D0A0
:1041C0004A406D1C8542F8DB72A132A8FCF75EF80C
:1041D0006119022232A8491CFCF7FCF900285DD1C4
:1041E000002507E02C212046FCF7C8F9002855D00F
:1041F000441C6D1CBD42F5DB2C212046FCF7BEF9AA
:10420000002801D0001B02E02046FCF7C1F905465A
:10421000701E854208D22A4621466846FCF7D6FA27
:1042200000206946485509E0721E21466846FCF7A1
:10423000CDFA6846002180192038C177574C3B00E1
:10424000264625468036603501F006FB0F28092AF0
:10425000393D4C5054627328842828952800022345
:10426000002269464D4802F019FC4C48FCF770F9F1
:104270000830287102231A466946484802F00EFCAD
:104280004648FCF765F968710223042269464348F1
:1042900002F004FC4148FCF75BF9A87133B0F0BDB3
:1042A0006846FCF775F90346002269463B4802F070
:1042B000F5FB3A4801F091FBE166A066EEE768463F
:1042C00000782874EAE76846FCF762F903460022A2
:1042D0006946324802F0E2FB304801F07EFBE167BC
:1042E000A067DBE7684600783070D7E7684600785B
:1042F0007070D3E76846FCF74BF903460022694625
:10430000264802F0CBFB2548FCF722F9B070C5E740
:104310006846FCF73DF90346002269461F4802F053
:10432000BDFB1E4801F059FB882210518034E1602A
:10433000B4E76846FCF72CF90346002269461748A3
:1043400002F0ACFB154801F048FB9022105180347C
:104350006161A3E76846FCF71BF903460022694642
:104360000E4802F09BFB0D4801F037FB98221051DC
:104370008034E16192E76846FCF70AF903460022BF
:104380006946064802F08AFB0448FCF7E1F83084ED
:1043900084E700002530325800000000A00C002007
:1043A000F0B5C82604460022B3B00F46104601E01F
:1043B000401CC0B2215C0029FAD1012504E0615DF6
:1043C0002A2903D04A406D1C8542F8DB6CA132A833
:1043D000FBF75CFF6119022232A8491CFCF7FAF8CE
:1043E00000285ED1002507E02C212046FCF7C6F806
:1043F000002856D0441C6D1CBD42F5DB2C21204604
:10440000FCF7BCF8002801D0001B02E02046FCF7B6
:10441000BFF80546701E854208D22A4621466846E6
:10442000FCF7D4F900206946485509E0721E214680
:104430006846FCF7CBF96846002180192038C1771F
:10444000514C3B00204626462546A030803660353C
:1044500001F002FA0E2708292D3C404F535B63827E
:104460008A8E9227022300226946474802F016FBF3
:104470004548FCF76DF80830287102231A46694652
:10448000414802F00BFB4048FCF762F868710223D8
:10449000042269463C4802F001FB3B48FCF758F80F
:1044A000A87133B0F0BD68460078E871F9E7684656
:1044B000FCF76EF8034600226946334802F0EEFA34
:1044C000314801F08AFAE166A066EAE768460078BA
:1044D0002874E6E76846FCF75BF803460022694665
:1044E000294802F0DBFA284801F077FAE167A06773
:1044F000D7E7684600783070D3E7684601F06DFA78
:10450000882210518034E160CBE7684601F065FAFB
:104510009022105180346161C3E702230022694672
:10452000194802F0BBFA1848FCF712F8B0760223DB
:104530001A466946144802F0B1FA1348FCF708F825
:1045400070760223042269460F4802F0A7FA0E484B
:10455000FBF7FEFF3076A4E7684601F03EFAA022A2
:104560001051803461629CE769460978017298E7CE
:1045700069460978417294E769460978817290E743
:104580002530325800000000400B0020F0B5C8264E
:1045900004460022B3B00F46104601E0401CC0B2F2
:1045A000215C0029FAD1012504E0615D2A2903D0AC
:1045B0004A406D1C8542F8DB6CA132A8FBF766FE11
:1045C0006119022232A8491CFCF704F800285ED1C8
:1045D000002507E02C212046FBF7D0FF002856D00D
:1045E000441C6D1CBD42F5DB2C212046FBF7C6FFA9
:1045F000002801D0001B02E02046FBF7C9FF05465A
:10460000701E854208D22A4621466846FCF7DEF82D
:1046100000206946485509E0721E21466846FCF7AD
:10462000D5F86846002180192038C177514C3B00ED
:10463000204626462546A0308036603501F00CF92C
:104640000E2708292D3C404F535B63828A8E9227A8
:10465000022300226946474802F020FA4548FBF74A
:1046600077FF0830287102231A466946414802F054
:1046700015FA4048FBF76CFF687102230422694673
:104680003C4802F00BFA3B48FBF762FFA87133B0DD
:10469000F0BD68460078E871F9E76846FBF778FFF7
:1046A000034600226946334802F0F8F9314801F028
:1046B00094F9E166A066EAE7684600782874E6E7C0
:1046C0006846FBF765FF034600226946294802F069
:1046D000E5F9284801F081F9E167A067D7E7684666
:1046E00000783070D3E7684601F077F988221051DE
:1046F0008034E160CBE7684601F06FF990221051F9
:1047000080346161C3E7022300226946194802F040
:10471000C5F91848FBF71CFFB07602231A46694614
:10472000144802F0BBF91348FBF712FF707602231E
:10473000042269460F4802F0B1F90E48FBF708FF62
:104740003076A4E7684601F048F9A0221051803481
:1047500061629CE769460978017298E769460978C1
:10476000417294E769460978817290E725303258A2
:1047700000000000F00B0020F0B5C826B3B00D46D5
:104780000446002707E02C212046FBF7F7FE00280F
:1047900058D0441C7F1CAF42F5DB2C212046FBF790
:1047A000EDFE002801D0001B02E02046FBF7F0FEE2
:1047B0000746701E874208D23A4621466846FCF7F3
:1047C00005F800216846C15509E0721E2146684679
:1047D000FBF7FCFF6946002089192039C877224C75
:1047E000032D17D8684601F06FFAA17A01280CD082
:1047F000A8400F22C043D243104301400807A172D2
:10480000C9B2000F090909011AE0A8400007000F0A
:104810000143F3E72E1F032E1CD8684601F054FA1B
:10482000A17A012810D00A09B0408243100109077B
:10483000090F0843A072A17A000900010907090FB6
:104840000143A17233B0F0BD0A09B0400243100722
:10485000000EECE7284608380328F3D8684601F034
:1048600033FA6119C870EDE70A0800200078FD23CB
:10487000C007810F024842781A40114341707047C7
:104880001C000020704700000078FB23C007410F88
:10489000024842781A401143417070471C000020C2
:1048A0001C481B490160032141607D21C900C16092
:1048B0008160FEF71FF8002801D0FDF7E9FC174DD5
:1048C00000272C46144EC034C9351248FEF748F86C
:1048D000307801280BD1377002F03CF9207A294654
:1048E000801E82B20E48FFF71BFA02F03FF9707883
:1048F000012809D1777002F02DF9227A294609485A
:10490000FFF70EFA02F032F9012001F0F2FBDCE7CA
:1049100000300040A800002000000020E804002033
:104920004C010020E0010020B8B0704E7048002714
:104930000590B078012830D1B77002F00BF96D48BE
:104940000078012806D002280AD0032810D00428B5
:1049500018D020E069486849C06801F001FC1AE0FD
:104960006748642307C8029201910090042207E07F
:10497000634864230C3007C802920191009005221D
:10498000694605E05A487D230938027A0599DB001B
:104990005C48FFF75DF902F0E9F83079012829D188
:1049A0003771F77002F0D6F8574D0020A872044610
:1049B00021460598FFF7E0FE641C0C2CF8DBEB2089
:1049C0002870A87A7D230107090F69700009A87073
:1049D000E87AE870287B2871687B6871A87BA871E9
:1049E0009020E871DB00082247494648FFF730F97C
:1049F00002F0BCF87079012822D1777102F0AAF890
:104A0000C82106A8FBF7E0FE01210520C903000725
:104A1000FDF75CFF3DA106A8059AFBF737FC06A849
:104A2000FBF7B6FD82B27D23DB0006A93548FFF710
:104A30000FF906A800F0D6FEFEF732F802F096F85D
:104A4000B07901284ED1B77102F084F8304A0021C4
:104A50000598FFF7F6FA2F4A01210598FFF7F1FABA
:104A60002D4A02210598FFF7ECFA2C4A03210598FC
:104A7000FFF7E7FA2A4A04210598FFF7E2FA294AE4
:104A800005210598FFF7DDFA274A06210598FFF76B
:104A9000D8FAC82106A8FBF797FE24494878097878
:104AA000020743078507D20FDB0F4C06C0070492AD
:104AB000C00F03934A07240FED0F0090CB09019517
:104AC0000294520F1AA106A8FBF7E0FB06A8FBF719
:104AD0005FFD82B27D23DB0006A90A48FFF7B8F824
:104AE00002F044F8012001F004FB22E7000000205E
:104AF000420700201A0000201027000008000020B4
:104B0000D8760008B80000200A08002025730000AD
:104B10002121000889230008A92300086D48000806
:104B20006D23000889480008092100081C000020A6
:104B300025642D2D25642D2D25642D2D25642D2DE9
:104B400025642D2D25642D2D25640000FFB01D4DFD
:104B50009BB0E878012830D10020E87002211A4883
:104B6000FDF7B4FE35A8009018A11CAB03AA1848A5
:104B700001F052FF642280A967A80292019100907F
:104B80004EAB35AA1CA903A801F014FB0024214652
:104B90004EA8FFF705FC214667A8FFF7FFFA21465C
:104BA00080A8FFF7F3FC641CE4B20E2CEFD901F0EF
:104BB000D1FF00F06FFF01F0D9FF012001F099FA59
:104BC000C7E7000000000020000C00500D0A0000A4
:104BD000AC09002010B5FBF7F9FA044602F024FBFB
:104BE000002803D001200349000748602046FBF756
:104BF000F1FA10BD00ED00E030B591B03421684607
:104C0000FBF7E2FD002401200D940E940F94400266
:104C10001094FDF753FF092000900120000401903B
:104C2000012006900320089010200A9040030225DE
:104C30000B90079500030C9009946846FEF736F92F
:104C4000002801D072B6FEE707200D900F940221D4
:104C50000E9510940DA8FEF707F8002801D072B643
:104C6000FEE711B030BD704710B50248FEF76EFB8D
:104C700010BD00009C040020F0B502681E4B1F4CC4
:104C8000984201D0A04203D17025AA434D682A431F
:104C90001B4D1C4E1C4F98420AD0A04208D01B4C02
:104CA000A04205D0A84203D0B04201D0B84205D1FD
:104CB0001446032212029443CA6822438024A2436A
:104CC0004C69224302608A68C2620A688262984222
:104CD00005D0A84203D0B04201D0B84201D1096941
:104CE0000163012141610169C90703D001694908D4
:104CF00049000161F0BD0000002C014000040040AB
:104D000000400140004401400048014000200040B4
:104D1000F8B50446416E4034002915D0006881681A
:104D2000806809014D0F0A4E400F3746315C083F3D
:104D3000385CC000FBF780FD6085785D715DC00068
:104D4000FBF77AFD2085F8BD01206085FAE70000B9
:104D50005077000810B5018D090707D501684A682A
:104D60000123DB039A43836B1A434A60018DC90711
:104D700007D001684A6801235B049A43C36A1A4357
:104D80004A60018D890707D501684A6801231B0421
:104D90009A43036B1A434A60018D490707D501689E
:104DA0004A6801239B049A43436B1A434A60018D6E
:104DB000C90607D50268916801231B039943C36B99
:104DC00019439160018D890607D501688A6801231E
:104DD0005B039A43036C1A438A60018D490612D51E
:104DE00003685A6801210905446C8A4322435A60CA
:104DF000426C8A4207D10268516803235B059943DC
:104E0000836C19435160018D090607D501684A6812
:104E10000123DB04C06C9A4302434A6010BD0000CA
:104E2000FEB505460026803504462E61FDF75CFD83
:104E300001902068006820270007002817DA25481D
:104E40000090002239042046019B00F06DFA0028F2
:104E50000DD0EFF31080012181F3108821680A68DA
:104E600080239A430A6080F31088AF6028E02068AE
:104E70000068400727D517480090012100228905C6
:104E80002046019B00F050FA00281CD0EFF3108060
:104E9000012181F3108821680A68FF2321339A4396
:104EA0000A6080F31088EFF31080012181F31088ED
:104EB00021688A68520852008A6080F31088EF6087
:104EC0002E710320FEBDAF60EF60E66626672E718F
:104ED0000020FEBDFFFFFF0110B5806A00220146E1
:104EE0004031CA83CA82FEF798FB10BDF8B5846AC8
:104EF0002046803081680546C668206880680027A3
:104F00000006002806DA212904D15620075320463E
:104F100000F0CEF820688068400606D5222E04D125
:104F20005E200753204600F091F8286910210843BD
:104F300028612046FEF771FBF8BD70B5014609688F
:104F4000806A096800228906002938DB5E210A523E
:104F5000EFF31081012383F3108803681C68FF2599
:104F60000135AC431C6081F31088EFF310810123FD
:104F700083F3108803689C68640864009C6081F374
:104F80001088EFF31081012383F3108803689C6875
:104F90004025AC439C6081F3108820238C210B506A
:104FA000C16E01290BD1EFF31081012383F3108827
:104FB00003681C681025AC431C6081F310880267ED
:104FC000C16E012902D0FEF741FE70BD5C21095A75
:104FD000FEF78BFA70BD10B5806A01210167C16EC2
:104FE000012902D0FEF733FE10BD5C21095A4908A1
:104FF000FEF77BFA10BD10B501460968806A0968A2
:1050000089061BD4002256210A52EFF31081012297
:1050100082F31088026893688024A343936081F32D
:105020001088EFF31081012282F310880068026873
:1050300040231A43026081F3108810BDFEF7C6FEBC
:1050400010BD10B5806AFEF7C2FE10BD10B5EFF3BB
:105050001081012282F3108802681368FF24213432
:10506000A343136081F31088EFF31081012282F3D0
:105070001088026893680D4C2340936081F3108878
:10508000C16E01290BD1EFF31081012282F3108848
:10509000026813681024A343136081F31088202250
:1050A0008C210A500021C166416710BDFEFFFFEF51
:1050B00010B5EFF31081012282F3108802681368A3
:1050C000C024A343136081F31088EFF31081012201
:1050D00082F31088026893680124E405A343936077
:1050E00081F3108820218030816010BDF8B504461E
:1050F00080682169E26908436169002511432268DB
:1051000008431168534B19400143116021684868F6
:10511000032212039043E26810434860A169206AA9
:105120002268084391684C4B194001439160206804
:10513000C16A626A090909011143C162474A2068CC
:10514000474990420AD148698007800F20D0012842
:1051500014D0022810D003281CD111E0414A9042FB
:1051600010D148690C21084012D0042806D0082824
:1051700002D00C280ED103E002210CE004210AE049
:10518000082108E03849884202D03849884201D1D4
:10519000002100E010210122E369D2033448354E9A
:1051A000354F934227D1002906D002290BD004297C
:1051B00005D008293DD11CE0FDF71EFE01E0FDF7FA
:1051C0002FFE00283CD0616A4900715AFBF734FB7E
:1051D000616840004A088018FBF72EFB0146103931
:1051E000B94226D82449491C01400007400F084312
:1051F00024E01046E7E7002906D002290BD0042955
:1052000005D0082915D116E0FDF7F6FD01E0FDF700
:1052100007FE002814D0616A4900715AFBF70CFBA5
:1052200061684A088018FBF707FB01461039B9424C
:1052300003D9012504E01046EDE780B22168C8607B
:105240002046012140304185018500206067A0672C
:105250002846F8BDF369FFCFFFF4FF110038014085
:10526000401002400044004000480040004C004014
:105270000024F40030770008EFFF000070B504460A
:1052800081654030828300202546803528612221B7
:10529000E9602968002919D0204BCB622B6820498E
:1052A00019632B681F495963296813468863A66DE3
:1052B0002168324624312868FDF7AAF9002805D074
:1052C000102028612020E860012070BD206900289E
:1052D0000CD0EFF31080012181F3108821680A6857
:1052E000FF2301331A430A6080F31088EFF3108024
:1052F000012181F31088226893680B43936080F347
:105300001088EFF3108081F3108821688A684023A9
:105310001A438A6080F31088002070BD3B4F00085C
:10532000D74F0008ED4E0008FFB581B005460E4688
:10533000044680350A9F32E0781C30D0FDF7D4FA5D
:105340000499401AB84218D8002F16D02068016876
:10535000490724D5802E22D0402E20D0C169C943D0
:1053600009070CD4082606622046FFF76FFE2E615F
:1053700000202871012005B0F0BD0320FBE7C069C3
:10538000C04300050BD401202168C00208622046FA
:10539000FFF75CFE2020286100202871EDE72068DF
:1053A000C1693046884305D0002103988142C3D0AB
:1053B0000020E0E70121F8E7F0B53D4CB3B02068EC
:1053C000C069C043C00636D4FAF700FF00902168D8
:1053D000102008622046FEF7D3F83648006840687F
:1053E000C821081A344CC2B22146C0390846C93017
:1053F00022720646FBF73EF9257AE01D295C012260
:105400002E4B401C342909D1295C472906D1011FA4
:105410006F5C2B49232F10D03F2F10D0617A2429A5
:1054200012D05A702449C822C0392148FEF7E2FB45
:105430000098FAF7CFFE33B0F0BD0A7002E04A7070
:10544000022008701A70EDE7A17A7D27FF0043293A
:105450000BD1E17A4F2908D1217B522905D1617BFB
:10546000532902D1285C0A2806D03B462A463146F9
:105470001448FEF7EDFBD5E7C82101A8FBF7A4F916
:1054800001210520C9030007FDF720FA32460EA1CD
:1054900001A8FAF7FBFE01A8FBF77AF882B23B46B7
:1054A00001A90848FEF7D4FB01A800F09BF9B9E771
:1054B000B800002074020020A80500200000002091
:1054C000180000204C0100202573000010B503488F
:1054D000FEF7A4F8FFF770FF10BD0000B800002031
:1054E000FEB5524C2068C069C043C00676D4FAF7B6
:1054F0006DFE01902168102008622046FEF740F8FA
:105500004B4800684068C821081A4A4CC5B220467A
:10551000257209300090FBF755F921462A46C0391B
:105520000098FBF7A7F82046C821C038FBF74AF9D6
:10553000627A01254048414E4F2A02D1A17A4B2977
:1055400008D0217A3B4B0F5D9B1C312F04D0302FAC
:105550000FD011E005700AE0CB5C302B0CD138493C
:105560000978012901D002210EE004210CE0B57078
:105570004CE0CB5C302B06D02B2AF6D0242A05D069
:105580007B2A1BD042E003210170F0E7E17B532925
:1055900004D04F2907D045290AD037E0217C54296F
:1055A00034D1457032E0217C4B292FD1022103E018
:1055B000217C52292AD10321417027E0A07A222898
:1055C00024D11C480830085C7D281FD1E07A6E2861
:1055D00005D06C2808D0722811D017E025E0207B78
:1055E000312813D1357111E0207B74280ED1607BF6
:1055F00065280BD1009800F063FD757106E0207BF3
:10560000742803D1607B6B2800D1B571012105207E
:10561000C9030007FDF75AF90649C822C0390348F3
:10562000FEF7E8FA0198FAF7D5FDFEBD4C0100201F
:105630002C030020390700201A0000200000002061
:105640001900002010B50348FDF7E8FFFFF748FFF9
:1056500010BD00004C01002010B50348FDF7DEFF2F
:1056600000F004F810BD0000E0010020F8B52B4C5C
:105670002068C069C043C0064FD4FAF7A7FD009068
:105680002168102008622046FDF77AFF2448006850
:105690004068FF249134201A224D82B228462A8283
:1056A00021491230FAF7E6FF2B8A002101221F4E12
:1056B0001D4F0A3B27E07818FF308130857C522D42
:1056C00004D0472D0DD0522D12D01AE0C57C4D2D9F
:1056D00017D1057D432D14D1457D2C2D0ED1F270AF
:1056E00013E0C57C472D0CD1007D4128F7D008E0A0
:1056F000C57C4D2D05D1057D432D02D1407D482827
:10570000EDD0491CC9B28B42D5DC2246064903487C
:10571000FEF770FA0098FAF75DFDF8BDE001002091
:10572000E40300209A0900201A080020000000204D
:10573000FEB500240094019464211B480294FBF7F9
:1057400041F81A4F00250020009001900446EE0019
:1057500002903019C01903780A2B0BD01448017835
:10576000491CC9B2017064290CD911490020087084
:1057700010A0FEBD0C4A6B4616A11046FAF786FD36
:105780000948FEBD6A4615A11046FAF77FFD641C64
:10579000E4B2082CDDD3044A6B460EA11046FAF79A
:1057A00075FD0835EDB2CEE7AC0D002000F801081C
:1057B0001E00002024434F52532C312C342C392C02
:1057C0006365647231373632322C686D30646376CB
:1057D0006E740A002573257300000000257325638D
:1057E00000000000FEB50446FAF7D2FE06463F2050
:1057F00000F078FA00256F4611E0002004E03954EB
:10580000401C641C082802DA21780029F7D10548D9
:10581000E9000818019B009A00F080FA0835B542AB
:10582000EBDBFEBD00F80108F8B5040C8BB2264690
:1058300082B25E43104658430D0C370C36040021EB
:105840008019164679416E43370C36048019264676
:1058500079416E438919F8BD30B47446641E2578C9
:10586000641CAB4200D21D46635D5B00E31830BC94
:10587000184700008307FF22DB0E9A408907090EB4
:105880009940002808DB830809489B001B1818680A
:1058900090430843186070470007000F08388308DA
:1058A00004489B001B18D86990430843D86170478F
:1058B00000E400E000ED00E010B50721024A0020FE
:1058C0000907FCF79FFB10BD01030000034A10B558
:1058D00000201107FCF796FB10BD000001FDFFFF43
:1058E00010B504460868496800F002F8206010BD51
:1058F000F8B504460D466A4600F022FA00987E305C
:10590000009000281CDC002213462046294601F0A6
:1059100045FE15D0264E002130460020C0460746E1
:1059200020462946FCF7D6FA044637403946304629
:105930000020C04660002FD10220FBF736F82BE094
:105940000098FF282EDB002108460020C0460321D6
:10595000890508400646002213462046294601F0E4
:105960004FFE01D8012500E000250220FBF71DF8BD
:10597000FF24E405002E09D0002D02D0012080056F
:1059800001E00120C005B04200D00A4C04210846C5
:105990000020C046002D01D02046F8BD0120C007E0
:1059A0006040F8BD20462946FCF794FAF8BD000097
:1059B00008080000FFFF7F7F10B504460A46006814
:1059C000616800F0EFF96160206010BD30380A288E
:1059D00001D2012070470020704730B583B00446E3
:1059E000FAF7DEFF054600200090024601902146AE
:1059F0006846FBF78BF82846FAF7D7FF019900981D
:105A000003B030BDF8B500260D4607463446FAF718
:105A1000BFFD02461E4828E0B95D8908415C295552
:105A2000B95D641C89078B0E711C914223DAB91988
:105A30008C46497809090B43C35C2B55614649786C
:105A4000B31C0907890E641C93421ADA63469B78DB
:105A50009B090B43C35C2B5561468978641C8906FE
:105A6000890E415C2955641CF61C9642D4DB00204B
:105A700028552046F8BDC05C28553D20641C28559B
:105A800002E0405C28553D20641C2855641CEEE76C
:105A9000EE7600081CB58A48AB21017089498C2339
:105AA0000A7942704A7982708A79C270C979854AC6
:105AB0000171603A882189589B5800910193694689
:105AC0000978417169464978817169468978C1715F
:105AD0006946C9780172694609794172694649790E
