:020000040800F2
:1000000018530020610200086D4D0008FD4A0008E9
:1000100000000000000000000000000000000000E0
:10002000000000000000000000000000B1550008C2
:100030000000000000000000E7010008115900085E
:100040007302000800000000730200087302000839
:1000500073020008730200087302000873020008AC
:1000600000000000F52E0008052F0008D12E000822
:100070007302000873020008730200080000000009
:1000800073020008A55900087302000873020008F3
:10009000730200087302000873020008730200086C
:1000A0007302000873020008730200080962000866
:1000B000816300089563000800F002F800F068F81A
:1000C0000CA030C8083824182D18A246671EAB466D
:1000D00054465D46AC4201D100F05AF87E460F3ED0
:1000E0000FCCB6460126334200D0FB1AA246AB46DF
:1000F00033431847CC850000EC850000103A02D34A
:1001000078C878C1FAD8520701D330C830C101D5B8
:1001100004680C60704700000023002400250026BE
:10012000103A01D378C1FBD8520700D330C100D5B3
:100130000B60704710B5662902D108F049F910BD6F
:10014000642902D100F00CF910BD782902D100F029
:100150003DF910BD632902D101F010F910BD7329DA
:1001600002D101F013F910BD002010BD1FB501F040
:10017000E3F904000020002108F0AEF8401C6060A4
:100180000020002108F092F8E0601FBD10B510BDFE
:1001900001F023FE1146FFF7E9FF06F0EFFC02F045
:1001A000DBF803B4FFF7F2FF03BC02F039F90000FB
:1001B000084B19680868203080F30988022080F312
:1001C0001488BFF36F8F3FBCAE4608BC04BC62B658
:1001D0001847000030000020EFF3108072B670471F
:1001E00080F310887047EFF309800E4B1A682038AF
:1001F0001060F0C044464D4656465F46F0C008B514
:1002000072B607F06FFC62B60CBC1168086810305B
:10021000F0C8A046A946B246BB4680F309882038FC
:10022000F0C818473000002070B505460C46164649
:1002300002E00FCC0FC5103E102EFAD2082E02D3CA
:1002400003CC03C5083E042E07D301CC01C5361FDD
:1002500003E021782970641C6D1C761EF9D270BDF4
:100260000748804707480047FEE7FEE7FEE7FEE74E
:10027000FEE7FEE704480549054A064B70470000C3
:10028000A3590008B90000081843002018530020A3
:10029000184B0020184B00200FB41CB5074B06AAC2
:1002A0007B4469460090059801F045F800206946B6
:1002B00001F054F81CBC08BC04B01847B910000089
:1002C00070B5044685690068C10601D5302600E096
:1002D0002026C00707D070BD62683046A1689047ED
:1002E000206A401C20626D1EF6D570BD70B50446B4
:1002F00085690078C00707D170BD6268A1682020B9
:100300009047206A401C20626D1EF6D570BD70B506
:100310000C460546012A05D02878800600D5EA69F2
:10032000002302E0012305E05B1C934202D2E05C63
:100330000028F9D1A869E618C01AA861286AC0186F
:1003400028622846FFF7BCFF04E06A682078A968A5
:10035000641C9047B442F8D32846FFF7C7FF70BD2E
:10036000F7B5002575291068009914A611D0C0466C
:10037000C046002802DA404211A608E00099096848
:100380008A0701D50FA602E0490704D50EA601256C
:1003900001E0C046C046009F0024243704E001F07D
:1003A000ABF830313955641C0028F8D12B46324661
:1003B0002146009800F055FDFEBD00000000000041
:1003C0002D0000002B0000002000000070B5044646
:1003D0000D4621461068C046C0462188090502D551
:1003E0000F4A7A4402E00E4A7A440E322346002134
:1003F000243305E006070009360F965D5E54491C5C
:100400000028F7D120780023000705D5702D03D0F0
:10041000002901D002231132204600F022FD70BDD8
:1004200062810000F3B50446002081B020622046BE
:10043000E168884700287DD0252802D06268A1683D
:1004400083E0454F00257F442046E1688847202807
:10045000064608DB312E06D2B8192038007800286D
:1004600001D00543F0E7A80701D50420854300200B
:10047000E0610746A0612A2E0AD0304606F05AF9FC
:10048000002827D0B8000019303E0090866119E09E
:100490000298BA00121902C8916102902046E168E0
:1004A0008847012F064617D1E06900281FDA20206F
:1004B00085431CE000980A2180694843009980190F
:1004C000303888612046E1688847064606F032F9F0
:1004D0000028EFD1012F0AD02E2E08D12046E16846
:1004E00088470646202005437F1C022FC3DBA069F6
:1004F000002803DA4042A06101200543E80701D04B
:1005000010208543002E24D030464138192803D8C6
:100510000120C00205432036204625603146029A5C
:100520001546FFF707FE00280CD0012807D0ED1D67
:10053000E80800E00DE0C0000830029077E72D1DCC
:10054000029574E762683046A1689047206A401CB3
:100550006CE7206AFEBD00002681000070B50646EB
:1005600000F070FC0468054630460A22002100F0C5
:1005700067FF2C6070BD000010B5024A00F098FFC4
:1005800010BD0000A4000020401ECAB24178401CEB
:100590008A4202D00029F9D10020704730B5441CAE
:1005A00003E00178401C00290DD08107F9D10B4BE5
:1005B000DD0104C8D11A91432940FAD0001B0A0674
:1005C00003D0C01E30BD001B30BD0A0401D0801E08
:1005D00030BD0902FCD0401E30BD00000101010108
:1005E0000346F0B50B439B072DD1244DEF01042AA0
:1005F00029D308C810C95E1B9E43121F3E4017D066
:10060000D8B2E1B2401A3106014310D198B2A1B27A
:10061000401A310401430AD118022102000A090AD2
:10062000401A3102014302D1180E210E401AF0BDCA
:10063000A342DCD018BA21BA884201D90120F0BD0A
:100640000020C043F0BD002A01D10020F0BD037896
:100650000C78401C491C002B0DD0A3420BD1521E1C
:1006600009D003780C78401C491C002B03D0A3420E
:1006700001D1521EEBD1181BF0BD00000101010198
:10068000F8B5042A2CD3830712D00B78491C0370C9
:10069000401C521E83070BD00B78491C0370401C72
:1006A000521E830704D00B78491C0370401C521E55
:1006B0008B079B0F05D0C91ADF002023DE1B08C95A
:1006C0000AE0FFF7B1FDF8BD1D4608C9FD401C4614
:1006D000B4402C4310C0121F042AF5D2F308C91AE3
:1006E000521EF0D40B78491C0370401C521EEAD4F1
:1006F0000B78491C0370401C012AE4D4097801706E
:10070000F8BD431A70B593421BD28918801804E0D3
:10071000491E401E0B78521E03709307F8D106E065
:100720001039103878C9103978C01038103A102AAA
:10073000F6D203E0091F001F0B680360121FF9D5F2
:1007400070BDFFF771FD70BDF8B50646144608434D
:10075000800707D0751AA54219D20819102D13D297
:10076000311907E03046FFF7CCFFF8BD401E491EA7
:1007700002780A70641EF9D2F8BD471B2A46394632
:10078000FFF77EFF641B3846A542F6D3011B2246C5
:100790003046FFF775FFF8BD01E004C0091F0429CA
:1007A000FBD28B0701D50280801CC90700D00270E4
:1007B000704700290BD0C30702D00270401C491EAD
:1007C000022904D3830702D50280801C891EE3E737
:1007D0000022EEE70022DFE7F8B507460B46394670
:1007E0001943890713D1164CE601042A0FD302CB13
:1007F0000D1B8D43354202D102C0121FF5E7CBB26B
:100800000370401C521E002B13D0090AF7E7002A80
:1008100014D01978521E5B1C0170401C002908D0AE
:10082000002A0BD01978521E5B1C0170401C002955
:10083000EDD1002A02D01146FFF7CAFF3846F8BDB5
:1008400001010101002203098B422CD3030A8B42D0
:1008500011D300239C464EE003460B433CD40022B8
:1008600043088B4231D303098B421CD3030A8B42CA
:1008700001D394463FE0C3098B4201D3CB01C01A98
:10088000524183098B4201D38B01C01A5241430963
:100890008B4201D34B01C01A524103098B4201D351
:1008A0000B01C01A5241C3088B4201D3CB00C01ABE
:1008B000524183088B4201D38B00C01A5241430836
:1008C0008B4201D34B00C01A5241411A00D201465B
:1008D0005241104670475DE0CA0F00D049420310F4
:1008E00000D34042534000229C4603098B422DD343
:1008F000030A8B4212D3FC22890112BA030A8B42EB
:100900000CD3890192118B4208D3890192118B4239
:1009100004D389013AD0921100E08909C3098B42BE
:1009200001D3CB01C01A524183098B4201D38B0101
:10093000C01A524143098B4201D34B01C01A5241A4
:1009400003098B4201D30B01C01A5241C3088B42E9
:1009500001D3CB00C01A524183088B4201D38B00D4
:10096000C01A5241D9D243088B4201D34B00C01A5E
:100970005241411A00D20146634652415B10104673
:1009800001D34042002B00D54942704763465B10BB
:1009900000D3404201B50020C046C04602BD7047AA
:1009A00070477047F0B5F94D0C091E092C402E40D8
:1009B0002F468BB0A7437DD0B543FCD0002E7AD014
:1009C000002CFCD00D465D40ED0F2543AC1BFF25F0
:1009D000AD0464190894C502440DC9022143500DA9
:1009E000DC0204430120C00701430443D202019109
:1009F000200C110C00958C46010423468B430A9170
:100A000061460904E24D8A430991010A7D4449196E
:100A10008039097805464D4301266D18F605751B8A
:100A20006943C90C640B891C4C436418B5012C1B29
:100A3000250C2E04B4434C434D43210C69188909FD
:100A40000591009DE90701D00121C90704912C46B9
:100A500001996708CD072F434C08059DE10B4D43D5
:100A60002D0C29466646754302950D4645432E4694
:100A7000029D7D1BB44100950D465D4301942C0CF5
:100A80002F040D465543AE462D0C3D43029503946D
:100A90007546049C2D04641B049406D2029C039D9D
:100AA000641C002675410395029401AC70CC009F34
:100AB0007D1B01E03EE162E1B4410904009507912C
:100AC00001940599A4086143090C0C464443650B45
:100AD000E7040C4666467443A646640B3C43039504
:100AE00002947446049DE4042C1B049406D2029CD8
:100AF000039D641C002675410395029401AC70CCE3
:100B0000009F7D1BB44101940C465C430095650F2A
:100B1000E7000C465443A646640F3C4303950294F9
:100B20007446049DE4002C1B049406D2029C039D91
:100B3000641C002675410395029401AC70CC009FA3
:100B40007D1BB441AE09AF06049DC900AD092F431A
:100B5000049DA406AD060495079D344369180791CA
:100B6000059DE10B4D432D0C2946664675430295C4
:100B70000D4645432E46029D7D1BB44100950D4612
:100B80005D4301942C0C2F040D465543AE462D0CAD
:100B90003D43029503947546049C2D04641B049404
:100BA00006D2029C039D641C0026754103950294A5
:100BB00001AC70CC009F7D1BB44101948C05069460
:100BC000079C890A611800950791019C0599A40862
:100BD0006143090C0D464543680BEF040D4664461E
:100BE00065436C0B3C43049FED047D1BAC4602D275
:100BF0000025641C6841009E019D371B8541084605
:100C0000584301950C46460FC5005443600F2843D6
:100C10006546E4002C1B02D20025401C6E41019D5C
:100C20003F1AB5412846BD09800628438446A009DD
:100C3000BF064E020699A40676180743079D0020BA
:100C400068410A99079019430020099B009060466B
:100C5000FF1913434041E20F64003A43A44604469F
:100C6000D71A8C41A04203D90120009020463A4671
:100C7000C70F941840416246D20F22436446640075
:100C80000494009CBE466400D71AA446044602970A
:100C90008C417746002F01D1A04204D96046401C08
:100CA0008446029A2046C40FA64694184041049AEE
:100CB0000546D20F224364466400D31A8D41714623
:100CC000002901D1A84202D928461A46641C1043C3
:100CD0000122002800D0164361020020079B8919D9
:100CE00004465C410223002C02DB49181346644190
:100CF000089DCE0A2D145D194B056705E10A2C05E8
:100D00000D1908993E43C9076940002B08D093404C
:100D100006D30022761C5141002B01D176087600C3
:100D20001C4A002D43DB154241D0AA433FD0304638
:100D30000BB0F0BD06180D464D41174C7642AC4144
:100D40001AD395181C465C41134A6D42A24113D335
:100D5000012252054C00D4420AD15C00D4420BD08F
:100D60004B4002D592021143E2E749004908DFE710
:100D70005940C90FC90718E000200849D8E70548BD
:100D800001420DD10342F7D0F2E700000000FF0757
:100D9000717B00000000F07F0000E0FF0000F87FA2
:100DA000114859400143C01241400020C0E70123CF
:100DB000089A9B069A4205DC032252078918C90F3C
:100DC000C907B5E7052252078918074A1143D2120D
:100DD0005140ADE770B515461C4602460B46284605
:100DE0002146FFF7DFFD70BDFFFFFF7F1F22030CD1
:100DF00002D10F22000402D0030E03D004E0002031
:100E0000014670470002083A030F01D10001121F8A
:100E1000830F01D18000921E002801DB4000521E8A
:100E2000120551184205C012411810467047C10FF3
:100E3000C90700D04042012292071143D6E70121A1
:100E40008907D3E700487047B442002010B5FFF788
:100E5000F9FF006810BD10B50446FFF7F3FF04600A
:100E600010BDFFB504460D4681B0243000902168C6
:100E7000880604D51022E0699143216000E001203A
:100E8000A84201DD471B00E000270498A1697A19F8
:100E90001018081AA0612078C00602D42046FFF777
:100EA0000FFA002608E003986268A168805D904709
:100EB000206A401C761C206204988642F3DB20786E
:100EC000C0060AD52046FFF7FBF906E06268A16874
:100ED00030209047206A401C206238467F1E002840
:100EE000F4DC07E000986268A168405D9047206AE2
:100EF000401C206228466D1E0028F3DC2046FFF7C8
:100F0000F5F92078000602D5022005B0F0BD0120D9
:100F1000FBE700007047FFB50C461E468FB003CAC2
:100F2000089009914F007D0D00D16D1E00210846EB
:100F30000020C0460321099A89050840002A03DAE7
:100F40008200801840080840800D01280A9002DDC8
:100F50000020C0430A90089807430DD0F048F1499B
:100F6000281848430714189800281DD07542291ED8
:100F70001DDD0A9842421BE01898012802D000208B
:100F8000302104E00020F24305E02154401CB0422F
:100F9000FBDB30460022189B002121540F998B6007
:100FA0000A60486013B0F0BDBD1B6D1CDFE70A9AF4
:100FB000002900DA69420BA800F0C2FB0BAB07CB9B
:100FC00003AB07C30899099800F026FC6B4607C3DA
:100FD0000146D5480918002D00910BDDD249039830
:100FE0000A9A49424018002303A90390684600F07A
:100FF00083FE08E003990A9A0023081803A90390C6
:10100000684600F023FE6B4607C30004000C03D0C3
:101010000020C043410800E01046189A002A03D07F
:101020000022009215461EE0751E05D400F088FAD5
:10103000303262556D1EF9D501220843079602D061
:1010400000227F1C04E02078302801D100227F1E7E
:10105000002A069787D01EE0112D07DA00F070FAFB
:10106000303262556D1C02460A43F5D1084303D065
:101070000098002819D00EE00021681E05E0235CCE
:10108000625C63542254401E491C8142F7DBA81B5A
:10109000401E07950690079A18990020A0540F98B3
:1010A000079B069A81600CC07CE7112600201890EF
:1010B00059E7D21DF0B50D460446D10893B0C900DA
:1010C00003C90C900D9105F073FA02460D98C00FFC
:1010D00001D02D2007E02068810701D52B2002E0F8
:1010E0004007C00F4001032A0F9001D0072A05DBFB
:1010F00003462946204600F069FA0EE12078800672
:1011000001D5E76900E006272846652D04D066284A
:1011100014D0672D69D12DE00020112F009001DB44
:10112000112300E07B1C0CAA03A910A8FFF7F3FE13
:101130001199002610987D1C0E9142E001203B463B
:101140000CAAC0070B900120009003A910A8FFF77C
:10115000E2FE119D12981099002600280E9501D1EB
:10116000781C0D18781B02D446427D1C761EE81BA5
:1011700000903AE0012F00DA01270020112F0090A3
:1011800001DD112300E03B460CAA03A910A8FFF7DC
:10119000C2FE11993D46109800260E91217809074C
:1011A0000BD40E99A94200DA0D4603A9012D04DDE6
:1011B0004A19203AD27F302A06D0B84201DA011DFE
:1011C00004DA012100910FE06D1EEFE7002802DC38
:1011D00086192D1A03E0411CA94200DD0D46801B33
:1011E000401C00900120C0070B902078000705D418
:1011F0000098A84202DB0020C0430090694600200E
:10120000C8720B98012102AF0337C907884225D065
:10121000022010902B2011900B9800280BDA4042EE
:101220000B902D20119006E00B9800F065F93031FD
:101230007F1E0B9039701099481E00291090F3DC26
:101240000B980028F0D111987F1E38702088000577
:1012500001D5452000E065207F1E387001A8C01B25
:10126000C01D0B900F98002800D001204119009854
:10127000C01709180B980818A169081A401EA06128
:101280002078C00602D42046FFF71AF80F980028ED
:1012900005D06268A1689047206A401C20622078CF
:1012A000C00625D52046FFF70BF821E0002E07DB0E
:1012B0000E98B04204DD03A86268805DA16802E078
:1012C0006268A16830209047206A761C401C20622A
:1012D0000098401E002800900AD100F02DF9C06847
:1012E00062680168405CA1689047206A401C2062E7
:1012F00028466D1E0028D9DC07E062683878A168AE
:101300007F1C9047206A401C20620B99481E0029D0
:101310000B90F2DC2046FEF7E9FF032042E60000D6
:1013200001FCFFFF104D0000E1DFFFFF01694A1CD7
:1013300002610878704700B58FB0029100210591D5
:101340000549019379440391114604906846FFF7DB
:1013500069F80FB000BD0000E5FFFFFF0A681070DC
:10136000521C0A60704710B54369002B02D0C0467A
:10137000C04601E0FEF7CBFF012010BD1278014608
:1013800024310A7000224A700122ECE71168002221
:10139000D243E8E70FB4002300B589B00CA900914F
:1013A0000B99CB60224B7B44224A7A440792042259
:1013B00006930192204A0292204A7A446B46089290
:1013C0000246002007F00CF809B008BC04B018472A
:1013D00070B5064615460C46324686B00020C0431E
:1013E00001900020049004A8009102916946FFF743
:1013F000D1FF024604982118002D05D0002801D005
:10140000084600E020462860049800280DD0002AF5
:1014100002DD0098884208D03246081B69460190D8
:1014200004A800940294FFF7B5FF06B070BD000059
:10143000AB020000C7020000FFFFFF7FFD010000BC
:10144000F7B50F460026009C2578641C002D05D0BA
:1014500000F06AF80068405DC007F5D12B2D02D07E
:101460002D2D18D0641E3946029A204600F014F93A
:10147000002F04D03968A14201D10099396071056B
:10148000022400290BDA4042002803DDFFF7DAFCD2
:101490000460A007FEBD012080020643E3E70028A8
:1014A000F8DAFFF7CFFC04600048FEBDFFFFFF7FC6
:1014B000F8B515460E46040003D12C68002C00D167
:1014C0000CA4204600F079FC0419207800280ED0E6
:1014D00027463146384600F05FFC04192078002882
:1014E00002D000202070641C38462C60F8BD002714
:1014F000FAE700000000000001468008081A02090F
:101500001018020A1018020C1018C00882001218D5
:101510005200891A01E0401C0A390A29FBD270479F
:1015200000487047B442002010B500F005F8001DD7
:1015300010BD00BFA56D000000487047D4420020D8
:101540000B4670B5024689078008084319469D0876
:10155000141AA94125090807054308092C1948410F
:10156000250A01060D43010A2C194141200C0D04E6
:1015700028430D0C00194D41002140194D41C00870
:1015800069070843E908840F8D0025438400241867
:101590004D4124196D41121BAB4107E00925ED4374
:1015A0002C11521963410024401C61411C460A253C
:1015B0000026551BB441F1D270BD10B50446FFF7AB
:1015C000B3FF0068005DC007C00F10BDF8B51F462F
:1015D000044601230068DB02032601461840072A5F
:1015E00005DB002801D017A506E017A504E00028B8
:1015F00001D016A500E016A5102081432160A06946
:10160000C01E002FA06101D0401EA0612046FEF741
:1016100057FE002F09D038466268A1689047206ABB
:10162000401C2062C01C206206E0206AFAE7626863
:101630002878A1686D1C9047761EF8D22046FEF7E8
:1016400055FEF8BD4E414E006E616E00494E46009B
:10165000696E66004268002A08D001680B78491C50
:10166000002B03D0521E06C0184670470121C160EE
:10167000881E70474268002A0BD0C3680168002B9F
:1016800007D183688B4204D0491E521C06C000203B
:1016900070470020C0437047F7B5154682B0002759
:1016A000029C2078641C0197302802D0002D15D0B0
:1016B00015E020780127641C782804D0582802D02F
:1016C000002D09D00BE0002D01D0102D07D120787E
:1016D00000271025641C02E0082500E00A250026EA
:1016E000009610E0009901276943081829467143C4
:1016F000020C80B200908E183804864201D301207B
:1017000001902078641C294600F086FB0028E9DA65
:101710000398002805D0002F01D0641E00E0029C31
:1017200004600198002806D0FFF78CFB02210160BD
:10173000C81E05B0F0BD009930040843F9E7000069
:10174000F7B516468AB0334878446C4603467C3376
:10175000C06F5A689B680DC42E487844763003AC3D
:101760000DC80DC43720C001081837211B30FFF702
:1017700073F805460C46803D1B3C02D564420120AF
:1017800000E000200027099010E0E0070CD00C20BA
:1017900020497843794432464C3941186846012340
:1017A00000F054FA6B4607C364107F1C002CECD188
:1017B000184F7F442E3F16E0E80712D02001C019D1
:1017C0000EC80691089307920068F04201D198195B
:1017D00008903246012306A903A800F037FA03ABAC
:1017E00007C36D10641C002DE6D10998002806D0AF
:1017F00032466946012303A800F07EFA05E0012382
:101800003246694603A800F021FA0A9B07C30DB0CF
:10181000F0BD0000B86E0000034640000A4610B557
:10182000400D0BD00121C9070F24A40200191C038D
:1018300064082143540D2143D20207E00021012016
:10184000F2E7D40F490021435200401E0029F8DA84
:10185000DB0FDB07184310BDFFB50D46144685B0FE
:101860004868516804F07EFE00910190A868A16864
:1018700004F078FE02910390A868616804F072FE9B
:10188000029A12188242029201D2012000E0002046
:10189000019A0B18D2180028019202D08A4202D96C
:1018A00003E08A4201D2012000E0002000990818DC
:1018B00000906868A16804F055FE029A12188242EE
:1018C000029201D2012000E00020019A0B18D218E8
:1018D0000028019202D08A4202D903E08A4201D252
:1018E000012000E000200099081800902868216875
:1018F00040004900400849084018FA49471814E0D8
:1019000001994000C90F08430090019802994000D6
:10191000C90F08430190029803994000C90F08437A
:101920000290039840007F1E039000980028E7DA99
:101930000898002801D0EC4E00E00026B74201DAFA
:10194000012000E00020002804902AD0F71BF806B0
:10195000C00E15D0029B2021091A039A8B401A430E
:101960000392029A019BC2408B401A430292019A51
:10197000009BC2408B4000991A430192C1400091E4
:101980007B110DD06F460320C11A03D500218200C0
:10199000B95003E08A008100BA587A50401EF3D54E
:1019A000374603980299002800D001200143089887
:1019B0000291002808460CD0002800D0012001998F
:1019C000019A490508430121D20AC902D2020192B3
:1019D00000E001210E9B0122D207012B02D0002B37
:1019E00003D013E0002807D120E0904204D89042B1
:1019F0000CD1019B0B4209D0019B5918019105D1D3
:101A00000099491C009101D17F1C009200280DD043
:101A1000102108460020C0460498002806D00F98E0
:101A2000002803D0082108460020C0462868216805
:101A3000019B009A4840C10F0598C90739430EC061
:101A400009B0F0BDFFB587B0099A089808995368A6
:101A50009268406889689646002203931746944628
:101A6000089A12685300099A5B08126852005208DB
:101A70009A1A9E4BD4180A9A002A01D0352200E007
:101A8000402206920022012315460492DB070593AB
:101A900024E0002D05D175460346039E4D1BB3413E
:101AA00009D375466646039B491B049D9841059BD7
:101AB0007519AC465F4163463B4308D0059B049EC5
:101AC000DD0776082E435B080496059301E0521E5D
:101AD000641EC50FED0749184041521C069B9A42EF
:101AE000D7DB002D04D17546039A6B1A824101D2CF
:101AF00003200CE0039A0B466B404240134303D093
:101B0000014303D0012002E0022000E000206146F2
:101B100001910021009702910A99002905D06146A0
:101B200040020143704B019102E0800700230290C4
:101B30009C4201DA012000E0002007003AD01A1B85
:101B4000D006C00E15D0029D2021019C091AC54067
:101B50008C402543029C8C4000D001242543019CED
:101B60000295009DC4408D4000992C430194C140D2
:101B7000009154111DD06D460221002202290CD182
:101B80000320001B07E0002804DB8600AE59002E6E
:101B900000D00122401C0328F5DB081B02D5880079
:101BA0002A5004E08000285810438A00A850491E9B
:101BB000E3D51C460A98002802980CD0002800D0D3
:101BC00001200199019A490508430121D20AC9025D
:101BD000D202019200E00121109B0122D207012BC9
:101BE00002D0002B03D013E0002807D11FE0904261
:101BF00004D890420CD1019B0B4209D0019B59188B
:101C0000019105D10099491C009101D1641C0092F9
:101C100000280CD0102108460020C046002F06D016
:101C20001198002803D0082108460020C0460898D3
:101C30000999019A009B006809684840C10F0798FC
:101C4000C907214382600AC00BB0F0BD00B585B062
:101C5000019300920A460146002302A8FFF7FCFD0B
:101C600002A807C805B000BDFFB50A461F4685B0EB
:101C70000799019301230091014602A8FFF7ECFDAB
:101C800002990398049ECA0F4900D20700920F22BE
:101C9000490892028C1A0021002800DB0C464500FE
:101CA00013486D08844214D3079A002A04DA441EAC
:101CB0000026104DF64302E004460D460E46102164
:101CC00008460020C046002F03D00421084600200B
:101CD000C0462005E90A0843009908436905F20A4D
:101CE0001143ADE602C0FFFF013C0000FF3F0000D2
:101CF000FF070000FFFFFF7F00B585B00193009252
:101D00000A460146002302A8FFF79CFE02A807C866
:101D1000A8E7FFB50A461F4685B00799019301233E
:101D20000091014602A8FFF78DFE02990398049ED8
:101D3000CA0F4900D20700920F22490892028C1A5A
:101D40000021002800DB0C46450011486D08844244
:101D500014D3079A002A04DA441E00260D4DF643D8
:101D600002E004460D460E46102108460020C046FB
:101D7000002F03D0042108460020C0462005E90AB0
:101D80000843009908436905F20A114358E6000028
:101D9000FF070000FFFFFF7F30B503461D78002DD1
:101DA00003D00A4603E0AC4201D1181A30BD1478C2
:101DB000521C002CF7D15B1CF0E730B503461D78B0
:101DC000002D08D00A461478521C002C03D0AC42D7
:101DD000F9D15B1CF3E7181A30BD7546FFF7A0FB7D
:101DE000AE46050069465346C008C000854618B097
:101DF00020B5FEF73FFA60BC00274908B64600262A
:101E0000C0C5C0C5C0C5C0C5C0C5C0C5C0C5C0C5AA
:101E1000403D49008D4670473A2800D23038202393
:101E200002469A43412A01D310463738884201D3EB
:101E30000020C04370470000FFB58BB00878FF2832
:101E400006D0491C2D2805D000230020009009E071
:101E500000200EE00123F8E7009A0A24624380186C
:101E6000491C00900878FF28F6D1002B02D000987A
:101E700040420090002503952C460D9800782D28AF
:101E800001D02B2815D10D99491C2D280D9102D078
:101E9000002003900DE00120FBE7401C21460027B5
:101EA0000A223B460D90284600F0A2FA35183C461F
:101EB0004C410D980678FF2EEFD1002108460020F6
:101EC000C0460399002902D0810040184008000252
:101ED000860F012E01DD0026F6430E990098471863
:101EE000284620430BD0FF20F530C7421ADA03986A
:101EF000C1070B98002E41600ADD012009E003981C
:101F0000C1070B9841600B99002008600FB0F0BD2D
:101F100000200B990860FEF795FF0221016018214F
:101F200008461AE0FF20F530874219DD002E02DA5C
:101F3000FC48784401E0FC48784406C80B9806C089
:101F40000B9803994068C90708430B994860FEF74E
:101F500079FF02210160142108460020C046D5E720
:101F6000002108460020C04639000A9001D572427F
:101F700000E03246002900DA794207A8FFF7E0FBCB
:101F800007AB07CB04AB07C3E8480090002001462D
:101F9000214304D12C460546E44920390091210C07
:101FA0000904014306D1290C24040C4300992D0493
:101FB00010390091210E0906014306D1290E240291
:101FC0000C4300992D0208390091210F09070143A4
:101FD00006D1290F24010C4300992D01091F0091FE
:101FE000A10F8907014306D1A90FA4000C43009952
:101FF000AD00891E0091E10FC907084304D1009884
:102000006D196441401E0090002F0295019406DD79
:1020100032466846012304A9FFF726FE05E00123A6
:102020003246684604A9FFF774FE044603980D463D
:10203000002802D00120C0074440002108460020AB
:10204000C0460A99BA4E48400007800F07D1600089
:102050004008284303D06000400DB04214D1FEF781
:10206000F1FE022101606000400DB0420CD1B14888
:10207000784406C80B9806C00B98E10FC907406862
:1020800008430B99486041E70B9844600B98056042
:102090003CE7FFB51F4695B0002000250C909E68D8
:1020A0005C68ED431390FFF747FAC0680168405C35
:1020B0001490B96916986D1C88470A90396A884748
:1020C0000028F6D10A98401C0AD00D20C001844394
:1020D000002E12DD0A982B2809D02D280DD103E0FF
:1020E0000020C04319B0F0BD012080020443B9694B
:1020F00016986D1C8847761E0A90600504A901D5C4
:102100002D2000E02B206A46491C107410A8002ED8
:102110000D910B903BDD0A98692805D0492803D022
:102120006E2801D04E281DD13B4603900220029616
:10213000179A1699C0430095019406F061F9C11CE5
:10214000D0D10FE0B96916986D1C88470A9001201C
:10215000761E40020443179805601398401C002E19
:10216000139014DD0A983028ECD0782801D0582834
:102170000DD1139801280AD13B460296179A169959
:10218000001F0095019406F033F9C11CAAD11499DF
:102190000A98884246D18020044308E00C98179999
:1021A000401E0C90012040020443681C0860B9697D
:1021B0006D1C1698761E884730280A90EED031E0C4
:1021C0001499884205D1200603D480200443761E4A
:1021D0001EE00A9804F0AEFA002826D0012008A9D3
:1021E000400204430D980331761E88420BD20A98B0
:1021F0000D99303808700D98401C0D90200607D5B9
:102200000C98401E03E0200602D40C98401C0C9051
:10221000A00502D51799681C0860B96916986D1C4D
:1022200088470A90002ECBDC59E0002E57DD0A9833
:10223000652801D0452852D1A00550D50320B969A1
:10224000000284436D1C1698761E8847002E0A9063
:102250000CDD2B2804D02D2808D1FF2001300443A9
:10226000B96916986D1C8847761E0A90E00501D55D
:102270002D2100E02B210B9801700B98401C0B9036
:10228000009025E0012012A9400204430B9801317F
:10229000761E88420ED20A980B9930380006000E3E
:1022A000087003D100990B9888420AD90B98401CFA
:1022B0000B9006E0E00501D51F4801E01E484042B2
:1022C0000C90B96916986D1C88470A90179805609C
:1022D000002E04DD0A9804F02DFA0028D2D1F96905
:1022E000169888470D99FF2004AA08700B9908706A
:1022F00000200E900F900C9B10A90EA8FFF79CFDDC
:10230000A00502D40120C043ECE62420044215D0ED
:10231000E0071FD138680F9A0E99031D3B600068D3
:1023200006C017E0B2670000A46700003E4000004E
:10233000FF0700006C660000F1D8FFFF0EA9684699
:1023400004F082F9E00705D13868009A011D396070
:10235000006802602846C5E610B50446C046C0467F
:102360002046FDF71EFF10BD024670B50A439207D6
:102370002AD11E4DEE0104C808C9541B94433440B1
:1023800017D0D0B2D9B2401A2106014310D190B271
:1023900099B2401A210401430AD110021902000A1D
:1023A000090A401A2102014302D1100E190E401AE7
:1023B00070BD9A42DFD010BA19BA884201D9012003
:1023C00070BD0020C04370BD02780B78401C491CD2
:1023D000002A09D09A4207D102780B78401C491C88
:1023E000002A01D09A42EFD0D01A70BD010101013C
:1023F0004343514330B55C18010C130C0D4692B2A7
:102400005D4380B251432C19054655430A0C09041B
:102410004D1962415843010C00044019514130BD2F
:1024200001491820ABBEFEE726000200FFB51F469B
:1024300089B0139812994005C00FC007059000207D
:10244000079005460446461E049002903C20491C15
:1024500012910690B9690A98884703901498401E13
:1024600014901498002841DD03982E2816D01021CE
:10247000FFF7D2FC002834DB0121049107990143C6
:102480001AD0069900290CDB069AC11700F045FA0C
:10249000054306980C43001F069006E001200290B9
:1024A0000EE0002801D0012005430120079002988A
:1024B000002805D1361D03E00298002800D0361F01
:1024C0001298401C1290B9690A9888470390149892
:1024D000401E149004980028C3D00B9912980860ED
:1024E000BFE70398702808D0502806D0F9690A98E9
:1024F00088470498002815D051E00020039001205F
:102500000290049800280AD01298401C1290B969D1
:102510000A9888471499491E0029149106DCF96924
:102520000A9888470120C0430DB0F0BD2B2804D085
:102530002D280DD10020C04302901298401C12900B
:10254000B9690A9888471499491E00291491E6DD53
:10255000411CE4D00A21FFF75FFC0028DFDB039970
:102560000A225143081803901298401C1290B9692E
:102570000A9888470A21FFF74FFC14990B9A491EC5
:102580001491129911601499002901DD0028E6DAEE
:10259000F9690A988847029903984843861913985D
:1025A0002421084004902846204304D0A10F890725
:1025B000090002D006E005989BE0A90FA4000C4397
:1025C000AD00B61EE10FC907080002D16D196441C4
:1025D000761E0498002803D00B2002905D4803E08B
:1025E000282002907D20C0438642039007DA811B99
:1025F000029808184128029001DD41200290029AB9
:1026000001200021521E00F088F9024628400B46A6
:102610002140084301D0012000E000200790002065
:10262000521EC04343412A4023401A4301D0012097
:1026300000E0002007990690014352D0002108468F
:102640000020C0460321059A89050840002A05D0CC
:1026500082008018C20F1018401008408015012811
:1026600002DD0020C04301E0012815D0401C38D015
:102670000798002835D0069800280DD1029A01202D
:10268000002100F04AF928402140084301D00120F0
:1026900000E00020002824D0029A0120002100F050
:1026A0003CF9034640198C4661412A1A8C410FD3EC
:1026B0000298402807DD0498039E002801D0343E8C
:1026C00002E0173E00E0761C01240025E40708E044
:1026D0005B1E62460024E4436241DD43D44305406F
:1026E0000C4003980121081AB04206DA1A490598ED
:1026F00008430190002000900EE060006205010B8D
:10270000E80A1043059A009068460A4313490A43B1
:102710003146019204F004F8049800280AD0139876
:10272000C00714D13868019A0099031D3B60006806
:1027300006C00CE002A8694603F086FF1398C007A4
:1027400005D13868029A011D39600068026012984C
:10275000EAE6000002FCFFFF0000F07F0000F03F0F
:10276000FFB51D4687B01198484A109C129E40053F
:102770001399C00F761EC0070243019200220092F7
:10278000FF22D2051043202291434929059003D00E
:1027900017464E2928D04FE03DA002AA0BC80127BA
:1027A0000BC2A9690898641C8847761E014607D4A5
:1027B00002A8C05D002803D02022914381420AD0A4
:1027C000E96908988847032F36D0082F34D00120B4
:1027D000C0430BB0F0BD7F1C032F01D0082FE0D108
:1027E0000999601C0860DCE7A9690898641C88479F
:1027F000761E2DD4B84341282AD1A9690898641CB3
:102800008847761E24D4B8434E2821D1A969089858
:10281000641C884701990122D20411430191059952
:10282000D200114305910999761E0C6001D4282825
:1028300006D0E969089888471198C00712D023E0AC
:10284000A9690898641C8847761E01D4002803DA19
:10285000E96908988847BAE72928F1D10998641CE2
:102860000460E9E711982421084207D02868019AFA
:102870000099031D2B60006806C005E028680599D3
:10288000021D2A60006801602046A2E70000F07F78
:10289000494E46494E495459000000000246C80FAF
:1028A000C00781434B0030B54B405B009B0D20D0EF
:1028B0001923DB06C91801231B05994220DB0324D9
:1028C000A40704251346AB400BD3002B04D1EB0621
:1028D00013409B00E34204D401246407002312192F
:1028E0005941FF231B0599420BD2C9000143500FE8
:1028F00009E0CB0204D501430803024305D0054893
:1029000030BDFF21C905084330BD08460721090530
:10291000884330BD0000C07F704710B5202A04DB1B
:102920000146203A9140002010BD914020239C1A7E
:102930000346E3401943904010BD0000F8B5224C17
:102940004E00069DA6420AD8A64201D1002806D113
:102950005E00A64203D8A6420AD1002A08D00D2460
:10296000240425422CD02946002000F05FF8F8BD51
:102970000C461C430CD4994202D0EFF30080F8BD02
:10298000904202D0EFF30080F8BDEFF30080F8BD75
:1029900009242407E5008B4206D0EFF30080A04312
:1029A000591A06D2284304E0101A05D3EFF3008029
:1029B000A04380F30088F8BDEFF30080A043F1E767
:1029C000009500F04BF8F8BD0000E0FF70B505463B
:1029D0004800440D124B0020002C0AD0634008D060
:1029E0009A4206DA6642B24203DD120540195141AD
:1029F00070BD002C08D0002B09D0C90FC907002AD0
:102A0000F6DB084A114370BDC90FC90770BD2846DF
:102A10000A03104302D00020034970BD284670BD50
:102A2000FF0700000000F07F0000F87FC80212D509
:102A30004803400F002804D0C803C0430121884048
:102A40007047EFF3008000010009032109070843E4
:102A500080F30088704700207047000010B5002008
:102A60000249029A00F004F810BD00000000F87F4F
:102A700010B50C461107090F092904D00A290AD0FC
:102A800008290CD104E011460820FFF7CFFF06E02B
:102A9000510606D501E0510601D50120C0072146A7
:102AA00010BDD10607D501010909CC084907000E60
:102AB0000006044309E0410F20024907000A0143D0
:102AC000200E00061D22D14101430846E7E7000021
:102AD0000078F723C007010F024842781A401143DB
:102AE000417070471C0000200449007A0A784007B2
:102AF000D208D200400F02430A7070471C00002029
:102B000010B504F0DBFE1349002008707D24E400BA
:102B100023460C2210A1144801F030FF23460C225A
:102B20000DA1114801F02AFF23460C220AA10E48EC
:102B300001F024FF23460C2207A10B4801F01EFFE1
:102B400023460C2204A1084801F018FF04F0C2FE3D
:102B500010BD00001900002041542A47535441542D
:102B6000453F0D0A000000004C01002071B5A3B0E4
:102B70000020009001900290642105A8FDF72AFE34
:102B800020A8047B724E600726D06006000F012843
:102B900026D00DD9FEF753F902460B4600206D49A9
:102BA000FDF700FF02460B466BA16846FDF774FB7C
:102BB00014226B491EA8FDF737FB600720A9400FC0
:102BC0004D7B012811D002280FD0032842D00428C1
:102BD00072D0052874D079E03346082261A1B2E0B2
:102BE00063A16846FDF758FBE2E720A8007B0A23B3
:102BF0004007400FE1091EAA584384180A3C0029E7
:102C00000ED022466B465BA105A8FDF745FB05A843
:102C1000FDF7C4FC82B2334605A95A4801F0AEFE66
:102C2000A8070ED522466B4657A105A8FDF734FB31
:102C300005A8FDF7B3FC82B2334605A9514801F05F
:102C40009DFEE80742D022466B4653A105A8FDF73A
:102C500023FB28E0E0090ED06B461A4652A105A8D6
:102C6000FDF71AFB05A8FDF799FC82B2334605A9CA
:102C7000444801F083FEA8070ED56B461A4652A1C0
:102C800005A8FDF709FB05A8FDF788FC82B23346CD
:102C900005A93C4801F072FEE80717D06A4652A128
:102CA00005A8FDF7F9FA05A8FDF778FC82B23346CE
:102CB00005A908E000E003E033460C224EA102E043
:102CC00033460C2250A12F4801F058FE68073346C6
:102CD00014D50C2250A12B4801F050FE33460C2293
:102CE00051A1284801F04AFE33460C2252A1254842
:102CF00001F044FE33460C2253A113E00A2256A1F0
:102D0000204801F03BFE33460A2256A11D4801F03F
:102D100035FE33460A2256A11A4801F02FFE3346EB
:102D20000A2256A1174801F029FE2807334602D58A
:102D3000182255A101E019225AA1124801F01EFEE5
:102D400033460C225EA10F4801F018FE24B070BD7E
:102D5000E80300000000F03F25302E31660000003F
:102D6000688400086672657365740D0A00000000CF
:102D70003100000047504747412025732025730D3F
:102D80000A000000E00100204750524D4320257307
:102D90002025730D0A000000475047535620257325
:102DA0002025730D0A000000475047474120434F3C
:102DB0004D312025730D0A475047474120434F4D61
:102DC000322025730D0A00004750524D4320434FD7
:102DD0004D312025730D0A4750524D4320434F4D2E
:102DE000322025730D0A0000475047535620434FA9
:102DF0004D322025730D0A00756E6C6F6720636F6E
:102E00006D310D0A00000000756E6C6F6720636FF6
:102E10006D320D0A00000000756E6D61736B20420B
:102E200044530D0A00000000756E6D61736B2047FE
:102E3000414C0D0A00000000756E6D61736B2047F8
:102E400050530D0A00000000756E6D61736B2047D2
:102E50004C4F0D0A000000006D61736B204244531B
:102E60000D0A00006D61736B2047414C0D0A000094
:102E70006D61736B204750530D0A00006D61736BD9
:102E800020474C4F0D0A0000434F4E464947204112
:102E90004E54454E4E413220454E41424C450D0A5E
:102EA00000000000434F4E46494720414E54454ED6
:102EB0004E41322044495341424C450D0A00000026
:102EC00073617665636F6E6669670D0A00000000C6
:102ED00010B5054800F084F9044800F081F9044871
:102EE00000F07EF910BD000088030020E4030020FC
:102EF0004004002010B5024800F072F910BD000037
:102F00007402002010B5034800F06AF9024800F08E
:102F100067F910BDD00200202C03002010B5044634
:102F2000006C0949800880004018606420781421F2
:102F30000838FDF787FC04498031A164C106C90E39
:102F400001208840E06410BD000802400179084B70
:102F50008906890E8A00D2180265054A4432491E44
:102F600042658A07920F01219140816570470000F8
:102F7000FC080240F0B5846CC56C6560046D002CE3
:102F800002D0446D856D65600B4C6568066C1C272E
:102F90003E400127B7403D43656004686360836835
:102FA000102B036803D099600068C260F0BD9A607E
:102FB0000068C160F0BD00000000024072B6FEE78C
:102FC000044A5069044BC9001840014303480143B7
:102FD000516170470020024007E0FFFF020001003E
:102FE00030B505494C6901252C434C610260BFF3A3
:102FF0006F8F436030BD00000020024030B50B4CA5
:10300000002362690125AD042A436261EFF3108257
:1030100072B620C95B1C20C0DBB2402BF9D32069FB
:10302000C003FCD482F3108830BD000000200240B1
:10303000F8B5044600F0EEFA012706463F04124DAB
:1030400006E0601C04D000F0E5FA801BA04213D219
:1030500028693842F5D128690C4908400C49296192
:103060000CD00C4948600120F8BD601C06D000F06F
:10307000D1FA801BA04201D30320F8BD2869400388
:10308000F3D40020F8BD000000200240FA830000C5
:10309000FB830000400F002010B5FDF75FFA00072A
:1030A0000349420E0878872318401043087010BD6A
:1030B0001C00002000780549C001401804490A7826
:1030C0005206520E104308707047000000E8FFFFE0
:1030D0001C000020044900784A78C00752085200BA
:1030E000C00F02434A7070471C000020F0B5002852
:1030F00008D0014620314A79022A05D00422C26351
:10310000002008710120F0BD026813680E24A3435B
:103110001360426C1468FF2301339C4314600268FF
:1031200014686408640014600C4A5568066C1C241A
:10313000264001242746B7403D435560826CC56C4C
:103140005560026D002A05D015689D431560826D9B
:10315000406D42604C7100200871F0BD00000240DB
:10316000F8B50024024620325179022903D0042107
:10317000C16301242DE001680B680E25AB430B6091
:1031800001680B685B085B000B60416C0B68FF25F6
:103190000135AB430B6010494D68066C1C231E4083
:1031A00001231F46B7403D434D60816CC56C4D60A7
:1031B000016D002906D00E681D02AE430E60416D00
:1031C000856D4D60537100211171816B002900D014
:1031D00088472046F8BD000000000240C06B7047E1
:1031E000F0B42C490C6802681368056C1C273D403C
:1031F0000426AE40264211D05E070FD513689B0609
:1032000003D4146804239C4314604B68046C0422A8
:103210003C40A24013434B60016B1CE00227AF40CF
:10322000064627402036002F19D09F0717D5136870
:103230009B0605D413680A24A3431360012272710C
:103240004B68046C1C2214400222A24013434B60C2
:1032500000213171C16A00291AD0F0BC0847082743
:10326000AF40274214D01B0712D513680E24A34386
:1032700013604B68046C1C22144001221546A540C3
:103280002B434B60C263727100213171416BE2E7E5
:10329000F0BC70470000024070B504003FD02548E4
:1032A000256814212818FDF7CDFA8000206402203B
:1032B00026462036707128681F4908402860E1685A
:1032C000A06862690843216911430843A169084362
:1032D000E1690843216A084321680A6810430860CD
:1032E0002046FFF71BFE0121A068890300258842C4
:1032F00000D165602079616C8006800E0860A06C4A
:10330000E16C41606068401E03280AD82046FFF740
:103310001DFE206D0560606DA16D416004E001201F
:1033200070BD25656565A565E56301207071357122
:10333000002070BDF8FFFDBF0F80FFFFF8B5044609
:103340008C4620300179002501290BD00126067119
:1033500041790027012907D08021E1630771012508
:103360002846F8BD0220F8BD02214171E7632068BC
:10337000016849084900016061462046FFF7FAFDEF
:10338000206B00282068016801D00E2205E004228D
:1033900091430160206801680A2211430160606C5A
:1033A0000168CA03074902D502680A430260206D1A
:1033B000002802D002680A43026020680168314395
:1033C0000160CDE70001000070B5044600F022F96D
:1033D0000546601C02D004480078241800F01AF951
:1033E000401BA042FAD370BD2000002010B57D2004
:1033F0000124C000FFF71CFE054841698204114307
:1034000041614069002800DA0024204610BD000018
:1034100000200240F0B51FB4144C06462078154633
:1034200001280AD00120207000277D20C00067609D
:10343000FFF7FEFD002803D010E0022005B0F0BD2C
:10344000012E0DD029460198FFF7D8FD7D20C00040
:10345000FFF7EEFD06494A69B2434A612770EDE77E
:103460002A46039B0198FFF7BBFDEFE7400F0020C2
:1034700000200240064900204A69002A07DA054A6E
:103480008A60054A8A604969002900DA012070478C
:103490000020024023016745AB89EFCDF0B5002342
:1034A00003249AE02A4601259D402A407ED00E79C9
:1034B000B607B60F012E01D0022E16D18668274618
:1034C000B4465E00B646B7406646BE43B446CF68D3
:1034D0007646B7406646374387604668AE430D7907
:1034E000ED06ED0F9D40354345600D79ED43AD0789
:1034F00008D0C5685F002646BE40B5438E68BE4012
:103500002E43C6600D79AD07AD0F022D0ED1DD083B
:10351000AD002D18AC462D6A5E07F60E0F27B7409A
:10352000BD430F69B7402F4365462F6205685F00B2
:103530002646BE40B5430E79B607B60FBE402E43B1
:1035400006604D68AD03AD0F46D09E08264DB6000F
:103550007519AC462D6E9E07F60E0F27B740BD437A
:1035600005273F07B84201D100270FE01F4FB8429F
:1035700001D101270AE01E4FB84201D1022705E020
:103580001C4FB84201D1032700E00527B7402F4365
:10359000154D664637662D684E689543F60200D590
:1035A0001543114F3D607D68954300E014E04E687F
:1035B000B60200D515437D600B4D80356E684F68AF
:1035C0009643BF0300D516436E602E684F6896433E
:1035D000FF0300D516432E605B1C0A681546DA40CF
:1035E00000D05FE7F0BD000000180240000400506A
:1035F00000080050000C0050426913460B401B04A9
:1036000091430B4383617047002A01D08161704769
:1036100081627047014880687047000020000020E8
:1036200070B504000FD0216815480860216815485E
:10363000086003CC41602068083C21688860FFF77F
:10364000E9FF05460CE0012070BDFFF7E3FF401BDA
:10365000312805D92068C068400701D0032070BD1B
:103660002068C0684007F0D120680269E1688A429A
:1036700001D0016101E004490160002070BD00003B
:10368000CCCC000055550000AAAA000000680249F1
:103690000160002070470000AAAA0000024881686B
:1036A00002788918816070472000002010B5084812
:1036B00000240168821511430160032000F00AF81C
:1036C000002801D0012401E000F052F8204610BD8E
:1036D0000020024030B505461F4887B0C26B10215C
:1036E0000A43C263C06B0840009005A901A800F01E
:1036F000FDF90498002815D000F014FA400017498D
:10370000FDF7A0F8411E1748154A0260164AC2602C
:103710004160002101618160816100F056FC04007C
:1037200003D015E000F0FEF9E9E70E4800F074FC64
:1037300004000DD1112000F039F8042D07D2002229
:103740002946112000F03EF80848056000E00124F9
:10375000204607B030BD00000010024040420F007C
:10376000001000409C040020E7030000240000201B
:1037700008B50D480168012211430160006810403E
:10378000009009484038C26B01040A43C263C06B11
:103790000022084003210090481F00F013F8032086
:1037A000400200F005FC08BD40100240002805DB87
:1037B000C106C90E01208840014908607047000019
:1037C00000E100E010B502F009FF10BDBFF34F8F1C
:1037D00004490348C860BFF34F8F00BFFDE70000F6
:1037E0000400FA0500ED00E010B50F4C216803223B
:1037F0005202914301432160C11FFF39FA390ED1B2
:103800000A480621006848430949FDF71BF8401C97
:1038100002E0002805D0401E61694905F9D4002066
:1038200010BD032010BD0000007000402C000020DF
:1038300040420F00F8B5044600680026524D800350
:1038400058D5514800274038C06BC00009D44E48B5
:103850004038C26B01040A43C263C06B08400127B1
:1038600000904A480168821511430160FFF7D2FEBB
:10387000009005E0FFF7CEFE0099401A022825D8F7
:1038800042480068C005F5D5E869032109020840EF
:103890000FD0A16981420CD0E86903210902EA69CD
:1038A0008843012109040A43EA61EA698A43EA611B
:1038B000E861C0070FD0FFF7ADFE009008E0FFF70A
:1038C000A9FE0099411A3248814201D9032609E034
:1038D000E8698007F3D5E869032109028843A169F3
:1038E0000843E861002F05D027484038C16B020427
:1038F0009143C1632078C00705D06869616880087A
:103900008000084368612078800705D568690C212C
:103910008843A168084368612078800606D56869F5
:10392000032109038843E168084368612088400453
:1039300011D56869616980008008084368610121C8
:1039400060698907884206D10F484038C168012262
:1039500012041143C1602088000512D56869032153
:10396000890388432169084368610121206989032B
:10397000884206D104484038C1680122120411432C
:10398000C1603046F8BD00004010024000700040A9
:1039900088130000F8B50F46060043D04D4D286847
:1039A0004007400FB84213D22868C008C00038430F
:1039B0002860FFF72FFE044605E0FFF72BFE011BF2
:1039C0004548814261D828684007400FB842F4D189
:1039D0003068424C81070DD5400704D5A068072107
:1039E00009030843A060A0680F2109028843B16859
:1039F0000843A0603078C00732D0706801280AD030
:103A000002280BD000280FD03449403103280ED0B3
:103A1000C969890704E02168890301E021688901F7
:103A2000002906DB0120F8BD21684905F8E7096A8D
:103A3000EFE7A168C908C9000143A160FFF7EAFDEB
:103A4000009006E0FFF7E6FD0099411A2248814206
:103A50001BD8A068382108407168C9008842F1D19C
:103A600028684007400FB84217D91A480168C908AA
:103A7000C90039430160FFF7CDFD054607E0FFF7B8
:103A8000C9FD411B1448814201D90320F8BD1148EA
:103A900000684007400FB842F1D13078400706D5A2
:103AA000A068072109038843F1680843A06000F07B
:103AB0004DF8A1683C2289091140094A515CC906A8
:103AC000C90EC8400749086007480068FFF702FEB2
:103AD000F8BD0000002002408813000000100240E2
:103AE000E88400082C0000202400002010B50722E4
:103AF00002600A4A93685B075B0F436093680F2478
:103B0000240223408360926807231B031A40C2608B
:103B1000034800684007400F086010BD00100240D5
:103B2000002002400648074900688968064A49049F
:103B3000490F8900515CC906C90EC8407047000092
:103B40002C000020001002402885000810B5204CF1
:103B5000A068204A8006400F16D0A0688006410F5A
:103B6000501001290FD0A1688906490F022912D0EF
:103B7000A0688006400F042823D0A0688006400F6C
:103B8000032821D0002010BD206801218004400FAF
:103B90008140104612E0E1688B07E1689B0F4906FF
:103BA000490F491C032B00D01046FCF74BFEE1687F
:103BB0004904490E4843E168490F491CFCF742FE9D
:103BC00010BD0120C00310BD7D20000210BD00000B
:103BD000001002400024F400F8B504007ED02078E4
:103BE0003827C007E94D002846D0A868E968384062
:103BF0008907890F102802D008280BD001E003297B
:103C000008D001206268000482420AD12968014379
:103C1000296015E0286880032ED560680028DDD073
:103C20002AE0052301211B0489049A422A6802D153
:103C30000A432A60EAE782432A60286888432860AA
:103C4000606800280CD0FFF7E5FC064604E0FFF7AB
:103C5000E1FC801B642873D828688003F7D50BE04B
:103C6000FFF7D8FC064604E0FFF7D4FC801B64286D
:103C7000F1D828688003F7D42078800769D5A86830
:103C8000E96838408A070721920FC902102802D03C
:103C9000002813D001E0022A10D0E068002846D0A6
:103CA000286888432169084328602868FF2101317A
:103CB00008432860FFF7AEFC06462CE02A68520550
:103CC00002D5E268002A89D06A687F231B029A43E2
:103CD00063691B021A436A60002800E08DE00ED180
:103CE00028688843216908432860286801218004E6
:103CF000400F8140A648FCF7A5FDA6490860A648EC
:103D00000068FFF7E7FC002877D122E0FFF782FC8C
:103D1000801B02289FD828684005F7D568687F2156
:103D200009028843616909020843686011E0296853
:103D3000FF20013081432960FFF76CFC064605E057
:103D400098E0FFF767FC801B022884D828684005AC
:103D5000F7D42078914E00072ED5A8688006400F32
:103D600003280AD0A0690028306A16D00121084330
:103D70003062FFF74FFC07460BE0306A80071BD527
:103D8000A06900289FD017E0FFF744FCC01B022861
:103D900070D8306A8007F7D50EE0400840003062E6
:103DA000FFF738FC074604E0FFF734FCC01B02288D
:103DB00060D8306A8007F7D4207840076CD5A868AF
:103DC00000278006400F042818D0E86BC00008D4F4
:103DD000E96B012000070143E963E96B014001271A
:103DE00000916F480168C90519D401688215114313
:103DF0000160FFF70FFC00900DE083E0F0698007A1
:103E00004AD5A06800287DD046E0FFF703FC009962
:103E1000401A02282ED862480068C005F5D5A1686E
:103E2000012910D004200529F16911D04908490061
:103E3000F161F1698143F161A068002816D0FFF7B4
:103E4000E9FB00900EE0F06901210843F061F3E71F
:103E50000143F161F7E7FFF7DDFB0099411A514893
:103E6000814265D8F0698007F5D50EE0FFF7D2FBF7
:103E7000009007E05CE0FFF7CDFB0099411A49484C
:103E8000814255D8F0698007F5D4002F04D0E96B42
:103E9000012000078143E963E069002873D0A96825
:103EA0008906490F02294DD00126360602282868C6
:103EB00005D0B0432860FFF7ADFB04463AE0B043BD
:103EC0002860FFF7A7FB074604E0FFF7A3FBC01B32
:103ED00002282DD828688001F7D4616A206AA26A76
:103EE0000843E16A120211430843216B0843E96861
:103EF0002D4A11400843E860286830432860E8688C
:103F0000012100E03DE009070843E860FFF782FB7C
:103F1000044604E0FFF77EFB001B022808D828684F
:103F20008001F7D52FE0FFF775FB001B022801D9B0
:103F30000320F8BD28688001F5D4E8681B490840D3
:103F4000E86020E00128F4D0E868226A8107890F40
:103F5000914216D17021626A0140914211D17F21B4
:103F6000A26A09020140120291420AD11F214904AA
:103F7000E26A0140914204D1400F216B4007884220
:103F800001D00120F8BD0020F8BD00000010024063
:103F90000024F4002C0000202400002040100240E7
:103FA00000700040881300008C80C11FFCFFFEEFF2
:103FB00003490A6803235B029A4302430A6070477D
:103FC0000000014070477047704770B5040005D08D
:103FD00025462035687F002802D006E0012070BD0C
:103FE00000202877204600F016F802206877211D6F
:103FF000206801F0DFFC012240342272AA77EA77C0
:1040000022706270A270E27022716271A271E2711C
:104010006A77002070BD7047014620314A7F012A2F
:1040200001D00120704702224A770168CB68012243
:104030001343CB6000680B49884205D00A49884287
:1040400002D00A49884207D18168094B19400629E4
:1040500005D0DB1F994202D00168114301600020A6
:1040600070470000002C0140000400400040014067
:104070000700010070470000F8B504460068C668F4
:1040800005690027A907002913DAB10711D5F91E20
:10409000016101202077206880698007204602D0D6
:1040A000FFF7E8FF04E000F08BF8204600F089F805
:1040B0002777680716D5700714D504202168C043F8
:1040C000086102202077206880698005800F2046E3
:1040D00002D0FFF7CFFF04E000F072F8204600F0B6
:1040E00070F82777280715D5300713D508202168E1
:1040F000C0430861042020772068C06980072046FB
:1041000002D0FFF7B7FF04E000F05AF8204600F0B5
:1041100058F82777E80616D5F00614D51020216840
:10412000C0430861082020772068C0698005800F9F
:10413000204602D0FFF79EFF04E000F041F8204641
:1041400000F03FF82777E80708D0F00706D00120F5
:104150002168C0430861204600F034F8280601D4E5
:10416000A80407D5300605D5216813480861204604
:10417000FFF729FFE80507D5300605D521680F4868
:1041800008612046FFF71EFF680608D5700606D5B1
:1041900040202168C0430861204600F01DF8A806B1
:1041A00008D5B00606D520202168C0430861204606
:1041B000FFF70AFFF8BD00007FDFFFFFFFFEFFFFF4
:1041C0007047704710B500680249884201D1FFF777
:1041D00065FA10BD00100040704710B501468031EF
:1041E0000A79012A15D001220A7124228A60026804
:1041F0001368146864086400146001225207934332
:104200000022426600680360202088600A71104620
:1042100010BD022010BD7047704770B504460546BA
:104220008034207901281AD0012020712420A06038
:10423000286806680268520852000260286882688E
:1042400007235B069A430A438260284601F0FEFB7F
:10425000286806602020A0600020207170BD022028
:1042600070BD70B50446054680342079012819D008
:10427000012020712420A060286806680268520886
:104280005200026028688268D200D2080A43826025
:10429000284601F0DBFB286806602020A060002093
:1042A000207170BD022070BD70477047F8B505469B
:1042B00004468035A868EE6821688A6810271206CF
:1042C000002A1BDA212819D1EFF31080012282F392
:1042D00010888A6880239A438A6080F31088E06F90
:1042E000002808D0FEF702FF002804D0E06FFEF798
:1042F00075FF202824D0204601F078FD21688868C9
:1043000040061BD5222E19D1EFF31080012282F333
:1043100010888A6840239A438A6080F3108828684E
:10432000002808D0FEF7E2FE002804D02868FEF737
:1043300055FF202804D0204601F026FD0020F8BDBE
:104340002F610320F8BD7047F8B503680446D969AA
:1043500018689A68B44D0E462E4025468035002ECA
:1043600075D0B24EB24F1640074037436ED0CF07DC
:1043700006D0C70504D501271F622B693B432B617B
:104380008B0708D5D30706D0276802233B622B6929
:1043900004273B432B614B0708D5D30706D027687A
:1043A00004233B622B6902273B432B610B0709D592
:1043B00020230340334305D02668082333622E6947
:1043C0001E432E610B0509D5430107D5012326683D
:1043D000DB0233622B69202633432B612B69002BD0
:1043E00042D089060AD520210840C9050A40104359
:1043F00004D0616F002901D02046884728692168D0
:104400008968490602D42821084232D0204601F0AA
:10441000BBFC21688868400627D5EFF31080012295
:1044200082F310888B68402293438B6080F310885E
:104430002868002819D07F4981632868FEF790FE1C
:10444000002811D02868816B0DE000E017E08E068F
:1044500015D5012720263F07064017403E430ED0C2
:10446000616FB5E020468847F8BD2046FFF76BFF37
:10447000F8BD2046FFF767FF00202861F8BDE66E13
:10448000012E7DD1CE067BD5C60679D510221A62C3
:1044900023689868264640064036002849DA29688D
:1044A000086840680004000CE8D0B78B8742E5D963
:1044B000F08308680068800634D4EFF3108001218F
:1044C00081F3108819681701B943196080F31088C7
:1044D000EFF31080012181F3108821688B685B085D
:1044E0005B008B6080F31088EFF31080012181F373
:1044F000108821688B684027BB438B6080F310884D
:104500002020E8600020E066EFF31080012181F3B5
:10451000108821680B6893430B6080F3108828682B
:10452000FEF7E4FD02202067B08BF18B401A81B2C8
:1045300035E0B08BF18B401A81B2F08B00289DD012
:1045400000299BD0EFF31080012686F310881E68A7
:10455000FF272137BE431E6080F31088EFF31080E1
:10456000012383F3108823689E68304FFF433E4049
:104570009E6080F310882020E8600020E06600E064
:1045800011E06067EFF31080012383F31088236844
:104590001D6895431D6080F3108802202067204627
:1045A000FFF739FEF8BDCE0208D5560206D5012028
:1045B000000518622046FFF778FEF8BD0E060BD501
:1045C00001278026FF0506403A40164304D0A16F1C
:1045D000002900D046E7F8BD4A0614D5420612D598
:1045E0002046EFF31081012282F310881A684024DC
:1045F000A2431A6081F310882021A96000218167FD
:1046000000F07AFAF8BD0A0205D5420003D520462B
:10461000FFF74AFEF8BDC901FCD50028FADA2046AA
:10462000FFF7FAFDF8BD00000F08000001000010C0
:1046300020010004155C000870B5040005D0254673
:104640008035A868002802D006E0012070BD002057
:104650002871204600F026F82420A8602068016810
:10466000490849000160A06A002802D0204601F0F4
:104670000FFA204601F0D8FB0128E7D020684168F6
:104680000922D20291434160206881682A22914325
:10469000816020680168012211430160204601F019
:1046A0005DFA70BDF0B58DB0044614216846FCF784
:1046B00091F81C2105A8FCF78DF891492746206840
:1046C000904E8037002588425ED1012005900695E6
:1046D00005A8FFF7AFF8002801D0FEF76FFC894866
:1046E00040300268012189030A43026000680840E3
:1046F0000C90716B012001437163716B0490014058
:104700000C910321490200910221019102900321A1
:104710000391052069460007FEF7C0FE7B4E7A48EC
:104720003060B5603220F56070607561B561F5612B
:104730008020356230613046FEF7AEFD002801D0A2
:10474000FEF73CFC3E60B4626F48704E14305C363D
:104750003060332070601020F560B0607561B56125
:10476000F5618020356230613046FEF795FD002806
:1047700001D0FEF723FCE667002201211B20B46272
:10478000FFF720F81B205EE0614988425FD10220DC
:104790000590079505A8FFF74DF8002801D0FEF712
:1047A0000DFCF16B012040040143F163F16B01400A
:1047B0000C91716B012001437163716B0490014096
:1047C0000C910C210091022101910290032103918F
:1047D000052069460007FEF761FE4B494B4828312A
:1047E000B83001608560C560456185618026C5611E
:1047F0000661342105624160FEF74EFD002801D0BC
:10480000FEF7DCFB4148B83038608462414F3E48D7
:1048100039463C303860352078601020083161C15D
:104820007D61BD61FD6138463D62FEF735FD0028C2
:1048300001D0FEF7C3FBE767002203211C20BC6206
:10484000FEF7C0FF1C20FEF7B1FF0DB0F0BD3249EE
:104850008842FAD1F16B012080040143F163F16BCE
:1048600001400C91716B022001437163716B0190E7
:1048700001400C9101200290032003210390890242
:1048800004200091049069462448FEF707FE1E4963
:10489000204850315C3001608560C56045618561AC
:1048A0008026C5610661362105624160FEF7F4FC91
:1048B000002801D0FEF782FB16485C303860154FA7
:1048C00084621148B83764303860372078603946E0
:1048D0001020083161C17D61BD61FD6138463D62D6
:1048E000FEF7DAFC002801D0FEF768FBE76700223C
:1048F00002211D20BC62FEF765FF1D20A3E700001A
:1049000000380140001002400800024074020020FC
:10491000004400408803002000480040000400508C
:1049200070B58C231B58202B01D0022070BD0029AC
:104930000BD0002A09D0012483682403A34206D1A6
:104940000369002B03D1CB0701D0012070BD0023E8
:10495000C366046863681B020BD5EFF3108301255F
:1049600085F3108825680126B6063543256083F354
:10497000108801F021FB70BD70477047FFB50646F7
:1049800004468036B06883B00D46202802D002204D
:1049900007B0F0BD002D0CD00598002809D00120EB
:1049A000A1680003814206D12069002803D1E807ED
:1049B00001D00120ECE7002030612120B060FEF73B
:1049C00029FE0190274640370598B8820598F8825D
:1049D0000120A1680003814202D12069002802D091
:1049E0000295002515E00020029012E000228021AF
:1049F000204601F037FB002818D10298002819D072
:104A00002168007888620298401C0290F88A401E53
:104A1000F882F88A019B002806980090E6D10022CF
:104A20004021204601F01EFB00280AD02020B06063
:104A30000320ADE728882168C005C00D8862AD1C41
:104A4000E4E72020B0600020A2E7000070B5054632
:104A500004468035A868202801D0022070BD0029B6
:104A60000BD0002A09D00123A0681B03984206D16D
:104A70002069002803D1C80701D0012070BD20465D
:104A8000403021658282C282002028612121A960F4
:104A9000E16F002918D0154BCB62E36F14491963FD
:104AA000E36F14495963E16F134688632668216DEB
:104AB00032462832E06FFEF741FC002804D0102077
:104AC00028612020A860D8E7216840200862EFF321
:104AD0001080012181F3108821688A6880231A439D
:104AE0008A6080F31088002070BD0000335D0008EC
:104AF0007F5D0008295C000870477047FEE70000F2
:104B000008B51048816B012211438163806B03213A
:104B10001040009000220920FEF754FE0920FEF705
:104B200045FE002203210A20FEF74CFE0A20FEF774
:104B30003DFE002203210B20FEF744FE0B20FEF772
:104B400035FE08BD0010024010B5174890B000684F
:104B500000220F9011460FA802F0A4F9134C12493D
:104B6000E0601422091D6846FBF75EFB00216846E1
:104B700002F080F90C4920601422183105A8FBF7D7
:104B800053FB002105A802F075F907496060142263
:104B90002C310AA8FBF748FB00210AA802F06AF9A9
:104BA000A06010B010BD00001084000808000020B4
:104BB000F0B587B014216846FBF70CFE2448426B21
:104BC00020210A434263426B0A400592416B012453
:104BD00021434163416B21400591416B02252943EB
:104BE0004163416B29400591426B08210A434263AE
:104BF000406B0F0308400590002239461548FEF728
:104C000003FD0520002239460007FEF7FDFC0022C7
:104C100002211148FEF7F8FC032601AA009770C292
:104C200069460C48FEF73AFC0520019469460007E6
:104C3000009703960294FEF731FC019469460648FA
:104C4000039600950294FEF729FC07B0F0BD000022
:104C50000010024000040050000C0050704700009B
:104C600010B5184816490160E12149024160002150
:104C70008160C16001618161C16101620C22416298
:104C800042618162FFF7D8FC002801D0FEF796F957
:104C900000210C48FFF7E5FA002801D0FEF78EF955
:104CA00000210848FFF7B9FA002801D0FEF786F97D
:104CB0000448FFF792FA002801D0FEF77FF910BDF3
:104CC00000380140B800002010B5184816490160AE
:104CD000E1214902416000218160C160016181617F
:104CE000C16101620C22416242618162FFF7A4FC52
:104CF000002801D0FEF762F900210C48FFF7B1FA55
:104D0000002801D0FEF75AF900210848FFF785FA7C
:104D1000002801D0FEF752F90448FFF75EFA002898
:104D200001D0FEF74BF910BD004400404C010020BB
:104D300010B50D480B490160E12149024160002195
:104D40008160C16001618161C16101620C224162C7
:104D500042618162FFF770FC002801D0FEF72EF956
:104D600010BD000000480040E0010020FEE7F7B55C
:104D7000B2B00F460446C8216846FBF72BFDC82594
:104D8000002607E02C212046FBF7FEFB002827D059
:104D9000441C761CBE42F5DB2C212046FBF7F4FBBD
:104DA000002801D0001B02E02046FBF7F7FB074676
:104DB000681E6E46874207D23A4621463046FBF7C8
:104DC0000BFD0020F05508E06A1E21463046FBF737
:104DD00003FD002071192039C87734996846884747
:104DE00035B0F0BDF0B5C8260D460022B3B004467C
:104DF000114601E0491CC9B2435C002BFAD10123E2
:104E000004E0C75C2A2F03D07A405B1C8B42F8DB9E
:104E100029A132A8FBF740FA002707E02C21204601
:104E2000FBF7B2FB002830D0441C7F1CAF42F5DBFF
:104E30002C212046FBF7A8FB002801D0001B02E034
:104E40002046FBF7ABFB0746701E874208D23A4666
:104E500021466846FBF7C0FC00206946C85509E0BA
:104E6000721E21466846FBF7B7FC69460020891987
:104E70002039C877124C2B0001F08CFB060704097F
:104E80000D12170768460078207133B0F0BD6846F0
:104E900000786071F9E76846FBF760FBA071F4E702
:104EA00007486A4607A1C01D03E005486A4605A1F8
:104EB0006B30FBF7F1F9E8E72530325800000000CD
:104EC000700E002025730000F0B5C82604460022AD
:104ED000B3B00F46104601E0401CC0B2215C00296F
:104EE000FAD1012504E0615D2A2903D04A406D1CF6
:104EF0008542F8DB72A132A8FBF7CEF961190222D4
:104F000032A8491CFBF76CFB00285DD1002507E0A7
:104F10002C212046FBF738FB002855D0441C6D1C83
:104F2000BD42F5DB2C212046FBF72EFB002801D0EB
:104F3000001B02E02046FBF731FB0546701E854250
:104F400008D22A4621466846FBF746FC00206946FF
:104F5000485509E0721E21466846FBF73DFC68464D
:104F6000002180192038C177574C3B002646254642
:104F70008036603501F00EFB0F28092A393D4C5070
:104F80005462732884282895280002230022694649
:104F90004D4802F037FC4C48FBF7E0FA0830287126
:104FA00002231A466946484802F02CFC4648FBF7A3
:104FB000D5FA6871022304226946434802F022FCB4
:104FC0004148FBF7CBFAA87133B0F0BD6846FBF758
:104FD000E5FA0346002269463B4802F013FC3A48D2
:104FE00001F0AFFBE166A066EEE768460078287442
:104FF000EAE76846FBF7D2FA0346002269463248E0
:1050000002F000FC304801F09CFBE167A067DBE7A1
:10501000684600783070D7E7684600787070D3E74C
:105020006846FBF7BBFA034600226946264802F0B1
:10503000E9FB2548FBF792FAB070C5E76846FBF735
:10504000ADFA0346002269461F4802F0DBFB1E480A
:1050500001F077FB882210518034E160B4E76846A4
:10506000FBF79CFA034600226946174802F0CAFB88
:10507000154801F066FB9022105180346161A3E76E
:105080006846FBF78BFA0346002269460E4802F099
:10509000B9FB0D4801F055FB982210518034E161B5
:1050A00092E76846FBF77AFA03460022694606480B
:1050B00002F0A8FB0448FBF751FA308484E70000B3
:1050C0002530325800000000A00C0020F0B5C826A2
:1050D00004460022B3B00F46104601E0401CC0B2A7
:1050E000215C0029FAD1012504E0615D2A2903D061
:1050F0004A406D1C8542F8DB6CA132A8FBF7CCF866
:105100006119022232A8491CFBF76AFA00285ED115
:10511000002507E02C212046FBF736FA002856D060
:10512000441C6D1CBD42F5DB2C212046FBF72CFAFC
:10513000002801D0001B02E02046FBF72FFA0546AD
:10514000701E854208D22A4621466846FBF744FB7A
:1051500000206946485509E0721E21466846FBF763
:105160003BFB6846002180192038C177514C3B0039
:10517000204626462546A0308036603501F00AFAE2
:105180000E2708292D3C404F535B63828A8E92275D
:10519000022300226946474802F034FB4548FBF7EA
:1051A000DDF90830287102231A466946414802F0A9
:1051B00029FB4048FBF7D2F96871022304226946B3
:1051C0003C4802F01FFB3B48FBF7C8F9A87133B01D
:1051D000F0BD68460078E871F9E76846FBF7DEF94C
:1051E000034600226946334802F00CFB314801F0C7
:1051F000A8FAE166A066EAE7684600782874E6E760
:105200006846FBF7CBF9034600226946294802F0BD
:10521000F9FA284801F095FAE167A067D7E76846F0
:1052200000783070D3E7684601F08BFA882210517D
:105230008034E160CBE7684601F083FA9022105198
:1052400080346161C3E7022300226946194802F0F5
:10525000D9FA1848FBF782F9B07602231A46694654
:10526000144802F0CFFA1348FBF778F9707602235E
:10527000042269460F4802F0C5FA0E48FBF76EF9A2
:105280003076A4E7684601F05CFAA0221051803421
:1052900061629CE769460978017298E76946097876
:1052A000417294E769460978817290E72530325857
:1052B00000000000400B0020F0B5C8260446002284
:1052C000B3B00F46104601E0401CC0B2215C00297B
:1052D000FAD1012504E0615D2A2903D04A406D1C02
:1052E0008542F8DB6CA132A8FAF7D6FF61190222D9
:1052F00032A8491CFBF774F900285ED1002507E0AD
:105300002C212046FBF740F9002856D0441C6D1C88
:10531000BD42F5DB2C212046FBF736F9002801D0F1
:10532000001B02E02046FBF739F90546701E854256
:1053300008D22A4621466846FBF74EFA0020694605
:10534000485509E0721E21466846FBF745FA684653
:10535000002180192038C177514C3B002046264659
:105360002546A0308036603501F014F90E27082953
:105370002D3C404F535B63828A8E9227022300228A
:105380006946474802F03EFA4548FBF7E7F808301F
:10539000287102231A466946414802F033FA404810
:1053A000FBF7DCF868710223042269463C4802F0EE
:1053B00029FA3B48FBF7D2F8A87133B0F0BD684634
:1053C0000078E871F9E76846FBF7E8F80346002241
:1053D0006946334802F016FA314801F0B2F9E16645
:1053E000A066EAE7684600782874E6E76846FBF7B7
:1053F000D5F8034600226946294802F003FA2848F6
:1054000001F09FF9E167A067D7E768460078307040
:10541000D3E7684601F095F9882210518034E160A5
:10542000CBE7684601F08DF990221051803461611C
:10543000C3E7022300226946194802F0E3F918483D
:10544000FBF78CF8B07602231A466946144802F03E
:10545000D9F91348FBF782F87076022304226946D3
:105460000F4802F0CFF90E48FBF778F83076A4E742
:10547000684601F066F9A0221051803461629CE711
:1054800069460978017298E769460978417294E79C
:1054900069460978817290E7253032580000000093
:1054A000F00B0020F0B5C826B3B00D460446002727
:1054B00007E02C212046FBF767F8002858D0441C51
:1054C0007F1CAF42F5DB2C212046FBF75DF800285E
:1054D00001D0001B02E02046FBF760F80746701E73
:1054E000874208D23A4621466846FBF775F9002103
:1054F0006846C15509E0721E21466846FBF76CF903
:105500006946002089192039C877224C032D17D805
:10551000684601F08DFAA17A01280CD0A8400F222C
:10552000C043D243104301400807A172C9B2000F23
:10553000090909011AE0A8400007000F0143F3E739
:105540002E1F032E1CD8684601F072FAA17A01289A
:1055500010D00A09B040824310010907090F08431F
:10556000A072A17A000900010907090F0143A17285
:1055700033B0F0BD0A09B04002431007000EECE75B
:10558000284608380328F3D8684601F051FA611913
:10559000C870EDE70A0800200078FD23C007810FDE
:1055A000024842781A401143417070471C000020A5
:1055B000704700000078FB23C007410F0248427883
:1055C0001A401143417070471C0000201C481B49C1
:1055D0000160032141607D21C900C1608160FEF747
:1055E0001FF8002801D0FDF7E9FC174D00272C46D5
:1055F000144EC034C9351248FEF748F830780128F7
:105600000BD1377002F05AF9207A2946801E82B2F7
:105610000E48FFF71BFA02F05DF97078012809D1F6
:10562000777002F04BF9227A29460948FFF70EFA03
:1056300002F050F9012001F010FCDCE700300040DE
:10564000A800002000000020E80400204C010020F9
:10565000E0010020B8B0744800260590734DA8788A
:10566000012830D1AE7002F029F971480078012884
:1056700006D002280AD0032810D0042818D020E031
:105680006D486C49C06801F01FFC1AE06B48642348
:1056900007C8029201910090042207E06748642342
:1056A0000C3007C80292019100900522694605E07E
:1056B0005D487D230938027A0599DB006048FFF7D1
:1056C0005DF902F007F92879012829D12E71EE70D1
:1056D00002F0F4F85B4C0020A072074639460598AA
:1056E000FFF7E0FE7F1C0C2FF8DBEB202070A07A88
:1056F0007D230107090F61700009A070E07AE07056
:10570000207B2071607B6071A07BA0719020E07194
:10571000DB0008224B494A48FFF730F902F0DAF87B
:105720006879012822D16E7102F0C8F8C82106A854
:10573000FBF750F801210520C9030007FDF75CFFC6
:1057400041A106A8059AFAF7A7FD06A8FAF726FFD1
:1057500082B27D23DB0006A93948FFF70FF906A8BE
:1057600000F0DEFEFEF732F802F0B4F8A879012866
:1057700056D1AE7102F0A2F8344A00210598FFF725
:10578000F6FA334A01210598FFF7F1FA314A02216E
:105790000598FFF7ECFA304A03210598FFF7E7FA7E
:1057A0002E4A04210598FFF7E2FA2D4A05210598B3
:1057B000FFF7DDFA2B4A06210598FFF7D8FAC82132
:1057C00006A8FBF707F8284C60780107CA0F4107C5
:1057D000CB0F217887074D06C0070492C00F0393B3
:1057E0004A072D0FFF0F0090CB0901970295520F2A
:1057F0001EA106A8FAF750FD06A8FAF7CFFE82B25E
:105800007D23DB0006A90E48FFF7B8F8217868462B
:105810000170617841700098FDF7A8F902F05AF81C
:10582000012001F01AFB19E74207002000000020C8
:105830001A000020102700000800002050840008F3
:10584000B80000200A08002025730000E92A00089B
:10585000B530000899550008D53000089930000887
:10586000B5550008D12A00081C00002025642D2D04
:1058700025642D2D25642D2D25642D2D25642D2D9C
:1058800025642D2D25640000FFB01D4D9BB0E878E8
:10589000012830D10020E87002211A48FDF7ACFE43
:1058A00035A8009018A11CAB03AA184801F068FFA6
:1058B000642280A967A80292019100904EAB35AA9C
:1058C0001CA903A801F02AFB002421464EA8FFF7DB
:1058D000FDFB214667A8FFF7F7FA214680A8FFF7EE
:1058E000EBFC641CE4B20E2CEFD901F0E7FF00F0F2
:1058F00085FF01F0EFFF012001F0AFFAC7E70000DC
:1059000000000020000C00500D0A0000AC0900202F
:1059100010B5FAF761FC044602F03AFB002803D008
:1059200001200349000748602046FAF759FC10BDE2
:1059300000ED00E030B591B034216846FAF74AFF37
:10594000002401200D940E940F9440021094FDF752
:105950004BFF0920009001200004019001200690D7
:105960000320089010200A90400302250B90079511
:1059700000030C9009946846FEF72EF9002801D028
:1059800072B6FEE707200D900F9402210E95109439
:105990000DA8FDF7FFFF002801D072B6FEE711B099
:1059A00030BD704710B50248FEF766FB10BD000021
:1059B0009C040020F0B502681E4B1F4C984201D099
:1059C000A04203D17025AA434D682A431B4D1C4EAB
:1059D0001C4F98420AD0A04208D01B4CA04205D0D0
:1059E000A84203D0B04201D0B84205D114460322E8
:1059F00012029443CA6822438024A2434C69224382
:105A000002608A68C2620A688262984205D0A8422F
:105A100003D0B04201D0B84201D10969016301212C
:105A200041610169C90703D0016949084900016161
:105A3000F0BD0000002C0140000400400040014087
:105A4000004401400048014000200040F8B50446F1
:105A5000416E4034002915D00068816880680901D2
:105A60004D0F0A4E400F3746315C083F385CC0008E
:105A7000FAF7E8FE6085785D715DC000FAF7E2FE36
:105A80002085F8BD01206085FAE70000DE8400086B
:105A900010B5018D090707D501684A680123DB03AA
:105AA0009A43836B1A434A60018DC90707D0016886
:105AB0004A6801235B049A43C36A1A434A60018D12
:105AC000890707D501684A6801231B049A43036BC1
:105AD0001A434A60018D490707D501684A680123C6
