:020000040800F2
:10000000005300206102000825440008B5410008A3
:1000100000000000000000000000000000000000E0
:10002000000000000000000000000000DD4B0008A0
:100030000000000000000000E7010008F14D00088A
:100040007302000800000000730200087302000839
:1000500073020008730200087302000873020008AC
:10006000000000007D2600088D26000859260008A3
:100070007302000873020008730200080000000009
:1000800073020008854E000873020008730200081E
:10009000730200087302000873020008730200086C
:1000A000730200087302000873020008ED5600088E
:1000B0001D5800083158000800F002F800F068F8F8
:1000C0000CA030C8083824182D18A246671EAB466D
:1000D00054465D46AC4201D100F05AF87E460F3ED0
:1000E0000FCCB6460126334200D0FB1AA246AB46DF
:1000F000334318474479000064790000103A02D372
:1001000078C878C1FAD8520701D330C830C101D5B8
:1001100004680C60704700000023002400250026BE
:10012000103A01D378C1FBD8520700D330C100D5B3
:100130000B60704710B5662902D107F051FB10BD66
:10014000642902D100F00CF910BD782902D100F029
:100150003DF910BD632902D100F09EFE10BD732948
:1001600002D100F0A1FE10BD002010BD1FB500F0AF
:1001700071FF04000020002107F0B6FA401C606007
:100180000020002107F09AFAE0601FBD10B510BDF5
:1001900001F0B1FB1146FFF7E9FF05F01FFF01F089
:1001A00069FE03B4FFF7F2FF03BC01F0C7FE0000D5
:1001B000084B19680868203080F30988022080F312
:1001C0001488BFF36F8F3FBCAE4608BC04BC62B658
:1001D000184700002C000020EFF3108072B6704723
:1001E00080F310887047EFF309800E4B1A682038AF
:1001F0001060F0C044464D4656465F46F0C008B514
:1002000072B606F077FE62B60CBC11680868103052
:10021000F0C8A046A946B246BB4680F309882038FC
:10022000F0C818472C00002070B505460C4616464D
:1002300002E00FCC0FC5103E102EFAD2082E02D3CA
:1002400003CC03C5083E042E07D301CC01C5361FDD
:1002500003E021782970641C6D1C761EF9D270BDF4
:100260000748804707480047FEE7FEE7FEE7FEE74E
:10027000FEE7FEE704480549054A064B70470000C3
:10028000834E0008B90000080043002000530020FE
:10029000004B0020004B00200FB41CB5074B06AAF2
:1002A0007B4469460090059800F0D3FD0020694624
:1002B00000F0E2FD1CBC08BC04B01847D50B0000E0
:1002C00070B5044685690068C10601D5302600E096
:1002D0002026C00707D070BD62683046A1689047ED
:1002E000206A401C20626D1EF6D570BD70B50446B4
:1002F00085690078C00707D170BD6268A1682020B9
:100300009047206A401C20626D1EF6D570BD70B506
:100310000C460546012A05D02878800600D5EA69F2
:10032000002302E0012305E05B1C934202D2E05C63
:100330000028F9D1A869E618C01AA861286AC0186F
:1003400028622846FFF7BCFF04E06A682078A968A5
:10035000641C9047B442F8D32846FFF7C7FF70BD2E
:10036000F7B5002575291068009914A611D0C0466C
:10037000C046002802DA404211A608E00099096848
:100380008A0701D50FA602E0490704D50EA601256C
:1003900001E0C046C046009F0024243704E000F07E
:1003A00039FE30313955641C0028F8D12B463246CD
:1003B0002146009800F0E3FAFEBD000000000000B6
:1003C0002D0000002B0000002000000070B5044646
:1003D0000D4621461068C046C0462188090502D551
:1003E0000F4A7A4402E00E4A7A440E322346002134
:1003F000243305E006070009360F965D5E54491C5C
:100400000028F7D120780023000705D5702D03D0F0
:10041000002901D002231132204600F0B0FA70BD4D
:100420005A750000F3B50446002081B020622046D2
:10043000E1688847002872D0252802D06268A16848
:10044000ABE0594F00267F442046E16888472028CA
:10045000054608DB312D06D27819203800780028AF
:1004600001D00643F0E7B00701D504208643002001
:10047000E0610746A0612A2D0AD0284605F08AFBD4
:10048000002827D0B8000019303D0090856119E0A0
:100490000298BA00121902C8916102902046E168E0
:1004A0008847012F054617D1E06900281FDA202070
:1004B00086431CE000980A2180694843009940194E
:1004C000303888612046E1688847054605F062FBC0
:1004D0000028EFD1012F0AD02E2D08D12046E16847
:1004E00088470546202006437F1C022FC3DBA069F6
:1004F000002803DA4042A06101200643F00701D042
:10050000102086436C2D0BD0682D09D04C2D3CD08B
:100510006A2D38D0742D38D07A2D36D016E040E0D0
:10052000E1682F4620468847B842054609D16C2F1E
:1005300029D001208002E16806432046884705460D
:1005400004E06C2F1DD0FF2001300643002D28D081
:1005500028464138192803D80120C0020643203517
:10056000204626602946029A1646FFF7E3FD00283A
:1005700010D001280BD0F61DF008C0000830029002
:1005800055E74020E1E78020D5E70020D3E7361D7E
:1005900002964CE762682846A1689047206A401C92
:1005A00044E7206AFEBD00001E75000070B50646D7
:1005B00000F0D6F90468054630460A22002100F012
:1005C000CDFC2C6070BD000010B5024A00F0FEFCAE
:1005D00010BD0000A0000020401ECAB24178401C9F
:1005E0008A4202D00029F9D10020704730B5441C5E
:1005F00003E00178401C00290DD08107F9D10B4B95
:10060000DD0104C8D11A91432940FAD0001B0A0623
:1006100003D0C01E30BD001B30BD0A0401D0801EB7
:1006200030BD0902FCD0401E30BD000001010101B7
:100630000346F0B50B439B072DD1244DEF01042A4F
:1006400029D308C810C95E1B9E43121F3E4017D015
:10065000D8B2E1B2401A3106014310D198B2A1B22A
:10066000401A310401430AD118022102000A090A82
:10067000401A3102014302D1180E210E401AF0BD7A
:10068000A342DCD018BA21BA884201D90120F0BDBA
:100690000020C043F0BD002A01D10020F0BD037846
:1006A0000C78401C491C002B0DD0A3420BD1521ECC
:1006B00009D003780C78401C491C002B03D0A342BE
:1006C00001D1521EEBD1181BF0BD00000101010148
:1006D000F8B5042A2CD3830712D00B78491C037079
:1006E000401C521E83070BD00B78491C0370401C22
:1006F000521E830704D00B78491C0370401C521E05
:100700008B079B0F05D0C91ADF002023DE1B08C909
:100710000AE0FFF789FDF8BD1D4608C9FD401C46EB
:10072000B4402C4310C0121F042AF5D2F308C91A92
:10073000521EF0D40B78491C0370401C521EEAD4A0
:100740000B78491C0370401C012AE4D4097801701D
:10075000F8BD01E004C0091F0429FBD28B0701D5B5
:100760000280801CC90700D00270704700290BD09E
:10077000C30702D00270401C491E022904D383071C
:1007800002D50280801C891EE3E70022EEE70022EA
:10079000DFE70000F8B507460B46394619438907DD
:1007A00013D1164CE601042A0FD302CB0D1B8D4347
:1007B000354202D102C0121FF5E7CBB20370401CD4
:1007C000521E002B13D0090AF7E7002A14D019781B
:1007D000521E5B1C0170401C002908D0002A0BD05F
:1007E0001978521E5B1C0170401C0029EDD1002AB3
:1007F00002D01146FFF7C9FF3846F8BD01010101DB
:10080000002203098B422CD3030A8B4211D300230D
:100810009C464EE003460B433CD4002243088B42E7
:1008200031D303098B421CD3030A8B4201D3944674
:100830003FE0C3098B4201D3CB01C01A5241830967
:100840008B4201D38B01C01A524143098B4201D321
:100850004B01C01A524103098B4201D30B01C01A4C
:100860005241C3088B4201D3CB00C01A52418308C6
:100870008B4201D38B00C01A524143088B4201D3F3
:100880004B00C01A5241411A00D201465241104653
:1008900070475DE0CA0F00D04942031000D34042C8
:1008A000534000229C4603098B422DD3030A8B42FE
:1008B00012D3FC22890112BA030A8B420CD389019C
:1008C00092118B4208D3890192118B4204D3890182
:1008D0003AD0921100E08909C3098B4201D3CB01C0
:1008E000C01A524183098B4201D38B01C01A524175
:1008F00043098B4201D34B01C01A524103098B4279
:1009000001D30B01C01A5241C3088B4201D3CB0063
:10091000C01A524183088B4201D38B00C01A524146
:10092000D9D243088B4201D34B00C01A5241411A1D
:1009300000D20146634652415B10104601D340424B
:10094000002B00D54942704763465B1000D34042FC
:1009500001B50020C046C04602BD704770477047D1
:10096000004870479C42002010B5FFF7F9FF00686F
:1009700010BD10B50446FFF7F3FF046010BDFFB5CE
:1009800004460D4681B0243000902168880604D5C5
:100990001022E0699143216000E00120A84201DDBE
:1009A000471B00E000270498A1697A191018081A5B
:1009B000A0612078C00602D42046FFF781FC002603
:1009C00008E003986268A168805D9047206A401C37
:1009D000761C206204988642F3DB2078C0060AD594
:1009E0002046FFF76DFC06E06268A1683020904762
:1009F000206A401C206238467F1E0028F4DC07E095
:100A000000986268A168405D9047206A401C20629F
:100A100028466D1E0028F3DC2046FFF767FC20788F
:100A2000000602D5022005B0F0BD0120FBE7000062
:100A30007047FFB50C461E468FB003CA0890099157
:100A40004F007D0D00D16D1E002108460020C046DC
:100A50000321099A89050840002A03DA82008018D8
:100A600040080840800D01280A9002DD0020C043A4
:100A70000A90089807430DD0F048F14928184843D8
:100A80000714189800281DD07542291E1DDD0A98EC
:100A900042421BE01898012802D00020302104E0D7
:100AA0000020F24305E02154401CB042FBDB3046FD
:100AB0000022189B002121540F998B600A60486026
:100AC00013B0F0BDBD1B6D1CDFE70A9A002900DAE8
:100AD00069420BA800F0C2FB0BAB07CB03AB07C30B
:100AE0000899099800F026FC6B4607C30146D548D3
:100AF0000918002D00910BDDD24903980A9A49424A
:100B00004018002303A90390684600F083FE08E024
:100B100003990A9A0023081803A90390684600F075
:100B200023FE6B4607C30004000C03D00020C04323
:100B3000410800E01046189A002A03D000220092D3
:100B400015461EE0751E05D400F088FA3032625555
:100B50006D1EF9D501220843079602D000227F1CA2
:100B600004E02078302801D100227F1E002A069759
:100B700087D01EE0112D07DA00F070FA303262558E
:100B80006D1C02460A43F5D1084303D000980028A3
:100B900019D00EE00021681E05E0235C625C6354FE
:100BA0002254401E491C8142F7DBA81B401E0795BA
:100BB0000690079A18990020A0540F98079B069A50
:100BC00081600CC07CE711260020189059E7D21DE7
:100BD000F0B50D460446D10893B0C90003C90C9086
:100BE0000D9104F015FF02460D98C00F01D02D2085
:100BF00007E02068810701D52B2002E04007C00FE5
:100C00004001032A0F9001D0072A05DB034629463D
:100C1000204600F069FA0EE12078800601D5E769E8
:100C200000E006272846652D04D0662814D0672DDD
:100C300069D12DE00020112F009001DB112300E08D
:100C40007B1C0CAA03A910A8FFF7F3FE119900263C
:100C500010987D1C0E9142E001203B460CAAC00773
:100C60000B900120009003A910A8FFF7E2FE119D50
:100C700012981099002600280E9501D1781C0D18A5
:100C8000781B02D446427D1C761EE81B00903AE099
:100C9000012F00DA01270020112F009001DD112320
:100CA00000E03B460CAA03A910A8FFF7C2FE119969
:100CB0003D46109800260E91217809070BD40E9915
:100CC000A94200DA0D4603A9012D04DD4A19203A94
:100CD000D27F302A06D0B84201DA011D04DA0121A0
:100CE00000910FE06D1EEFE7002802DC86192D1A37
:100CF00003E0411CA94200DD0D46801B401C009012
:100D00000120C0070B902078000705D40098A84266
:100D100002DB0020C043009069460020C8720B9897
:100D2000012102AF0337C907884225D00220109065
:100D30002B2011900B9800280BDA40420B902D20AD
:100D4000119006E00B9800F065F930317F1E0B9092
:100D500039701099481E00291090F3DC0B98002878
:100D6000F0D111987F1E38702088000501D54520EC
:100D700000E065207F1E387001A8C01BC01D0B90CD
:100D80000F98002800D0012041190098C0170918B9
:100D90000B980818A169081A401EA0612078C006A7
:100DA00002D42046FFF78CFA0F98002805D062681D
:100DB000A1689047206A401C20622078C00625D593
:100DC0002046FFF77DFA21E0002E07DB0E98B042A7
:100DD00004DD03A86268805DA16802E06268A16822
:100DE00030209047206A761C401C20620098401EEC
:100DF000002800900AD100F02DF9C06862680168EF
:100E0000405CA1689047206A401C206228466D1E05
:100E10000028D9DC07E062683878A1687F1C904719
:100E2000206A401C20620B99481E00290B90F2DCBE
:100E30002046FFF75BFA032042E6000001FCFFFFBB
:100E4000104D0000E1DFFFFF01694A1C02610878D4
:100E5000704700B58FB002910021059105490193BB
:100E600079440391114604906846FFF7DBFA0FB00E
:100E700000BD0000E5FFFFFF0A681070521C0A6009
:100E8000704710B54369002B02D0C046C04601E050
:100E9000FFF73DFA012010BD1278014624310A7097
:100EA00000224A700122ECE711680022D243E8E7F1
:100EB0000FB4002300B589B00CA900910B99CB6049
:100EC000224B7B44224A7A440792042206930192E1
:100ED000204A0292204A7A446B4608920246002039
:100EE00006F086FC09B008BC04B0184770B5064689
:100EF00015460C46324686B00020C04301900020C3
:100F0000049004A8009102916946FFF7D1FF0246C0
:100F100004982118002D05D0002801D0084600E0D3
:100F200020462860049800280DD0002A02DD009891
:100F3000884208D03246081B6946019004A80094F4
:100F40000294FFF7B5FF06B070BD0000AB020000D1
:100F5000C7020000FFFFFF7FFD010000F7B50F464D
:100F60000026009C2578641C002D05D000F06AF84E
:100F70000068405DC007F5D12B2D02D02D2D18D073
:100F8000641E3946029A204600F014F9002F04D05E
:100F90003968A14201D10099396071050224002904
:100FA0000BDA4042002803DDFFF7DAFC0460A007FB
:100FB000FEBD012080020643E3E70028F8DAFFF7D0
:100FC000CFFC04600048FEBDFFFFFF7FF8B515466B
:100FD0000E46040003D12C68002C00D10CA420463E
:100FE00000F079FC0419207800280ED027463146FD
:100FF000384600F05FFC04192078002802D0002059
:101000002070641C38462C60F8BD0027FAE7000009
:101010000000000001468008081A02091018020AA0
:101020001018020C1018C008820012185200891AF9
:1010300001E0401C0A390A29FBD27047004870477A
:101040009C42002010B500F005F8001D10BD00BF47
:101050009966000000487047BC4200200B4670B5FE
:10106000024689078008084319469D08141AA941B9
:1010700025090807054308092C194841250A0106D6
:101080000D43010A2C194141200C0D0428430D0C7D
:1010900000194D41002140194D41C008690708431E
:1010A000E908840F8D002543840024184D4124193C
:1010B0006D41121BAB4107E00925ED432C1152197C
:1010C00063410024401C61411C460A250026551B33
:1010D000B441F1D270BD10B50446FFF7B3FF00680C
:1010E000005DC007C00F10BDF8B51F4604460123C0
:1010F0000068DB02032601461840072A05DB0028AA
:1011000001D017A506E017A504E0002801D016A518
:1011100000E016A5102081432160A069C01E002FA9
:10112000A06101D0401EA0612046FFF7C9F8002F42
:1011300009D038466268A1689047206A401C206246
:10114000C01C206206E0206AFAE762682878A1687D
:101150006D1C9047761EF8D22046FFF7C7F8F8BD01
:101160004E414E006E616E00494E4600696E66004B
:101170004268002A08D001680B78491C002B03D074
:10118000521E06C0184670470121C160881E704774
:101190004268002A0BD0C3680168002B07D183681E
:1011A0008B4204D0491E521C06C00020704700200C
:1011B000C0437047F7B5154682B00027029C2078DF
:1011C000641C0197302802D0002D15D015E020783E
:1011D0000127641C782804D0582802D0002D09D09B
:1011E0000BE0002D01D0102D07D12078002710250D
:1011F000641C02E0082500E00A250026009610E0A5
:10120000009901276943081829467143020C80B2EE
:1012100000908E183804864201D301200190207876
:10122000641C294600F086FB0028E9DA03980028B0
:1012300005D0002F01D0641E00E0029C04600198DC
:10124000002806D0FFF78CFB02210160C81E05B004
:10125000F0BD009930040843F9E70000F7B51646E1
:101260008AB0334878446C4603467C33C06F5A6872
:101270009B680DC42E487844763003AC0DC80DC46D
:101280003720C001081837211B30FFF7C3FA054685
:101290000C46803D1B3C02D56442012000E000204A
:1012A0000027099010E0E0070CD00C20204978437B
:1012B000794432464C3941186846012300F054FA0B
:1012C0006B4607C364107F1C002CECD1184F7F4481
:1012D0002E3F16E0E80712D02001C0190EC8069173
:1012E000089307920068F04201D19819089032469D
:1012F000012306A903A800F037FA03AB07C36D105A
:10130000641C002DE6D10998002806D032466946B3
:10131000012303A800F07EFA05E001233246694666
:1013200003A800F021FA0A9B07C30DB0F0BD00002E
:1013300014670000034640000A4610B5400D0BD06C
:101340000121C9070F24A40200191C0364082143CA
:10135000540D2143D20207E000210120F2E7D40F0F
:10136000490021435200401E0029F8DADB0FDB0759
:10137000184310BDFFB50D46144685B04868516846
:1013800004F020FB00910190A868A16804F01AFB0A
:1013900002910390A868616804F014FB029A121885
:1013A0008242029201D2012000E00020019A0B1833
:1013B000D2180028019202D08A4202D903E08A4260
:1013C00001D2012000E00020009908180090686810
:1013D000A16804F0F7FA029A12188242029201D22E
:1013E000012000E00020019A0B18D2180028019279
:1013F00002D08A4202D903E08A4201D2012000E0F1
:1014000000200099081800902868216840004900D1
:10141000400849084018FA49471814E0019940006B
:10142000C90F08430090019802994000C90F084372
:101430000190029803994000C90F08430290039855
:1014400040007F1E039000980028E7DA08980028E3
:1014500001D0EC4E00E00026B74201DA012000E0A6
:101460000020002804902AD0F71BF806C00E15D0E3
:10147000029B2021091A039A8B401A430392029A75
:10148000019BC2408B401A430292019A009BC240CA
:101490008B4000991A430192C14000917B110DD0FD
:1014A0006F460320C11A03D500218200B95003E022
:1014B0008A008100BA587A50401EF3D53746039807
:1014C0000299002800D001200143089802910028C9
:1014D00008460CD0002800D001200199019A490546
:1014E00008430121D20AC902D202019200E001217F
:1014F0000E9B0122D207012B02D0002B03D013E058
:10150000002807D120E0904204D890420CD1019BE2
:101510000B4209D0019B5918019105D10099491C32
:10152000009101D17F1C009200280DD010210846A7
:101530000020C0460498002806D00F98002803D049
:10154000082108460020C04628682168019B009AAF
:101550004840C10F0598C90739430EC009B0F0BD16
:10156000FFB587B0099A089808995368926840684F
:10157000896896460022039317469446089A126893
:101580005300099A5B081268520052089A1A9E4B3F
:10159000D4180A9A002A01D0352200E0402206928F
:1015A0000022012315460492DB07059324E0002D59
:1015B00005D175460346039E4D1BB34109D37546BD
:1015C0006646039B491B049D9841059B7519AC46D3
:1015D0005F4163463B4308D0059B049EDD077608C8
:1015E0002E435B080496059301E0521E641EC50F4E
:1015F000ED0749184041521C069B9A42D7DB002D4B
:1016000004D17546039A6B1A824101D203200CE083
:10161000039A0B466B404240134303D0014303D06F
:10162000012002E0022000E000206146019100213B
:10163000009702910A99002905D0614640020143B2
:10164000704B019102E08007002302909C4201DA76
:10165000012000E0002007003AD01A1BD006C00E7F
:1016600015D0029D2021019C091AC5408C402543BC
:10167000029C8C4000D001242543019C0295009DD2
:10168000C4408D4000992C430194C14000915411F5
:101690001DD06D460221002202290CD10320001B1F
:1016A00007E0002804DB8600AE59002E00D001229E
:1016B000401C0328F5DB081B02D588002A5004E0F3
:1016C0008000285810438A00A850491EE3D51C46C4
:1016D0000A98002802980CD0002800D00120019917
:1016E000019A490508430121D20AC902D202019296
:1016F00000E00121109B0122D207012B02D0002B18
:1017000003D013E0002807D11FE0904204D8904294
:101710000CD1019B0B4209D0019B5918019105D1B5
:101720000099491C009101D1641C009200280CD042
:10173000102108460020C046002F06D0119800282E
:1017400003D0082108460020C04608980999019A4C
:10175000009B006809684840C10F0798C9072143EA
:1017600082600AC00BB0F0BD00B585B00193009255
:101770000A460146002302A8FFF7FCFD02A807C89D
:1017800005B000BDFFB50A461F4685B00799019315
:1017900001230091014602A8FFF7ECFD029903988E
:1017A000049ECA0F4900D20700920F2249089202F4
:1017B0008C1A0021002800DB0C46450013486D08F8
:1017C000844214D3079A002A04DA441E0026104DDE
:1017D000F64302E004460D460E461021084600205E
:1017E000C046002F03D0042108460020C046200533
:1017F000E90A0843009908436905F20A1143ADE676
:1018000002C0FFFF013C0000FF3F0000FF07000097
:10181000FFFFFF7F00B585B0019300920A460146A5
:10182000002302A8FFF79CFE02A807C8A8E7FFB59F
:101830000A461F4685B0079901930123009101468E
:1018400002A8FFF78DFE02990398049ECA0F490073
:10185000D20700920F22490892028C1A0021002818
:1018600000DB0C46450011486D08844214D3079AEA
:10187000002A04DA441E00260D4DF64302E0044619
:101880000D460E46102108460020C046002F03D00A
:10189000042108460020C0462005E90A08430099B3
:1018A00008436905F20A114358E60000FF070000EB
:1018B000FFFFFF7F30B503461D78002D03D00A4699
:1018C00003E0AC4201D1181A30BD1478521C002C30
:1018D000F7D15B1CF0E730B503461D78002D08D02A
:1018E0000A461478521C002C03D0AC42F9D15B1C80
:1018F000F3E7181A30BD7546FFF7A0FBAE460500AA
:1019000069465346C008C000854618B020B5FEF7AA
:10191000B1FC60BC00274908B6460026C0C5C0C55A
:10192000C0C5C0C5C0C5C0C5C0C5C0C5403D4900D3
:101930008D4670473A2800D23038202302469A4319
:10194000412A01D310463738884201D30020C043D2
:1019500070470000FFB58BB00878FF2806D0491CFF
:101960002D2805D000230020009009E000200EE083
:101970000123F8E7009A0A2462438018491C00906A
:101980000878FF28F6D1002B02D000984042009042
:10199000002503952C460D9800782D2801D02B2882
:1019A00015D10D99491C2D280D9102D000200390CE
:1019B0000DE00120FBE7401C214600270A223B46A0
:1019C0000D90284600F0A2FA35183C464C410D987F
:1019D0000678FF2EEFD1002108460020C04603996B
:1019E000002902D08100401840080002860F012E15
:1019F00001DD0026F6430E9900984718284620433B
:101A00000BD0FF20F530C7421ADA0398C1070B98B4
:101A1000002E41600ADD012009E00398C1070B9800
:101A200041600B99002008600FB0F0BD00200B99B9
:101A30000860FEF795FF02210160182108461AE0B0
:101A4000FF20F530874219DD002E02DAFC48784489
:101A500001E0FC48784406C80B9806C00B9803992F
:101A60004068C90708430B994860FEF779FF0221D7
:101A70000160142108460020C046D5E70021084631
:101A80000020C04639000A9001D5724200E032467B
:101A9000002900DA794207A8FFF7E0FB07AB07CB84
:101AA00004AB07C3E848009000200146214304D15D
:101AB0002C460546E44920390091210C09040143D4
:101AC00006D1290C24040C4300992D0410390091EF
:101AD000210E0906014306D1290E24020C43009968
:101AE0002D0208390091210F0907014306D1290F62
:101AF00024010C4300992D01091F0091A10F8907B2
:101B0000014306D1A90FA4000C430099AD00891E22
:101B10000091E10FC907084304D100986D19644191
:101B2000401E0090002F0295019406DD3246684663
:101B3000012304A9FFF726FE05E00123324668468B
:101B400004A9FFF774FE044603980D46002802D04E
:101B50000120C0074440002108460020C0460A99E1
:101B6000BA4E48400007800F07D160004008284364
:101B700003D06000400DB04214D1FEF7F1FE022107
:101B800001606000400DB0420CD1B148784406C8F5
:101B90000B9806C00B98E10FC907406808430B99E2
:101BA000486041E70B9844600B9805603CE7FFB53F
:101BB0001F4695B0002000250C909E685C68ED43A0
:101BC0001390FFF747FAC0680168405C1490B96948
:101BD00016986D1C88470A90396A88470028F6D104
:101BE0000A98401C0AD00D20C0018443002E12DD4B
:101BF0000A982B2809D02D280DD103E00020C043DE
:101C000019B0F0BD012080020443B96916986D1C1B
:101C10008847761E0A90600504A901D52D2000E0B2
:101C20002B206A46491C107410A8002E0D910B90B1
:101C30003BDD0A98692805D0492803D06E2801D0D9
:101C40004E281DD13B46039002200296179A169902
:101C5000C0430095019405F0DBFDC11CD0D10FE01D
:101C6000B96916986D1C88470A900120761E4002BB
:101C70000443179805601398401C002E139014DD40
:101C80000A983028ECD0782801D058280DD1139824
:101C900001280AD13B460296179A1699001F009513
:101CA000019405F0ADFDC11CAAD114990A9888428F
:101CB00046D18020044308E00C981799401E0C90F0
:101CC000012040020443681C0860B9696D1C169825
:101CD000761E884730280A90EED031E01499884269
:101CE00005D1200603D480200443761E1EE00A9806
:101CF00003F050FF002826D0012008A94002044329
:101D00000D980331761E88420BD20A980D9930380F
:101D100008700D98401C0D90200607D50C98401EA9
:101D200003E0200602D40C98401C0C90A00502D5BC
:101D30001799681C0860B96916986D1C88470A9045
:101D4000002ECBDC59E0002E57DD0A98652801D023
:101D5000452852D1A00550D50320B969000284431B
:101D60006D1C1698761E8847002E0A900CDD2B28D5
:101D700004D02D2808D1FF2001300443B9691698FA
:101D80006D1C8847761E0A90E00501D52D2100E0E4
:101D90002B210B9801700B98401C0B90009025E0B4
:101DA000012012A9400204430B980131761E88429B
:101DB0000ED20A980B9930380006000E087003D135
:101DC00000990B9888420AD90B98401C0B9006E0AA
:101DD000E00501D51F4801E01E4840420C90B9695A
:101DE00016986D1C88470A9017980560002E04DD30
:101DF0000A9803F0CFFE0028D2D1F96916988847D7
:101E00000D99FF2004AA08700B99087000200E900D
:101E10000F900C9B10A90EA8FFF79CFDA00502D403
:101E20000120C043ECE62420044215D0E0071FD176
:101E300038680F9A0E99031D3B60006806C017E0D2
:101E40000E600000006000003E400000FF07000040
:101E5000C85E0000F1D8FFFF0EA9684603F024FE1B
:101E6000E00705D13868009A011D396000680260FA
:101E70002846C5E610B50446C046C0462046FEF7D3
:101E800090F910BD024670B50A4392072AD11E4D43
:101E9000EE0104C808C9541B9443344017D0D0B293
:101EA000D9B2401A2106014310D190B299B2401A1A
:101EB000210401430AD110021902000A090A401A3A
:101EC0002102014302D1100E190E401A70BD9A4230
:101ED000DFD010BA19BA884201D9012070BD0020A4
:101EE000C04370BD02780B78401C491C002A09D001
:101EF0009A4207D102780B78401C491C002A01D075
:101F00009A42EFD0D01A70BD010101014343514301
:101F100030B55C18010C130C0D4692B25D4380B2D3
:101F200051432C19054655430A0C09044D196241C9
:101F30005843010C00044019514130BD014918209B
:101F4000ABBEFEE726000200FFB51F4689B013981E
:101F500012994005C00FC007059000200790054664
:101F60000446461E049002903C20491C12910690A3
:101F7000B9690A98884703901498401E14901498E1
:101F8000002841DD03982E2816D01021FFF7D2FC3F
:101F9000002834DB01210491079901431AD00699E6
:101FA00000290CDB069AC11700F045FA0543069894
:101FB0000C43001F069006E0012002900EE000286E
:101FC00001D001200543012007900298002805D187
:101FD000361D03E00298002800D0361F1298401CDE
:101FE0001290B9690A98884703901498401E14907B
:101FF00004980028C3D00B9912980860BFE7039893
:10200000702808D0502806D0F9690A9888470498A3
:10201000002815D051E00020039001200290049880
:1020200000280AD01298401C1290B9690A98884773
:102030001499491E0029149106DCF9690A98884709
:102040000120C0430DB0F0BD2B2804D02D280DD1A8
:102050000020C04302901298401C1290B9690A985F
:1020600088471499491E00291491E6DD411CE4D0EB
:102070000A21FFF75FFC0028DFDB03990A225143A6
:10208000081803901298401C1290B9690A98884762
:102090000A21FFF74FFC14990B9A491E14911299CB
:1020A00011601499002901DD0028E6DAF9690A981F
:1020B00088470299039848438619139824210840B9
:1020C00004902846204304D0A10F8907090002D0BC
:1020D00006E005989BE0A90FA4000C43AD00B61ED6
:1020E000E10FC907080002D16D196441761E0498FA
:1020F000002803D00B2002905D4803E028200290C6
:102100007D20C0438642039007DA811B029808189D
:102110004128029001DD41200290029A0120002115
:10212000521E00F088F9024628400B462140084321
:1021300001D0012000E0002007900020521EC04383
:1021400043412A4023401A4301D0012000E00020EF
:1021500007990690014352D0002108460020C0464E
:102160000321059A89050840002A05D082008018BD
:10217000C20F1018401008408015012802DD002011
:10218000C04301E0012815D0401C38D00798002832
:1021900035D0069800280DD1029A0120002100F0C8
:1021A0004AF928402140084301D0012000E00020E6
:1021B000002824D0029A0120002100F03CF90346B7
:1021C00040198C4661412A1A8C410FD3029840284D
:1021D00007DD0498039E002801D0343E02E0173E3C
:1021E00000E0761C01240025E40708E05B1E62463F
:1021F0000024E4436241DD43D44305400C4003988E
:102200000121081AB04206DA1A49059808430190DC
:10221000002000900EE060006205010BE80A104308
:10222000059A009068460A4313490A4331460192D1
:1022300003F0A6FC049800280AD01398C00714D114
:102240003868019A0099031D3B60006806C00CE0E5
:1022500002A8694603F028FC1398C00705D1386826
:10226000029A011D3960006802601298EAE60000D7
:1022700002FCFFFF0000F07F0000F03FFFB51D46AD
:1022800087B01198484A109C129E40051399C00FC0
:10229000761EC0070243019200220092FF22D2055F
:1022A0001043202291434929059003D017464E2917
:1022B00028D04FE03DA002AA0BC801270BC2A96994
:1022C0000898641C8847761E014607D402A8C05DA2
:1022D000002803D02022914381420AD0E96908985E
:1022E0008847032F36D0082F34D00120C0430BB0CD
:1022F000F0BD7F1C032F01D0082FE0D10999601C8D
:102300000860DCE7A9690898641C8847761E2DD40C
:10231000B84341282AD1A9690898641C8847761EC9
:1023200024D4B8434E2821D1A9690898641C884751
:1023300001990122D204114301910599D200114360
:1023400005910999761E0C6001D4282806D0E96908
:10235000089888471198C00712D023E0A969089807
:10236000641C8847761E01D4002803DAE9690898BE
:102370008847BAE72928F1D10998641C0460E9E785
:1023800011982421084207D02868019A0099031D5A
:102390002B60006806C005E028680599021D2A60C8
:1023A000006801602046A2E70000F07F494E4649E0
:1023B0004E495459000000000246C80FC00781432F
:1023C0004B0030B54B405B009B0D20D01923DB0642
:1023D000C91801231B05994220DB0324A407042507
:1023E0001346AB400BD3002B04D1EB0613409B00EC
:1023F000E34204D401246407002312195941FF2346
:102400001B0599420BD2C9000143500F09E0CB02D2
:1024100004D501430803024305D0054830BDFF2120
:10242000C905084330BD084607210905884330BD6A
:102430000000C07F704710B5202A04DB0146203A17
:102440009140002010BD914020239C1A0346E34098
:102450001943904010BD0000F8B5224C4E00069D77
:10246000A6420AD8A64201D1002806D15E00A642A3
:1024700003D8A6420AD1002A08D00D2424042542FC
:102480002CD02946002000F05FF8F8BD0C461C4314
:102490000CD4994202D0EFF30080F8BD904202D0F4
:1024A000EFF30080F8BDEFF30080F8BD09242407A6
:1024B000E5008B4206D0EFF30080A043591A06D204
:1024C000284304E0101A05D3EFF30080A04380F303
:1024D0000088F8BDEFF30080A043F1E7009500F01D
:1024E0004BF8F8BD0000E0FF70B505464800440D0C
:1024F000124B0020002C0AD0634008D09A4206DA22
:102500006642B24203DD12054019514170BD002CF4
:1025100008D0002B09D0C90FC907002AF6DB084AEA
:10252000114370BDC90FC90770BD28460A03104387
:1025300002D00020034970BD284670BDFF0700008F
:102540000000F07F0000F87FC80212D54803400F5A
:10255000002804D0C803C043012188407047EFF32E
:1025600000800001000903210907084380F3008867
:10257000704700207047000010B500200249029A01
:1025800000F004F810BD00000000F87F10B50C4604
:102590001107090F092904D00A290AD008290CD1EA
:1025A00004E011460820FFF7CFFF06E0510606D5EC
:1025B00001E0510601D50120C007214610BDD1061A
:1025C00007D501010909CC084907000E000604439C
:1025D00009E0410F20024907000A0143200E0006CE
:1025E0001D22D14101430846E7E7000010B504F081
:1025F0006DFB1349002008707D24E40023460C2263
:1026000010A1144801F016FD23460C220DA111481B
:1026100001F010FD23460C220AA10E4801F00AFD2C
:1026200023460C2207A10B4801F004FD23460C228F
:1026300004A1084801F0FEFC04F054FB10BD0000AA
:102640001900002041542A4753544154453F0D0A74
:10265000000000003801002010B5054800F05AF9CC
:10266000044800F057F9044800F054F910BD000088
:1026700074030020D00300202C04002010B5024871
:1026800000F048F910BD00006002002010B50348BA
:1026900000F040F9024800F03DF910BDBC020020F6
:1026A0001803002010B50446006C0949800880001A
:1026B00040186064207814210838FEF7A1F8044916
:1026C0008031A164C106C90E01208840E06410BDBC
:1026D000000802400179084B8906890E8A00D21849
:1026E0000265054A4432491E42658A07920F01215C
:1026F0009140816570470000FC080240F0B5846C91
:10270000C56C6560046D002C02D0446D856D6560FC
:102710000B4C6568066C1C273E400127B7403D43C3
:102720006560046863608368102B036803D0996058
:102730000068C260F0BD9A600068C160F0BD000032
:102740000000024072B6FEE7044A5069044BC9001B
:102750001840014303480143516170470020024083
:1027600007E0FFFF0200010030B505494C69012573
:102770002C434C610260BFF36F8F436030BD00009B
:102780000020024030B50B4C002362690125AD04E6
:102790002A436261EFF3108272B620C95B1C20C02D
:1027A000DBB2402BF9D32069C003FCD482F310883C
:1027B00030BD000000200240F8B5044600F0C4FA25
:1027C000012706463F04124D06E0601C04D000F0CD
:1027D000BBFA801BA04213D228693842F5D1286980
:1027E0000C4908400C4929610CD00C494860012073
:1027F000F8BD601C06D000F0A7FA801BA04201D3F0
:102800000320F8BD28694003F3D40020F8BD000080
:1028100000200240FA830000FB830000280F002004
:10282000F0B5002808D0014620314A79022A05D0A7
:102830000422C263002008710120F0BD0268136801
:102840000E24A3431360426C1468FF2301339C439E
:102850001460026814686408640014600C4A5568C7
:10286000066C1C24264001242746B7403D43556092
:10287000826CC56C5560026D002A05D015689D43B9
:102880001560826D406D42604C7100200871F0BD92
:1028900000000240F8B50024024620325179022996
:1028A00003D00421C16301242DE001680B680E25CB
:1028B000AB430B6001680B685B085B000B60416C0D
:1028C0000B68FF250135AB430B6010494D68066C62
:1028D0001C231E4001231F46B7403D434D60816CC1
:1028E000C56C4D60016D002906D00E681D02AE4317
:1028F0000E60416D856D4D60537100211171816BCA
:10290000002900D088472046F8BD000000000240A2
:10291000C06B7047F0B42C490C6802681368056CF2
:102920001C273D400426AE40264211D05E070FD53D
:1029300013689B0603D4146804239C4314604B68FB
:10294000046C04223C40A24013434B60016B1CE02A
:102950000227AF40064627402036002F19D09F0798
:1029600017D513689B0605D413680A24A343136084
:10297000012272714B68046C1C2214400222A24096
:1029800013434B6000213171C16A00291AD0F0BC99
:1029900008470827AF40274214D01B0712D51368F9
:1029A0000E24A34313604B68046C1C2214400122C4
:1029B0001546A5402B434B60C263727100213171F3
:1029C000416BE2E7F0BC70470000024070B50400C4
:1029D0003FD02548256814212818FDF711FF8000F5
:1029E0002064022026462036707128681F4908405E
:1029F0002860E168A06862690843216911430843BF
:102A0000A1690843E1690843216A084321680A680B
:102A1000104308602046FFF745FE0121A0688903A6
:102A20000025884200D165602079616C8006800EA7
:102A30000860A06CE16C41606068401E03280AD801
:102A40002046FFF747FE206D0560606DA16D416077
:102A500004E0012070BD25656565A565E56301207D
:102A600070713571002070BDF8FFFDBF0F80FFFF52
:102A7000F8B504468C4620300179002501290BD099
:102A80000126067141790027012907D08021E163E1
:102A9000077101252846F8BD0220F8BD02214171C9
:102AA000E7632068016849084900016061462046E3
:102AB000FFF724FE206B00282068016801D00E2259
:102AC00005E0042291430160206801680A22114355
:102AD0000160606C0168CA03074902D502680A43B5
:102AE0000260206D002802D002680A43026020685C
:102AF000016831430160CDE70001000070B5044674
:102B000000F022F90546601C02D004480078241821
:102B100000F01AF9401BA042FAD370BD1C0000203F
:102B200010B57D200124C000FFF746FE054841692D
:102B30008204114341614069002800DA00242046E4
:102B400010BD000000200240F0B51FB4144C064632
:102B50002078154601280AD00120207000277D200A
:102B6000C0006760FFF728FE002803D010E00220B5
:102B700005B0F0BD012E0DD029460198FFF702FEE9
:102B80007D20C000FFF718FE06494A69B2434A613A
:102B90002770EDE72A46039B0198FFF7E5FDEFE775
:102BA000280F002000200240064900204A69002A20
:102BB00007DA054A8A60054A8A604969002900DA0D
:102BC000012070470020024023016745AB89EFCD0B
:102BD000F0B5002303249AE02A4601259D402A40AF
:102BE0007ED00E79B607B60F012E01D0022E16D177
:102BF00086682746B4465E00B646B7406646BE4382
:102C0000B446CF687646B740664637438760466825
:102C1000AE430D79ED06ED0F9D40354345600D79CE
:102C2000ED43AD0708D0C5685F002646BE40B543FA
:102C30008E68BE402E43C6600D79AD07AD0F022DE4
:102C40000ED1DD08AD002D18AC462D6A5E07F60EDC
:102C50000F27B740BD430F69B7402F4365462F622A
:102C600005685F002646BE40B5430E79B607B60F2D
:102C7000BE402E4306604D68AD03AD0F46D09E08A2
:102C8000264DB6007519AC462D6E9E07F60E0F2721
:102C9000B740BD4305273F07B84201D100270FE0E9
:102CA0001F4FB84201D101270AE01E4FB84201D19F
:102CB000022705E01C4FB84201D1032700E0052799
:102CC000B7402F43154D664637662D684E689543CD
:102CD000F60200D51543114F3D607D68954300E035
:102CE00014E04E68B60200D515437D600B4D80356B
:102CF0006E684F689643BF0300D516436E602E681A
:102D00004F689643FF0300D516432E605B1C0A688C
:102D10001546DA4000D05FE7F0BD00000018024021
:102D20000004005000080050000C00504269134697
:102D30000B401B0491430B4383617047002A01D071
:102D40008161704781627047014880687047000068
:102D50001C00002002488168027889188160704751
:102D60001C00002010B5084800240168821511439A
:102D70000160032000F00AF8002801D0012401E0DE
:102D800000F052F8204610BD0020024030B5054644
:102D90001F4887B0C26B10210A43C263C06B084052
:102DA000009005A901A800F0FDF90498002815D0AD
:102DB00000F014FA40001749FDF722FD411E1748A4
:102DC000154A0260164AC2604160002101618160BB
:102DD000816100F056FC040003D015E000F0FEF91C
:102DE000E9E70E4800F074FC04000DD1112000F05A
:102DF00039F8042D07D200222946112000F03EF8B0
:102E00000848056000E00124204607B030BD0000FE
:102E10000010024040420F000010004088040020D3
:102E2000E70300002000002008B50D4801680122DA
:102E30001143016000681040009009484038C26B9F
:102E400001040A43C263C06B0022084003210090C2
:102E5000481F00F013F80320400200F005FC08BDF5
:102E600040100240002805DBC106C90E0120884041
:102E7000014908607047000000E100E010B502F071
:102E8000DDFD10BDBFF34F8F04490348C860BFF399
:102E90004F8F00BFFDE700000400FA0500ED00E0E1
:102EA00010B50F4C21680322520291430143216067
:102EB000C11FFF39FA390ED10A480621006848437C
:102EC0000949FDF79DFC401C02E0002805D0401E8A
:102ED00061694905F9D4002010BD032010BD000030
:102EE000007000402800002040420F00F8B5044662
:102EF00000680026524D800358D5514800274038BD
:102F0000C06BC00009D44E484038C26B01040A436C
:102F1000C263C06B0840012700904A4801688215CF
:102F200011430160FFF710FF009005E0FFF70CFF71
:102F30000099401A022825D842480068C005F5D5F6
:102F4000E8690321090208400FD0A16981420CD031
:102F5000E86903210902EA698843012109040A4357
:102F6000EA61EA698A43EA61E861C0070FD0FFF7C6
:102F7000EBFE009008E0FFF7E7FE0099411A3248A7
:102F8000814201D9032609E0E8698007F3D5E869A1
:102F9000032109028843A1690843E861002F05D095
:102FA00027484038C16B02049143C1632078C007B1
:102FB00005D06869616880088000084368612078EE
:102FC000800705D568690C218843A16808436861BA
:102FD0002078800606D56869032109038843E168E3
:102FE000084368612088400411D5686961698000E0
:102FF000800808436861012160698907884206D119
:103000000F484038C168012212041143C160208872
:10301000000512D5686903218903884321690843A3
:103020006861012120698903884206D1044840383B
:10303000C168012212041143C1603046F8BD00008E
:10304000401002400070004088130000F8B50F46A1
:10305000060043D04D4D28684007400FB84213D2B8
:103060002868C008C00038432860FFF76DFE04469A
:1030700005E0FFF769FE011B4548814261D82868D9
:103080004007400FB842F4D13068424C81070DD55B
:10309000400704D5A068072109030843A060A06881
:1030A0000F2109028843B1680843A0603078C00747
:1030B00032D0706801280AD002280BD000280FD027
:1030C0003449403103280ED0C969890704E02168DA
:1030D000890301E021688901002906DB0120F8BD90
:1030E00021684905F8E7096AEFE7A168C908C9003E
:1030F0000143A160FFF728FE009006E0FFF724FEE1
:103100000099411A224881421BD8A0683821084002
:103110007168C9008842F1D128684007400FB84261
:1031200017D91A480168C908C90039430160FFF777
:103130000BFE054607E0FFF707FE411B14488142DE
:1031400001D90320F8BD114800684007400FB8427C
:10315000F1D13078400706D5A068072109038843DC
:10316000F1680843A06000F04DF8A1683C2289098D
:103170001140094A515CC906C90EC8400749086098
:1031800007480068FFF702FEF8BD0000002002407B
:103190008813000000100240E0780008280000209A
:1031A0002000002010B5072202600A4A93685B07DE
:1031B0005B0F436093680F2424022340836092686E
:1031C00007231B031A40C260034800684007400FF2
:1031D000086010BD00100240002002400648074968
:1031E00000688968064A4904490F8900515CC9068C
:1031F000C90EC8407047000028000020001002409F
:103200002079000810B5204CA068204A8006400FA5
:1032100016D0A0688006410F501001290FD0A16878
:103220008906490F022912D0A0688006400F0428A1
:1032300023D0A0688006400F032821D0002010BDB5
:10324000206801218004400F8140104612E0E168AF
:103250008B07E1689B0F4906490F491C032B00D0DF
:103260001046FDF7CDFAE1684904490E4843E1688C
:10327000490F491CFDF7C4FA10BD0120C00310BD61
:103280007D20000210BD0000001002400024F40068
:10329000F8B504007ED020783827C007E94D002813
:1032A00046D0A868E96838408907890F102802D0FD
:1032B00008280BD001E0032908D00120626800042F
:1032C00082420AD129680143296015E028688003F9
:1032D0002ED560680028DDD02AE0052301211B04DB
:1032E00089049A422A6802D10A432A60EAE78243A3
:1032F0002A60286888432860606800280CD0FFF79F
:1033000023FD064604E0FFF71FFD801B642873D8E9
:1033100028688003F7D50BE0FFF716FD064604E0AA
:10332000FFF712FD801B6428F1D828688003F7D4CA
:103330002078800769D5A868E96838408A0707219E
:10334000920FC902102802D0002813D001E0022AEF
:1033500010D0E068002846D02868884321690843D7
:1033600028602868FF21013108432860FFF7ECFC42
:1033700006462CE02A68520502D5E268002A89D068
:103380006A687F231B029A4363691B021A436A60BF
:10339000002800E08DE00ED12868884321690843A9
:1033A0002860286801218004400F8140A648FDF76D
:1033B00027FAA6490860A6480068FFF7E7FC00283E
:1033C00077D122E0FFF7C0FC801B02289FD8286835
:1033D0004005F7D568687F210902884361690902C1
:1033E0000843686011E02968FF20013081432960AB
:1033F000FFF7AAFC064605E098E0FFF7A5FC801B56
:10340000022884D828684005F7D42078914E000718
:103410002ED5A8688006400F03280AD0A06900288E
:10342000306A16D0012108433062FFF78DFC074651
:103430000BE0306A80071BD5A06900289FD017E0F9
:10344000FFF782FCC01B022870D8306A8007F7D5CE
:103450000EE0400840003062FFF776FC074604E0CB
:10346000FFF772FCC01B022860D8306A8007F7D4CF
:10347000207840076CD5A86800278006400F0428F4
:1034800018D0E86BC00008D4E96B012000070143A5
:10349000E963E96B0140012700916F480168C905A4
:1034A00019D40168821511430160FFF74DFC0090AB
:1034B0000DE083E0F06980074AD5A06800287DD040
:1034C00046E0FFF741FC0099401A02282ED86248D6
:1034D0000068C005F5D5A168012910D00420052990
:1034E000F16911D049084900F161F1698143F16145
:1034F000A068002816D0FFF727FC00900EE0F069C6
:1035000001210843F061F3E70143F161F7E7FFF7B9
:103510001BFC0099411A5148814265D8F069800727
:10352000F5D50EE0FFF710FC009007E05CE0FFF738
:103530000BFC0099411A4948814255D8F06980072F
:10354000F5D4002F04D0E96B012000078143E96323
:10355000E069002873D0A9688906490F02294DD077
:10356000012636060228286805D0B0432860FFF7F8
:10357000EBFB04463AE0B0432860FFF7E5FB074663
:1035800004E0FFF7E1FBC01B02282DD8286880016A
:10359000F7D4616A206AA26A0843E16A1202114301
:1035A0000843216B0843E9682D4A11400843E8604D
:1035B000286830432860E868012100E03DE0090701
:1035C0000843E860FFF7C0FB044604E0FFF7BCFBDC
:1035D000001B022808D828688001F7D52FE0FFF7E4
:1035E000B3FB001B022801D90320F8BD2868800125
:1035F000F5D4E8681B490840E86020E00128F4D0D1
:10360000E868226A8107890F914216D17021626AA7
:103610000140914211D17F21A26A090201401202A8
:1036200091420AD11F214904E26A0140914204D12A
:10363000400F216B4007884201D00120F8BD0020D7
:10364000F8BD0000001002400024F4002800002013
:10365000200000204010024000700040881300004D
:103660008C80C11FFCFFFEEF03490A6803235B0245
:103670009A4302430A607047000001407047704758
:10368000704770B5040005D025462035687F0028B6
:1036900002D006E0012070BD00202877204600F00F
:1036A00016F802206877211D206801F0F3FB012243
:1036B00040342272AA77EA7722706270A270E270B8
:1036C00022716271A271E2716A77002070BD704749
:1036D000014620314A7F012A01D001207047022291
:1036E0004A770168CB6801221343CB6000680B491D
:1036F000884205D00A49884202D00A49884207D147
:103700008168094B1940062905D0DB1F994202D078
:10371000016811430160002070470000002C014047
:103720000004004000400140070001007047000015
:10373000F8B504460068C66805690027A90700298E
:1037400013DAB10711D5F91E016101202077206835
:1037500080698007204602D0FFF7E8FF04E000F010
:103760008BF8204600F089F82777680716D5700790
:1037700014D504202168C043086102202077206806
:1037800080698005800F204602D0FFF7CFFF04E05C
:1037900000F072F8204600F070F82777280715D55A
:1037A000300713D508202168C04308610420207722
:1037B0002068C0698007204602D0FFF7B7FF04E009
:1037C00000F05AF8204600F058F82777E80616D59A
:1037D000F00614D510202168C04308610820207726
:1037E0002068C0698005800F204602D0FFF79EFF49
:1037F00004E000F041F8204600F03FF82777E807A2
:1038000008D0F00706D001202168C0430861204697
:1038100000F034F8280601D4A80407D5300605D5F1
:103820002168134808612046FFF729FFE80507D5FE
:10383000300605D521680F4808612046FFF71EFFB6
:10384000680608D5700606D540202168C043086187
:10385000204600F01DF8A80608D5B00606D52020A1
:103860002168C04308612046FFF70AFFF8BD000049
:103870007FDFFFFFFFFEFFFF7047704710B5006856
:103880000249884201D1FFF765FA10BD00100040DF
:10389000704710B5014680310A79012A15D00122FE
:1038A0000A7124228A60026813681468640864003C
:1038B00014600122520793430022426600680360AD
:1038C000202088600A71104610BD022010BD70478C
:1038D000704770B5044605468034207901281AD017
:1038E000012020712420A060286806680268520820
:1038F000520002602868826807235B069A430A43E5
:103900008260284601F012FB286806602020A06033
:103910000020207170BD022070BD70B504460546C0
:1039200080342079012819D0012020712420A06042
:103930002868066802685208520002602868826897
:10394000D200D2080A438260284601F0EFFA2868C4
:1039500006602020A0600020207170BD022070BD94
:1039600070477047F8B5054604468035A868EE688C
:1039700021688A6810271206002A1BDA212819D12B
:10398000EFF31080012282F310888A6880239A4323
:103990008A6080F31088E06F002808D0FEF740FFAF
:1039A000002804D0E06FFEF7B3FF202824D0204683
:1039B00001F08CFC2168886840061BD5222E19D1A5
:1039C000EFF31080012282F310888A6840239A4323
:1039D0008A6080F310882868002808D0FEF720FF4E
:1039E000002804D02868FEF793FF202804D0204642
:1039F00001F03AFC0020F8BD2F610320F8BD7047AC
:103A0000F8B503680446D96918689A68B44D0E463B
:103A10002E4025468035002E75D0B24EB24F16404E
:103A2000074037436ED0CF0706D0C70504D501271E
:103A30001F622B693B432B618B0708D5D30706D048
:103A4000276802233B622B6904273B432B614B070A
:103A500008D5D30706D0276804233B622B690227C9
:103A60003B432B610B0709D520230340334305D08B
:103A70002668082333622E691E432E610B0509D583
:103A8000430107D501232668DB0233622B69202618
:103A900033432B612B69002B42D089060AD52021A4
:103AA0000840C9050A40104304D0616F002901D0C5
:103AB00020468847286921688968490602D4282158
:103AC000084232D0204601F0CFFB216888684006CA
:103AD00027D5EFF31080012282F310888B684022F3
:103AE00093438B6080F310882868002819D07F49A1
:103AF00081632868FEF7CEFE002811D02868816B0C
:103B00000DE000E017E08E0615D5012720263F07BF
:103B1000064017403E430ED0616FB5E0204688470F
:103B2000F8BD2046FFF76BFFF8BD2046FFF767FFA3
:103B300000202861F8BDE66E012E7DD1CE067BD532
:103B4000C60679D510221A62236898682646400670
:103B50004036002849DA2968086840680004000CEB
:103B6000E8D0B78B8742E5D9F08308680068800603
:103B700034D4EFF31080012181F310881968170104
:103B8000B943196080F31088EFF31080012181F3AD
:103B9000108821688B685B085B008B6080F310885D
:103BA000EFF31080012181F3108821688B68402792
:103BB000BB438B6080F310882020E8600020E06623
:103BC000EFF31080012181F3108821680B68934383
:103BD0000B6080F310882868FEF722FE0220206721
:103BE000B08BF18B401A81B235E0B08BF18B401A6B
:103BF00081B2F08B00289DD000299BD0EFF310807C
:103C0000012686F310881E68FF272137BE431E60F9
:103C100080F31088EFF31080012383F3108823686A
:103C20009E68304FFF433E409E6080F31088202006
:103C3000E8600020E06600E011E06067EFF31080CC
:103C4000012383F3108823681D6895431D6080F36A
:103C50001088022020672046FFF739FEF8BDCE020B
:103C600008D5560206D50120000518622046FFF748
:103C700078FEF8BD0E060BD501278026FF0506400D
:103C80003A40164304D0A16F002900D046E7F8BDA2
:103C90004A0614D5420612D52046EFF310810122C0
:103CA00082F310881A684024A2431A6081F31088B6
:103CB0002021A9600021816700F07AFAF8BD0A028C
:103CC00005D5420003D52046FFF74AFEF8BDC901DD
:103CD000FCD50028FADA2046FFF7FAFDF8BD00000F
:103CE0000F0800000100001020010004F55000083A
:103CF00070B5040005D025468035A868002802D09C
:103D000006E0012070BD00202871204600F026F852
:103D10002420A86020680168490849000160A06A61
:103D2000002802D0204601F023F9204601F0ECFAE9
:103D30000128E7D0206841680922D20291434160FE
:103D4000206881682A2291438160206801680122ED
:103D500011430160204601F071F970BDF0B58DB0DE
:103D6000044614216846FCF712FD1C2105A8FCF747
:103D70000EFD914927462068904E803700258842E5
:103D80005ED101200590069505A8FFF7AFF8002841
:103D900001D0FEF7D7FC8948403002680121890331
:103DA0000A430260006808400C90716B01200143D7
:103DB0007163716B049001400C91032149020091E1
:103DC0000221019102900321039105206946000719
:103DD000FEF7FEFE7B4E7A483060B5603220F5601B
:103DE00070607561B561F561802035623061304683
:103DF000FEF7ECFD002801D0FEF7A4FC3E60B462A3
:103E00006F48704E14305C36306033207060102084
:103E1000F560B0607561B561F56180203562306133
:103E20003046FEF7D3FD002801D0FEF78BFCE66795
:103E3000002201211B20B462FFF720F81B205EE066
:103E4000614988425FD102200590079505A8FFF7D8
:103E50004DF8002801D0FEF775FCF16B01204004FD
:103E60000143F163F16B01400C91716B012001433F
:103E70007163716B049001400C910C21009102213F
:103E80000191029003210391052069460007FEF786
:103E90009FFE4B494B482831B83001608560C560B2
:103EA000456185618026C5610661342105624160F6
:103EB000FEF78CFD002801D0FEF744FC4148B830E5
:103EC00038608462414F3E4839463C303860352086
:103ED00078601020083161C17D61BD61FD613846A7
:103EE0003D62FEF773FD002801D0FEF72BFCE7676B
:103EF000002203211C20BC62FEF7C0FF1C20FEF73D
:103F0000B1FF0DB0F0BD32498842FAD1F16B01200A
:103F100080040143F163F16B01400C91716B02204D
:103F200001437163716B019001400C91012002907B
:103F30000320032103908902042000910490694624
:103F40002448FEF745FE1E49204850315C30016090
:103F50008560C560456185618026C5610661362141
:103F600005624160FEF732FD002801D0FEF7EAFB52
:103F700016485C303860154F84621148B837643099
:103F800038603720786039461020083161C17D6182
:103F9000BD61FD6138463D62FEF718FD002801D085
:103FA000FEF7D0FBE767002202211D20BC62FEF76E
:103FB00065FF1D20A3E7000000380140001002400B
:103FC000080002406002002000440040740300200A
:103FD000004800400004005070B58C231B58202B73
:103FE00001D0022070BD00290BD0002A09D0012485
:103FF00083682403A34206D10369002B03D1CB07B6
:1040000001D0012070BD0023C366046863681B02F1
:104010000BD5EFF31083012585F310882568012661
:10402000B6063543256083F3108801F035FA70BD7C
:1040300070477047FFB5064604468036B06883B0C7
:104040000D46202802D0022007B0F0BD002D0CD074
:104050000598002809D00120A1680003814206D1FB
:104060002069002803D1E80701D00120ECE70020F7
:1040700030612120B060FEF767FE0190274640378F
:104080000598B8820598F8820120A1680003814252
:1040900002D12069002802D00295002515E00020F9
:1040A000029012E000228021204601F04BFA002805
:1040B00018D10298002819D02168007888620298E7
:1040C000401C0290F88A401EF882F88A019B002862
:1040D00006980090E6D100224021204601F032FAF5
:1040E00000280AD02020B0600320ADE7288821688E
:1040F000C005C00D8862AD1CE4E72020B060002040
:10410000A2E7000070B5054604468035A86820285F
:1041100001D0022070BD00290BD0002A09D0012354
:10412000A0681B03984206D12069002803D1C80764
:1041300001D0012070BD2046403021658282C282BC
:10414000002028612121A960E16F002918D0154BBA
:10415000CB62E36F14491963E36F14495963E16F4C
:10416000134688632668216D32462832E06FFEF7D9
:104170007FFC002804D0102028612020A860D8E708
:10418000216840200862EFF31080012181F310883C
:1041900021688A6880231A438A6080F3108800208F
:1041A00070BD0000135200085F520008095100085A
:1041B00070477047FEE7000008B51048816B012288
:1041C00011438163806B032110400090002209207D
:1041D000FEF754FE0920FEF745FE002203210A20C7
:1041E000FEF74CFE0A20FEF73DFE002203210B20C5
:1041F000FEF744FE0B20FEF735FE08BD001002401E
:1042000010B5174890B0006800220F9011460FA813
:1042100002F050F8134C1249E0601422091D684660
:10422000FCF702F80021684602F02DF80C492060E6
:104230001422183105A8FBF7F7FF002105A802F0AA
:1042400022F80749606014222C310AA8FBF7ECFF22
:1042500000210AA802F017F8A06010B010BD0000FD
:104260002078000808000020F0B587B014216846C7
:10427000FCF78DFA2448426B20210A434263426BCB
:104280000A400592416B012421434163416B214067
:104290000591416B022529434163416B29400591FA
:1042A000426B08210A434263406B0F0308400590AC
:1042B000002239461548FEF741FD05200022394607
:1042C0000007FEF73BFD002202211148FEF736FDF4
:1042D000032601AA009770C269460C48FEF778FCD5
:1042E0000520019469460007009703960294FEF7A3
:1042F0006FFC019469460648039600950294FEF708
:1043000067FC07B0F0BD0000001002400004005040
:10431000000C00507047000010B5184816490160A5
:10432000E1214902416000218160C1600161816138
:10433000C16101620C22416242618162FFF7D8FCD7
:10434000002801D0FEF7FEF900210C48FFF7E5FA3E
:10435000002801D0FEF7F6F900210848FFF7B9FA66
:10436000002801D0FEF7EEF90448FFF792FA002882
:1043700001D0FEF7E7F910BD00380140A40000208D
:1043800010B5184816490160E12149024160002139
:104390008160C16001618161C16101620C22416281
:1043A00042618162FFF7A4FC002801D0FEF7CAF940
:1043B00000210C48FFF7B1FA002801D0FEF7C2F93E
:1043C00000210848FFF785FA002801D0FEF7BAF966
:1043D0000448FFF75EFA002801D0FEF7B3F910BDDC
:1043E000004400403801002010B50D480B49016021
:1043F000E1214902416000218160C1600161816168
:10440000C16101620C22416242618162FFF770FC6E
:10441000002801D0FEF796F910BD000000480040CA
:10442000CC010020FEE70000F0B5C8260D460022B2
:10443000B3B00446114601E0491CC9B2435C002BED
:10444000FAD1012304E0C75C2A2F03D07A405B1C19
:104450008B42F8DB29A132A8FBF71EFF002707E0FB
:104460002C212046FCF7B8F8002830D0441C7F1CD3
:10447000AF42F5DB2C212046FCF7AEF8002801D036
:10448000001B02E02046FCF7B1F80746701E874289
:1044900008D23A4621466846FCF77CF90020694676
:1044A000C85509E0721E21466846FCF773F9694653
:1044B000002089192039C877124C2B0001F09AFA94
:1044C000060704090D12170768460078207133B0FB
:1044D000F0BD684600786071F9E76846FCF766F859
:1044E000A071F4E707486A4607A1C01D03E005482C
:1044F0006A4605A16B30FBF7CFFEE8E7253032585E
:1045000000000000580E002025730000F0B5C826FA
:1045100004460022B3B00F46104601E0401CC0B272
:10452000215C0029FAD1012504E0615D2A2903D02C
:104530004A406D1C8542F8DB72A132A8FBF7ACFE45
:104540006119022232A8491CFCF772F800285DD1DB
:10455000002507E02C212046FCF73EF8002855D026
:10456000441C6D1CBD42F5DB2C212046FCF734F8C1
:10457000002801D0001B02E02046FCF737F8054672
:10458000701E854208D22A4621466846FCF702F989
:1045900000206946485509E0721E21466846FCF72E
:1045A000F9F86846002180192038C177574C3B0044
:1045B000264625468036603501F01CFA0F28092A68
:1045C000393D4C50546273288428289528000223D2
:1045D000002269464D4802F01DFB4C48FBF7E6FF00
:1045E0000830287102231A466946484802F012FB37
:1045F0004648FBF7DBFF6871022304226946434803
:1046000002F008FB4148FBF7D1FFA87133B0F0BDC1
:104610006846FBF7EBFF0346002269463B4802F081
:10462000F9FA3A4801F0BDFAE166A066EEE768469D
:1046300000782874EAE76846FBF7D8FF03460022B3
:104640006946324802F0E6FA304801F0AAFAE1671A
:10465000A067DBE7684600783070D7E768460078E7
:104660007070D3E76846FBF7C1FF03460022694636
:10467000264802F0CFFA2548FBF798FFB070C5E74F
:104680006846FBF7B3FF0346002269461F4802F065
:10469000C1FA1E4801F085FA882210518034E16089
:1046A000B4E76846FBF7A2FF0346002269461748B5
:1046B00002F0B0FA154801F074FA902210518034DB
:1046C0006161A3E76846FBF791FF03460022694654
:1046D0000E4802F09FFA0D4801F063FA982210513B
:1046E0008034E16192E76846FBF780FF03460022D1
:1046F0006946064802F08EFA0448FBF757FF3084FB
:1047000084E700002530325800000000880C0020AB
:10471000F0B5C82604460022B3B00F46104601E0AB
:10472000401CC0B2215C0029FAD1012504E0615D82
:104730002A2903D04A406D1C8542F8DB6CA132A8BF
:10474000FBF7AAFD6119022232A8491CFBF770FF92
:1047500000285ED1002507E02C212046FBF73CFF16
:10476000002856D0441C6D1CBD42F5DB2C21204690
:10477000FBF732FF002801D0001B02E02046FBF7C8
:1047800035FF0546701E854208D22A4621466846F6
:10479000FCF700F800206946485509E0721E2146E2
:1047A0006846FBF7F7FF6846002180192038C1777B
:1047B000514C3B00204626462546A03080366035C9
:1047C00001F018F90E2708292D3C404F535B6382F6
:1047D0008A8E9227022300226946474802F01AFA7D
:1047E0004548FBF7E3FE0830287102231A46694664
:1047F000414802F00FFA4048FBF7D8FE68710223E7
:10480000042269463C4802F005FA3B48FBF7CEFE1D
:10481000A87133B0F0BD68460078E871F9E76846E2
:10482000FBF7E4FE034600226946334802F0F2F942
:10483000314801F0B6F9E166A066EAE7684600781B
:104840002874E6E76846FBF7D1FE03460022694676
:10485000294802F0DFF9284801F0A3F9E167A067D1
:10486000D7E7684600783070D3E7684601F099F9D9
:10487000882210518034E160CBE7684601F091F95D
:104880009022105180346161C3E7022300226946FF
:10489000194802F0BFF91848FBF788FEB0760223EA
:1048A0001A466946144802F0B5F91348FBF77EFE34
:1048B00070760223042269460F4802F0ABF90E48D5
:1048C000FBF774FE3076A4E7684601F06AF9A0228F
:1048D0001051803461629CE769460978017298E75B
:1048E00069460978417294E769460978817290E7D0
:1048F0002530325800000000280B0020F0B5C826F3
:1049000004460022B3B00F46104601E0401CC0B27E
:10491000215C0029FAD1012504E0615D2A2903D038
:104920004A406D1C8542F8DB6CA132A8FBF7B4FC51
:104930006119022232A8491CFBF77AFE00285ED1D9
:10494000002507E02C212046FBF746FE002856D024
:10495000441C6D1CBD42F5DB2C212046FBF73CFEC0
:10496000002801D0001B02E02046FBF73FFE054671
:10497000701E854208D22A4621466846FBF70AFF88
:1049800000206946485509E0721E21466846FBF73B
:1049900001FF6846002180192038C177514C3B0047
:1049A000204626462546A0308036603501F022F8A4
:1049B0000E2708292D3C404F535B63828A8E922735
:1049C000022300226946474802F024F94548FBF7D4
:1049D000EDFD0830287102231A466946414802F06D
:1049E00019F94048FBF7E2FD687102230422694689
:1049F0003C4802F00FF93B48FBF7D8FDA87133B0F3
:104A0000F0BD68460078E871F9E76846FBF7EEFD0F
:104A1000034600226946334802F0FCF8314801F0B1
:104A2000C0F8E166A066EAE7684600782874E6E721
:104A30006846FBF7DBFD034600226946294802F081
:104A4000E9F8284801F0ADF8E167A067D7E76846C4
:104A500000783070D3E7684601F0A3F8882210513F
:104A60008034E160CBE7684601F09BF8902210515A
:104A700080346161C3E7022300226946194802F0CD
:104A8000C9F81848FBF792FDB07602231A4669462A
:104A9000144802F0BFF81348FBF788FD7076022334
:104AA000042269460F4802F0B5F80E48FBF77EFD78
:104AB0003076A4E7684601F074F8A02210518034E3
:104AC00061629CE769460978017298E7694609784E
:104AD000417294E769460978817290E7253032582F
:104AE00000000000D80B0020F0B5C826B3B00D467A
:104AF0000446002707E02C212046FBF76DFD002827
:104B000058D0441C7F1CAF42F5DB2C212046FBF71C
:104B100063FD002801D0001B02E02046FBF766FD84
:104B20000746701E874208D23A4621466846FBF780
:104B300031FE00216846C15509E0721E21466846D3
:104B4000FBF728FE6946002089192039C877224CD6
:104B5000032D17D8684601F09BF9A17A01280CD0E3
:104B6000A8400F22C043D243104301400807A1725E
:104B7000C9B2000F090909011AE0A8400007000F97
:104B80000143F3E72E1F032E1CD8684601F080F97D
:104B9000A17A012810D00A09B04082431001090708
:104BA000090F0843A072A17A000900010907090F43
:104BB0000143A17233B0F0BD0A09B04002431007AF
:104BC000000EECE7284608380328F3D8684601F0C1
:104BD0005FF96119C870EDE7F60700207047000023
:104BE000144900260D46124CC0350F46C9372078AF
:104BF00001280BD1267002F069F8287A3946801E08
:104C000082B20D48FFF77EFA02F06CF86078012856
:104C100009D1667002F05AF82A7A39460748FFF738
:104C200071FA02F05FF8012001F020FBDFE70000DD
:104C300000000020D404002038010020CC01002016
:104C40001FB5344E3448354C00270090B078012809
:104C500030D1B77002F03AF831480078012806D018
:104C600002280AD0032810D0042818D020E02E48AB
:104C70002C49C06801F030FB1AE02C48642307C8B7
:104C8000039202910190042207E0284864230C302B
:104C900007C8039202910190052201A905E01E4870
:104CA0007D230938027A0099DB002148FFF7C2F919
:104CB00002F018F83079012828D13771F77002F026
:104CC00005F80020A072054629460098FFF70CFF62
:104CD0006D1C0C2DF8DBEB202070A07A7D230107E2
:104CE000090F61700009A070E07AE070207B2071EC
:104CF000607B6071A07BA0719020E071DB000822D6
:104D000006490B48FFF796F901F0ECFF012001F08E
:104D1000ADFA9BE7000000202E070020F6070020D8
:104D20001A0000201027000008000020607800080A
:104D3000A4000020FFB0254DB5B0E878012840D18F
:104D40000020E87002212248FDF7F0FF36A800900D
:104D500020A11DAB04AA204801F01AFF642281A9FA
:104D600068A80292019100904FAB36AA1DA904A831
:104D700001F0DCFA002421464FA8FFF7C9FC2146C8
:104D800068A8FFF7C3FB214681A8FFF7B7FD641CA5
:104D9000E4B20E2CEFD901F099FF00F05FFF0F484D
:104DA000C26E816E03920291C16F806F00900B48BA
:104DB0000191603082790AA19AA8FBF76DFA01F09F
:104DC00091FF012001F052FAB7E700000000002037
:104DD000000C00500D0A000098090020D80B00209C
:104DE00025642D256C662D256C660D0A00000000DB
:104DF00010B5FBF7F1F9044602F0D2FA002803D00F
:104E000001200349000748602046FBF7E9F910BD7F
:104E100000ED00E030B591B034216846FBF7B7FCF7
:104E2000002401200D940E940F9440021094FEF77C
:104E300037F809200090012000040190012006901D
:104E40000320089010200A90400302250B9007953C
:104E500000030C9009946846FEF71AFA002801D066
:104E600072B6FEE707200D900F9402210E95109464
:104E70000DA8FEF7EBF8002801D072B6FEE711B0DE
:104E800030BD704710B50248FEF752FC10BD00005F
:104E900088040020F0B502681E4B1F4C984201D0D8
:104EA000A04203D17025AA434D682A431B4D1C4ED6
:104EB0001C4F98420AD0A04208D01B4CA04205D0FB
:104EC000A84203D0B04201D0B84205D11446032213
:104ED00012029443CA6822438024A2434C692243AD
:104EE00002608A68C2620A688262984205D0A8425B
:104EF00003D0B04201D0B84201D109690163012158
:104F000041610169C90703D001694908490001618C
:104F1000F0BD0000002C01400004004000400140B2
:104F2000004401400048014000200040F8B504461C
:104F3000416E4034002915D00068816880680901FD
:104F40004D0F0A4E400F3746315C083F385CC000B9
:104F5000FBF756FC6085785D715DC000FBF750FC87
:104F60002085F8BD01206085FAE70000D8780008A8
:104F700010B5018D090707D501684A680123DB03D5
:104F80009A43836B1A434A60018DC90707D00168B1
:104F90004A6801235B049A43C36A1A434A60018D3D
:104FA000890707D501684A6801231B049A43036BEC
:104FB0001A434A60018D490707D501684A680123F1
:104FC0009B049A43436B1A434A60018DC90607D577
:104FD0000268916801231B039943C36B19439160D5
:104FE000018D890607D501688A6801235B039A430E
:104FF000036C1A438A60018D490612D503685A680A
:1050000001210905446C8A4322435A60426C8A425A
:1050100007D10268516803235B059943836C1943E8
:105020005160018D090607D501684A680123DB0438
:10503000C06C9A4302434A6010BD0000FEB50546AD
:105040000026803504462E61FDF77EFE0190206823
:10505000006820270007002817DA25480090002262
:1050600039042046019B00F06DFA00280DD0EFF3C3
:105070001080012181F3108821680A6880239A43F7
:105080000A6080F31088AF6028E02068006840075D
:1050900027D5174800900121002289052046019B51
:1050A00000F050FA00281CD0EFF31080012181F3AA
:1050B000108821680A68FF2321339A430A6080F32D
:1050C0001088EFF31080012181F3108821688A682D
:1050D000520852008A6080F31088EF602E7103201E
:1050E000FEBDAF60EF60E66626672E710020FEBD54
:1050F000FFFFFF0110B5806A002201464031CA83DC
:10510000CA82FEF77CFC10BDF8B5846A2046803068
:1051100081680546C6682068806800270006002868
:1051200006DA212904D156200753204600F0CEF894
:1051300020688068400606D5222E04D15E200753E1
:10514000204600F091F82869102108432861204684
:10515000FEF755FCF8BD70B501460968806A09681C
:1051600000228906002938DB5E210A52EFF3108104
:10517000012383F3108803681C68FF250135AC43C5
:105180001C6081F31088EFF31081012383F31088F2
:1051900003689C68640864009C6081F31088EFF3E6
:1051A0001081012383F3108803689C684025AC4379
:1051B0009C6081F3108820238C210B50C16E012943
:1051C0000BD1EFF31081012383F3108803681C686F
:1051D0001025AC431C6081F310880267C16E012961
:1051E00002D0FEF725FF70BD5C21095AFEF76FFB68
:1051F00070BD10B5806A01210167C16E012902D01E
:10520000FEF717FF10BD5C21095A4908FEF75FFB46
:1052100010BD10B501460968806A096889061BD46B
:10522000002256210A52EFF31081012282F31088E6
:10523000026893688024A343936081F31088EFF39E
:105240001081012282F310880068026840231A430B
:10525000026081F3108810BDFEF7AAFF10BD10B5E3
:10526000806AFEF7A6FF10BD10B5EFF31081012292
:1052700082F3108802681368FF242134A34313606B
:1052800081F31088EFF31081012282F31088026805
:1052900093680D4C2340936081F31088C16E0129FF
:1052A0000BD1EFF31081012282F31088026813689A
:1052B0001024A343136081F3108820228C210A500C
:1052C0000021C166416710BDFEFFFFEF10B5EFF38F
:1052D0001081012282F3108802681368C024A3435E
:1052E000136081F31088EFF31081012282F310889C
:1052F000026893680124E405A343936081F3108856
:1053000020218030816010BDF8B504468068216995
:10531000E269084361690025114322680843116866
:10532000534B19400143116021684868032212035E
:105330009043E26810434860A169206A22680843EC
:1053400091684C4B1940014391602068C16A626AC0
:10535000090909011143C162474A2068474990423F
:105360000AD148698007800F20D0012814D0022874
:1053700010D003281CD111E0414A904210D1486955
:105380000C21084012D0042806D0082802D00C288E
:105390000ED103E002210CE004210AE0082108E01C
:1053A0003849884202D03849884201D1002100E0C2
:1053B00010210122E369D2033448354E354F934220
:1053C00027D1002906D002290BD0042905D00829AD
:1053D0003DD11CE0FDF702FF01E0FDF713FF0028BF
:1053E0003CD0616A4900715AFBF70AFA61684000D3
:1053F0004A088018FBF704FA01461039B94226D84A
:105400002449491C01400007400F084324E010468E
:10541000E7E7002906D002290BD0042905D0082986
:1054200015D116E0FDF7DAFE01E0FDF7EBFE0028EE
:1054300014D0616A4900715AFBF7E2F961684A08C1
:105440008018FBF7DDF901461039B94203D901256F
:1054500004E01046EDE780B22168C86020460121D3
:1054600040304185018500206067A0672846F8BD6F
:10547000F369FFCFFFF4FF110038014040100240F4
:105480000044004000480040004C00400024F4006C
:10549000B8780008EFFF000070B504468165403021
:1054A000828300202546803528612221E960296811
:1054B000002919D0204BCB622B68204919632B6837
:1054C0001F495963296813468863A66D21683246CF
:1054D00024312868FDF7CCFA002805D01020286177
:1054E0002020E860012070BD206900280CD0EFF377
:1054F0001080012181F3108821680A68FF2301339D
:105500001A430A6080F31088EFF31080012181F3C1
:105510001088226893680B43936080F31088EFF340
:10552000108081F3108821688A6840231A438A60BA
:1055300080F31088002070BD57510008F351000817
:1055400009510008FFB581B005460E460446803576
:105550000A9F32E0781C30D0FDF7F6FB0499401A20
:10556000B84218D8002F16D020680168490724D502
:10557000802E22D0402E20D0C169C94309070CD407
:10558000082606622046FFF76FFE2E610020287174
:10559000012005B0F0BD0320FBE7C069C043000552
:1055A0000BD401202168C00208622046FFF75CFE90
:1055B0002020286100202871EDE72068C16930466D
:1055C000884305D0002103988142C3D00020E0E742
:1055D0000121F8E7F0B53E4CB3B02068C069C04384
:1055E000C00636D4FAF7F8FD009021681020086252
:1055F0002046FEF7B7F9374800684068C821081A06
:10560000354CC2B22146C0390846C930227206461E
:10561000FBF75EF8257AE01D295C01222F4B401C28
:10562000342909D1295C472906D1011F6F5C2C4917
:10563000232F10D03F2F10D0617A242912D05A7016
:105640002549C822C0392248FEF7C6FC0098FAF75F
:10565000C7FD33B0F0BD0A7002E04A700220087046
:105660001A70EDE7A17A7D27FF0043290BD1E17A7B
:105670004F2908D1217B522905D1617B532902D1C1
:10568000285C0A2806D03B462A4631461548FEF7D4
:10569000D1FCD5E7C82101A8FBF779F80121052045
:1056A000C9030007FDF742FB32460FA101A8FAF734
:1056B000F3FD01A8FAF79AFF82B23B4601A9094817
:1056C000FEF7B8FC01A800F05BF9FDF7DBFBB7E7DC
:1056D000A4000020600200209405002000000020AB
:1056E00018000020380100202573000010B5034881
:1056F000FEF786F9FFF76EFF10BD0000A400002042
:10570000F8B5404C2068C069C043C00678D4FAF7A9
:1057100063FD00902168102008622046FEF722F900
:10572000394800684068C821081A384CC2B221467E
:10573000C03908462272C930FAF7CAFF2046C8218C
:10574000C038FBF722F8657A01213148314A4F2DE4
:1057500002D1A37A4B2B08D0237A2C4E1F5DB61CA6
:10576000312F04D0302F0FD011E001700AE09E5D80
:10577000302E0CD1284B1B78012B01D002230EE0D8
:1057800004230CE091702CE09E5D302E06D02B2D72
:10579000F6D0242D05D07B2D1AD022E003230370F0
:1057A000F0E7E27B532A04D04F2A06D0452A09D0DD
:1057B00017E0227C542A09D013E0217C4B2910D118
:1057C000022103E0217C52290BD10321417008E022
:1057D000A07A222805D10D480830185C7D2800D118
:1057E000117101210520C9030007FDF79FFA074940
:1057F000C822C0390348FEF7EFFB0098FAF7F0FC27
:10580000F8BD000038010020180300202507002003
:105810001A000020000000201900002010B50348E5
:10582000FEF7EEF8FFF76CFF10BD00003801002016
:1058300010B50348FEF7E4F800F004F810BD0000CE
:10584000CC010020F8B52B4C2068C069C043C006CD
:105850004FD4FAF7C1FC009021681020086220465E
:10586000FEF780F8244800684068FF249134201A2D
:10587000224D82B228462A8221491230FAF728FFA7
:105880002B8A002101221F4E1D4F0A3B27E078186A
:10589000FF308130857C522D04D0472D0DD0522D04
:1058A00012D01AE0C57C4D2D17D1057D432D14D1A2
:1058B000457D2C2D0ED1F27013E0C57C472D0CD107
:1058C000007D4128F7D008E0C57C4D2D05D1057D30
:1058D000432D02D1407D4828EDD0491CC9B28B42EE
:1058E000D5DC224606490348FEF776FB0098FAF716
:1058F00077FCF8BDCC010020D003002086090020F1
:105900000608002000000020FEB500240094019449
:10591000642115480294FAF738FF144F002500203F
:10592000009001900446EE0002903019C0190378EF
:105930000A2B11D06A460EA11046FAF7ADFC641C82
:10594000E4B2082CF1D3084A6B460BA11046FAF7D3
:10595000A3FC0835EDB2E2E7034A6B4606A1104608
:10596000FAF79AFC0048FEBD940D002000F80108EB
:1059700025732563000000002573257300000000D7
:10598000FEB50446FAF732FE06463F2000F08EFAD6
:1059900000256F4611E0002004E03954401C641CCF
:1059A000082802DA21780029F7D10548E90008180B
:1059B000019B009A00F096FA0835B542EBDBFEBD7C
:1059C00000F80108F8B5040C8BB2264682B25E439B
:1059D000104658430D0C370C36040021801916462A
:1059E00079416E43370C36048019264679416E435F
:1059F0008919F8BD30B47446641E2578641CAB4226
:105A000000D21D46635D5B00E31830BC1847000000
:105A10004900CA020243100000D004204A0D01D000
:105A200001221043044A490D914201D10221084349
:105A3000012800D105207047FF0700008307FF22DF
:105A4000DB0E9A408907090E9940002808DB83087D
:105A500009489B001B18186890430843186070475A
:105A60000007000F0838830804489B001B18D869FA
:105A700090430843D861704700E400E000ED00E087
:105A800010B50721024A00200907FCF72DFD10BDC3
:105A900001030000034A10B500201107FCF724FDA4
:105AA00010BD000001FDFFFF10B5044608684968FD
:105AB00000F002F8206010BDF8B504460D466A46B5
:105AC00000F022FA00987E30009000281CDC0022B2
:105AD00013462046294601F01DFE15D0264E002112
