:020000040800F2
:1000000000530020610200080943000899400008DD
:1000100000000000000000000000000000000000E0
:10002000000000000000000000000000C14A0008BD
:100030000000000000000000E7010008E94C000893
:100040007302000800000000730200087302000839
:1000500073020008730200087302000873020008AC
:100060000000000061250008712500083D250008FA
:100070007302000873020008730200080000000009
:10008000730200087D4D0008730200087302000827
:10009000730200087302000873020008730200086C
:1000A000730200087302000873020008E555000897
:1000B000155700082957000800F002F800F068F80A
:1000C0000CA030C8083824182D18A246671EAB466D
:1000D00054465D46AC4201D100F05AF87E460F3ED0
:1000E0000FCCB6460126334200D0FB1AA246AB46DF
:1000F000334318470078000020780000103A02D3FC
:1001000078C878C1FAD8520701D330C830C101D5B8
:1001100004680C60704700000023002400250026BE
:10012000103A01D378C1FBD8520700D330C100D5B3
:100130000B60704710B5662902D107F0AFFA10BD09
:10014000642902D100F00CF910BD782902D100F029
:100150003DF910BD632902D100F09CFE10BD73294A
:1001600002D100F09FFE10BD002010BD1FB500F0B1
:100170006FFF04000020002107F014FA401C6060AB
:100180000020002107F0F8F9E0601FBD10B510BD98
:1001900001F04BFB1146FFF7E9FF05F07DFE01F092
:1001A000DBFD03B4FFF7F2FF03BC01F039FE0000F2
:1001B000084B19680868203080F30988022080F312
:1001C0001488BFF36F8F3FBCAE4608BC04BC62B658
:1001D000184700002C000020EFF3108072B6704723
:1001E00080F310887047EFF309800E4B1A682038AF
:1001F0001060F0C044464D4656465F46F0C008B514
:1002000072B606F0D5FD62B60CBC116808681030F5
:10021000F0C8A046A946B246BB4680F309882038FC
:10022000F0C818472C00002070B505460C4616464D
:1002300002E00FCC0FC5103E102EFAD2082E02D3CA
:1002400003CC03C5083E042E07D301CC01C5361FDD
:1002500003E021782970641C6D1C761EF9D270BDF4
:100260000748804707480047FEE7FEE7FEE7FEE74E
:10027000FEE7FEE704480549054A064B70470000C3
:100280007B4D0008B9000008004300200053002007
:10029000004B0020004B00200FB41CB5074B06AAF2
:1002A0007B4469460090059800F0D1FD0020694626
:1002B00000F0E0FD1CBC08BC04B01847D10B0000E6
:1002C00070B5044685690068C10601D5302600E096
:1002D0002026C00707D070BD62683046A1689047ED
:1002E000206A401C20626D1EF6D570BD70B50446B4
:1002F00085690078C00707D170BD6268A1682020B9
:100300009047206A401C20626D1EF6D570BD70B506
:100310000C460546012A05D02878800600D5EA69F2
:10032000002302E0012305E05B1C934202D2E05C63
:100330000028F9D1A869E618C01AA861286AC0186F
:1003400028622846FFF7BCFF04E06A682078A968A5
:10035000641C9047B442F8D32846FFF7C7FF70BD2E
:10036000F7B5002575291068009914A611D0C0466C
:10037000C046002802DA404211A608E00099096848
:100380008A0701D50FA602E0490704D50EA601256C
:1003900001E0C046C046009F0024243704E000F07E
:1003A00037FE30313955641C0028F8D12B463246CF
:1003B0002146009800F0E3FAFEBD000000000000B6
:1003C0002D0000002B0000002000000070B5044646
:1003D0000D4621461068C046C0462188090502D551
:1003E0000F4A7A4402E00E4A7A440E322346002134
:1003F000243305E006070009360F965D5E54491C5C
:100400000028F7D120780023000705D5702D03D0F0
:10041000002901D002231132204600F0B0FA70BD4D
:1004200016740000F3B50446002081B02062204617
:10043000E1688847002872D0252802D06268A16848
:10044000ABE0594F00267F442046E16888472028CA
:10045000054608DB312D06D27819203800780028AF
:1004600001D00643F0E7B00701D504208643002001
:10047000E0610746A0612A2D0AD0284605F0E8FA77
:10048000002827D0B8000019303D0090856119E0A0
:100490000298BA00121902C8916102902046E168E0
:1004A0008847012F054617D1E06900281FDA202070
:1004B00086431CE000980A2180694843009940194E
:1004C000303888612046E1688847054605F0C0FA63
:1004D0000028EFD1012F0AD02E2D08D12046E16847
:1004E00088470546202006437F1C022FC3DBA069F6
:1004F000002803DA4042A06101200643F00701D042
:10050000102086436C2D0BD0682D09D04C2D3CD08B
:100510006A2D38D0742D38D07A2D36D016E040E0D0
:10052000E1682F4620468847B842054609D16C2F1E
:1005300029D001208002E16806432046884705460D
:1005400004E06C2F1DD0FF2001300643002D28D081
:1005500028464138192803D80120C0020643203517
:10056000204626602946029A1646FFF7E3FD00283A
:1005700010D001280BD0F61DF008C0000830029002
:1005800055E74020E1E78020D5E70020D3E7361D7E
:1005900002964CE762682846A1689047206A401C92
:1005A00044E7206AFEBD0000DA73000070B506461D
:1005B00000F0D6F90468054630460A22002100F012
:1005C000CBFC2C6070BD000010B5024A00F0FCFCB2
:1005D00010BD0000A0000020401ECAB24178401C9F
:1005E0008A4202D00029F9D10020704730B5441C5E
:1005F00003E00178401C00290DD08107F9D10B4B95
:10060000DD0104C8D11A91432940FAD0001B0A0623
:1006100003D0C01E30BD001B30BD0A0401D0801EB7
:1006200030BD0902FCD0401E30BD000001010101B7
:100630000346F0B50B439B072DD1244DEF01042A4F
:1006400029D308C810C95E1B9E43121F3E4017D015
:10065000D8B2E1B2401A3106014310D198B2A1B22A
:10066000401A310401430AD118022102000A090A82
:10067000401A3102014302D1180E210E401AF0BD7A
:10068000A342DCD018BA21BA884201D90120F0BDBA
:100690000020C043F0BD002A01D10020F0BD037846
:1006A0000C78401C491C002B0DD0A3420BD1521ECC
:1006B00009D003780C78401C491C002B03D0A342BE
:1006C00001D1521EEBD1181BF0BD00000101010148
:1006D000F8B5042A2CD3830712D00B78491C037079
:1006E000401C521E83070BD00B78491C0370401C22
:1006F000521E830704D00B78491C0370401C521E05
:100700008B079B0F05D0C91ADF002023DE1B08C909
:100710000AE0FFF789FDF8BD1D4608C9FD401C46EB
:10072000B4402C4310C0121F042AF5D2F308C91A92
:10073000521EF0D40B78491C0370401C521EEAD4A0
:100740000B78491C0370401C012AE4D4097801701D
:10075000F8BD01E004C0091F0429FBD28B0701D5B5
:100760000280801CC90700D00270704700290BD09E
:10077000C30702D00270401C491E022904D383071C
:1007800002D50280801C891EE3E70022EEE70022EA
:10079000DFE70000F8B507460B46394619438907DD
:1007A00013D1164CE601042A0FD302CB0D1B8D4347
:1007B000354202D102C0121FF5E7CBB20370401CD4
:1007C000521E002B13D0090AF7E7002A14D019781B
:1007D000521E5B1C0170401C002908D0002A0BD05F
:1007E0001978521E5B1C0170401C0029EDD1002AB3
:1007F00002D01146FFF7C9FF3846F8BD01010101DB
:10080000002203098B422CD3030A8B4211D300230D
:100810009C464EE003460B433CD4002243088B42E7
:1008200031D303098B421CD3030A8B4201D3944674
:100830003FE0C3098B4201D3CB01C01A5241830967
:100840008B4201D38B01C01A524143098B4201D321
:100850004B01C01A524103098B4201D30B01C01A4C
:100860005241C3088B4201D3CB00C01A52418308C6
:100870008B4201D38B00C01A524143088B4201D3F3
:100880004B00C01A5241411A00D201465241104653
:1008900070475DE0CA0F00D04942031000D34042C8
:1008A000534000229C4603098B422DD3030A8B42FE
:1008B00012D3FC22890112BA030A8B420CD389019C
:1008C00092118B4208D3890192118B4204D3890182
:1008D0003AD0921100E08909C3098B4201D3CB01C0
:1008E000C01A524183098B4201D38B01C01A524175
:1008F00043098B4201D34B01C01A524103098B4279
:1009000001D30B01C01A5241C3088B4201D3CB0063
:10091000C01A524183088B4201D38B00C01A524146
:10092000D9D243088B4201D34B00C01A5241411A1D
:1009300000D20146634652415B10104601D340424B
:10094000002B00D54942704763465B1000D34042FC
:1009500001B50020C046C04602BD704770477047D1
:10096000004870479C42002010B5FFF7F9FF00686F
:1009700010BD10B50446FFF7F3FF046010BDFFB5CE
:1009800004460D4681B0243000902168880604D5C5
:100990001022E0699143216000E00120A84201DDBE
:1009A000471B00E000270498A1697A191018081A5B
:1009B000A0612078C00602D42046FFF781FC002603
:1009C00008E003986268A168805D9047206A401C37
:1009D000761C206204988642F3DB2078C0060AD594
:1009E0002046FFF76DFC06E06268A1683020904762
:1009F000206A401C206238467F1E0028F4DC07E095
:100A000000986268A168405D9047206A401C20629F
:100A100028466D1E0028F3DC2046FFF767FC20788F
:100A2000000602D5022005B0F0BD0120FBE7000062
:100A30007047FFB50C461E468FB003CA0890099157
:100A40004F007D0D00D16D1E002108460020C046DC
:100A50000321099A89050840002A03DA82008018D8
:100A600040080840800D01280A9002DD0020C043A4
:100A70000A90089807430DD0EF48F04928184843DA
:100A80000714189800281DD07542291E1DDD0A98EC
:100A900042421BE01898012802D00020302104E0D7
:100AA0000020F24305E02154401CB042FBDB3046FD
:100AB0000022189B002121540F998B600A60486026
:100AC00013B0F0BDBD1B6D1CDFE70A9A002900DAE8
:100AD00069420BA800F0C0FB0BAB07CB03AB07C30D
:100AE0000899099800F01CFC6B4607C30146D448DE
:100AF0000918002D00910ADDD14903980A9A49424C
:100B0000401803A90390684600F03DFE07E00399F2
:100B10000A9A081803A90390684600F0FCFD6B468A
:100B200007C30004000C03D00020C043410800E0CC
:100B30001046189A002A03D00022009215461EE0A3
:100B4000751E05D400F088FA303262556D1EF9D555
:100B500001220843079602D000227F1C04E020787F
:100B6000302801D100227F1E002A069789D01EE07E
:100B7000112D07DA00F070FA303262556D1C024612
:100B80000A43F5D1084303D00098002819D00EE09D
:100B90000021681E05E0235C625C63542254401E01
:100BA000491C8142F7DBA81B401E07950690079A57
:100BB00018990020A0540F98079B069A81600CC0DA
:100BC0007EE71126002018905BE7D21DF0B50D4698
:100BD0000446D10893B0C90003C90C900D9104F0EC
:100BE00093FE02460D98C00F01D02D2007E020682B
:100BF000810701D52B2002E04007C00F4001032AE6
:100C00000F9001D0072A05DB03462946204600F055
:100C100069FA0EE12078800601D5E76900E0062731
:100C20002846652D04D0662814D0672D69D12DE0A3
:100C30000020112F009001DB112300E07B1C0CAA87
:100C400003A910A8FFF7F5FE1199002610987D1C46
:100C50000E9142E001203B460CAAC0070B900120F8
:100C6000009003A910A8FFF7E4FE119D12981099B7
:100C7000002600280E9501D1781C0D18781B02D48F
:100C800046427D1C761EE81B00903AE0012F00DAF8
:100C900001270020112F009001DD112300E03B46C9
:100CA0000CAA03A910A8FFF7C4FE11993D4610989D
:100CB00000260E91217809070BD40E99A94200DA7B
:100CC0000D4603A9012D04DD4A19203AD27F302AAE
:100CD00006D0B84201DA011D04DA012100910FE0CB
:100CE0006D1EEFE7002802DC86192D1A03E0411C77
:100CF000A94200DD0D46801B401C00900120C0076A
:100D00000B902078000705D40098A84202DB002051
:100D1000C043009069460020C8720B98012102AFC1
:100D20000337C907884225D0022010902B2011904C
:100D30000B9800280BDA40420B902D20119006E012
:100D40000B9800F065F930317F1E0B9039701099C7
:100D5000481E00291090F3DC0B980028F0D1119860
:100D60007F1E38702088000501D5452000E06520F1
:100D70007F1E387001A8C01BC01D0B900F98002863
:100D800000D0012041190098C01709180B980818C5
:100D9000A169081A401EA0612078C00602D420462E
:100DA000FFF78EFA0F98002805D06268A168904777
:100DB000206A401C20622078C00625D52046FFF717
:100DC0007FFA21E0002E07DB0E98B04204DD03A875
:100DD0006268805DA16802E06268A1683020904787
:100DE000206A761C401C20620098401E002800905B
:100DF0000AD100F02DF9C06862680168405CA16802
:100E00009047206A401C206228466D1E0028D9DCCD
:100E100007E062683878A1687F1C9047206A401C10
:100E200020620B99481E00290B90F2DC2046FFF748
:100E30005DFA032044E6000001FCFFFF104D0000B6
:100E4000E1DFFFFF01694A1C02610878704700B5C5
:100E50008FB00291002105910549019379440391D6
:100E6000114604906846FFF7DDFA0FB000BD0000A0
:100E7000E5FFFFFF0A681070521C0A60704710B54A
:100E80004369002B02D0C046C04601E0FFF73FFA9D
:100E9000012010BD1278014624310A7000224A70E8
:100EA0000122ECE711680022D243E8E70FB40023E7
:100EB00000B589B00CA900910B99CB60224B7B4403
:100EC000224A7A440792042206930192204A02920F
:100ED000204A7A446B4608920246002006F0E6FB60
:100EE00009B008BC04B0184770B5064615460C4654
:100EF000324686B00020C04301900020049004A830
:100F0000009102916946FFF7D1FF0246049821182B
:100F1000002D05D0002801D0084600E020462860BA
:100F2000049800280DD0002A02DD0098884208D0DD
:100F30003246081B6946019004A800940294FFF70A
:100F4000B5FF06B070BD0000AB020000C702000094
:100F5000FFFFFF7FFD010000F7B50F460026009C54
:100F60002578641C002D05D000F06AF80068405D0B
:100F7000C007F5D12B2D02D02D2D18D0641E394677
:100F8000029A204600F014F9002F04D03968A142DB
:100F900001D1009939607105022400290BDA404221
:100FA000002803DDFFF7DCFC0460A007FEBD012084
:100FB00080020643E3E70028F8DAFFF7D1FC04607B
:100FC0000048FEBDFFFFFF7FF8B515460E46040042
:100FD00003D12C68002C00D10CA4204600F015FC95
:100FE0000419207800280ED027463146384600F0F4
:100FF000FBFB04192078002802D000202070641C1C
:1010000038462C60F8BD0027FAE700000000000019
:1010100001468008081A02091018020A1018020C6A
:101020001018C008820012185200891A01E0401CF2
:101030000A390A29FBD27047004870479C420020B9
:1010400010B500F005F8001D10BD00BF5965000087
:1010500000487047BC4200200B4670B50246890725
:101060008008084319469D08141AA9412509080754
:10107000054308092C194841250A01060D43010AB8
:101080002C194141200C0D0428430D0C00194D4131
:10109000002140194D41C00869070843E908840F41
:1010A0008D002543840024184D4124196D41121BE5
:1010B000AB4107E00925ED432C115219634100248F
:1010C000401C61411C460A250026551BB441F1D243
:1010D00070BD10B50446FFF7B3FF0068005DC007A0
:1010E000C00F10BDF8B51F46044601230068DB029F
:1010F000032601461840072A05DB002801D017A562
:1011000006E017A504E0002801D016A500E016A50A
:10111000102081432160A069C01E002FA06101D072
:10112000401EA0612046FFF7CBF8002F09D03846BB
:101130006268A1689047206A401C2062C01C20623F
:1011400006E0206AFAE762682878A1686D1C90477B
:10115000761EF8D22046FFF7C9F8F8BD4E414E0082
:101160006E616E00494E4600696E66004268002A54
:1011700008D001680B78491C002B03D0521E06C012
:10118000184670470121C160881E70474268002AD6
:101190000BD0C3680168002B07D183688B4204D051
:1011A000491E521C06C0002070470020C0437047F3
:1011B000F7B5154682B00027029C2078641C019781
:1011C000302802D0002D15D015E020780127641CAE
:1011D000782804D0582802D0002D09D00BE0002D2B
:1011E00001D0102D07D1207800271025641C02E0C3
:1011F000082500E00A250026009610E00099012746
:101200006943081829467143020C80B200908E1879
:101210003804864201D3012001902078641C2946BD
:1012200000F022FB0028E9DA0398002805D0002FFF
:1012300001D0641E00E0029C04600198002806D0E2
:10124000FFF78EFB02210160C81E05B0F0BD0099BA
:1012500030040843F9E70000F7B516468AB02F4876
:1012600078446C4603467C33C06F5A689B680DC453
:101270002A487844763003AC0DC80DC43720C0012D
:10128000081837211B30FFF7C5FA05460C46803D8C
:101290001B3C02D56442012000E000200027099099
:1012A0000FE0E0070BD00C201C497843794432460C
:1012B0004C394118684600F02EFA6B4607C364109B
:1012C0007F1C002CEDD1154F7F442C3F15E0E80723
:1012D00011D02001C0190EC806910893079200682A
:1012E000F04201D198190890324606A903A800F0EF
:1012F00012FA03AB07C36D10641C002DE7D1324610
:1013000069460998002803A802D000F03CFA01E0E1
:1013100000F001FA0A9B07C30DB0F0BDD4650000D0
:10132000034640000A4610B5400D0BD00121C90705
:101330000F24A40200191C0364082143540D214307
:10134000D20207E000210120F2E7D40F4900214337
:101350005200401E0029F8DADB0FDB07184310BDEE
:10136000FFB50D46144685B04868516804F0A6FAEA
:1013700000910190A868A16804F0A0FA029103907E
:10138000A868616804F09AFA029A121882420292DE
:1013900001D2012000E00020019A0B18D218002889
:1013A000019202D08A4202D903E08A4201D201208E
:1013B00000E000200099081800906868A16804F017
:1013C0007DFA029A12188242029201D2012000E0B4
:1013D0000020019A0B18D2180028019202D08A42EC
:1013E00002D903E08A4201D2012000E000200099E6
:1013F0000818009028682168400049004008490802
:101400004018F549471814E001994000C90F0843F6
:101410000090019802994000C90F0843019002987A
:1014200003994000C90F08430290039840007F1EB3
:10143000039000980028E7DA0898002801D0E74ECA
:1014400000E00026B74228DAF71BF806C00E15D0D8
:10145000029B2021091A039A8B401A430392029A95
:10146000019BC2408B401A430292019A009BC240EA
:101470008B4000991A430192C14000917A110BD020
:101480006B460320811A01D5002101E089005958DB
:101490008700401ED951F5D5374603980299002898
:1014A00000D00120014308980291002808460CD082
:1014B000002800D001200199019A49050843012123
:1014C000D20AC902D202019200E001210E9B012240
:1014D000D207012B02D0002B03D013E0002807D144
:1014E00016E0904204D890420CD1019B0B4209D0E7
:1014F000019B5918019105D10099491C009101D116
:101500007F1C0092002803D0102108460020C0460E
:1015100028682168019B009A4840C10F0598C907B7
:1015200039430EC009B0F0BDFFB587B0099A0898DD
:101530000899536892684068896896460022039328
:1015400017469446089A12685300099A5B08126875
:10155000520052089A1AA24BD4180A9A002A01D0B3
:10156000352200E040220692002201231546049213
:10157000DB07059324E0002D05D175460346039E45
:101580004D1BB34109D375466646039B491B049D19
:101590009841059B7519AC465F4163463B4308D0B3
:1015A000059B049EDD0776082E435B080496059391
:1015B00001E0521E641EC50FED0749184041521C40
:1015C000069B9A42D7DB002D04D17546039A6B1A0D
:1015D000824101D203200CE0039A0B466B4042404B
:1015E000134303D0014303D0012002E0022000E0B6
:1015F0000020614601910021009702910A9900297B
:1016000005D0614640020143744B019102E080071E
:10161000002302909C423ADA1A1BD006C00E15D065
:10162000029D2021019C091AC5408C402543029C43
:101630008C4000D001242543019C02953D46C440C6
:101640008D4039462C43C1400194009154111DD066
:101650006D460221002202290CD10320001B07E065
:10166000002804DB8600AE59002E00D00122401C69
:101670000328F5DB081B02D588002A5004E080000F
:10168000285810438A00A850491EE3D51C460A98E2
:10169000002802980CD0002800D001200199019A5E
:1016A000490508430121D20AC902D202019200E091
:1016B0000121109B0122D207012B02D0002B03D065
:1016C00013E0002807D116E0904204D890420CD1D4
:1016D000019B0B4209D0019B5918019105D100993A
:1016E000491C009101D1641C0092002803D01021F4
:1016F00008460020C04608980999019A00680968C0
:1017000048400099C30F0798DB07234303608260BA
:1017100041600BB0F0BD1FB5002300920A460146A0
:1017200001A8FFF71DFE01AB07CB04B010BDF0B55B
:1017300085B0012300920A46014601A8FFF710FE7A
:1017400001990F2202989202CF0F4900039E490887
:101750008C1AFF070021002800DB0C4645002148B9
:101760006D08844206D30D460E46044610210846F5
:101770000020C0462005E90A084369053843F20AFB
:1017800005B01143F0BD1FB5002300920A46014683
:1017900001A8FFF7C9FE01AB07CBC6E71FB50123C0
:1017A00000920A46014601A8FFF7BEFE01AB0F24D6
:1017B00007CBA402C30F4000DB074008001B002931
:1017C00000DB0020490000054908CC0A20434905F8
:1017D0001843D20A1143A8E702C0FFFF013C0000F2
:1017E000FF3F0000FF07000030B503461D78002DC5
:1017F00003D00A4603E0AC4201D1181A30BD147878
:10180000521C002CF7D15B1CF0E730B503461D7865
:10181000002D08D00A461478521C002C03D0AC428C
:10182000F9D15B1CF3E7181A30BD7546FFF704FCCD
:10183000AE46050069465346C008C000854618B04C
:1018400020B5FEF717FD60BC00274908B646002604
:10185000C0C5C0C5C0C5C0C5C0C5C0C5C0C5C0C560
:10186000403D49008D4670473A2800D23038202349
:1018700002469A43412A01D310463738884201D3A1
:101880000020C04370470000FFB58BB00878FF28E8
:1018900006D0491C2D2805D000230020009009E027
:1018A00000200EE00123F8E7009A0A246243801822
:1018B000491C00900878FF28F6D1002B02D0009830
:1018C00040420090002503952C460D9800782D2865
:1018D00001D02B2815D10D99491C2D280D9102D02E
:1018E000002003900DE00120FBE7401C214600276B
:1018F0000A223B460D90284600F07AFA35183C46FD
:101900004C410D980678FF2EEFD1002108460020AB
:10191000C0460399002902D0810040184008000207
:10192000870F012F01DD0027FF430E99009846180D
:10193000284620430BD0FF20F530C64210DA03982A
:10194000C1070B9841600B990020086018E00398CC
:10195000C1070B9841600B99002008600FB0F0BDE3
:10196000FF20F530864210DDF648784406C80B9813
:1019700006C00B9803994068C90708430B99486053
:10198000FEF7EEFF02210160E8E7311E01DA7A423C
:1019900000E03A46002900DA714207A8FFF75CFC34
:1019A00007AB07CB04AB07C3E74800900020014614
:1019B000214304D12C460546E34920390091210CEE
:1019C0000904014306D1290C24040C4300992D0479
:1019D00010390091210E0906014306D1290E240277
:1019E0000C4300992D0208390091210F090701438A
:1019F00006D1290F24010C4300992D01091F0091E4
:101A0000A10F8907014306D1A90FA4000C43009937
:101A1000AD00891E0091E10FC907084304D1009869
:101A20006D196441401E00903A466846002E04A994
:101A30000295019402DDFFF77AFE01E0FFF7AEFEAA
:101A4000044603980D46002802D00120C0074440F8
:101A5000BE4E60004008284303D06000400DB042F5
:101A600014D1FEF77DFF022101606000400DB042FD
:101A70000CD1B748784406C80B9806C00B98E10F04
:101A8000C907406808430B99486067E70B984460B2
:101A90000B98056062E7FFB51F4695B00020002552
:101AA0000C909E685C68ED431390FFF7D1FAC06814
:101AB0000168405C1490B96916986D1C88470A90BB
:101AC000396A88470028F6D10A98401C0AD00D20B0
:101AD000C0018443002E12DD0A982B2809D02D283E
:101AE0000DD103E00020C04319B0F0BD01208002F9
:101AF0000443B96916986D1C8847761E0A906005E4
:101B000004A901D52D2000E02B206A46491C107441
:101B100010A8002E0D910B903BDD0A98692805D086
:101B2000492803D06E2801D04E281DD13B46039092
:101B300002200296179A1699C0430095019405F069
:101B4000C5FDC11CD0D10FE0B96916986D1C88473E
:101B50000A900120761E40020443179805601398EE
:101B6000401C002E139014DD0A983028ECD0782801
:101B700001D058280DD1139801280AD13B4602966E
:101B8000179A1699001F0095019405F097FDC11C46
:101B9000AAD114990A98884246D18020044308E0CB
:101BA0000C981799401E0C90012040020443681CB9
:101BB0000860B9696D1C1698761E884730280A900F
:101BC000EED031E01499884205D1200603D480205C
:101BD0000443761E1EE00A9803F03AFF002826D040
:101BE000012008A9400204430D980331761E884263
:101BF0000BD20A980D99303808700D98401C0D9042
:101C0000200607D50C98401E03E0200602D40C984D
:101C1000401C0C90A00502D51799681C0860B96992
:101C200016986D1C88470A90002ECBDC59E0002ED8
:101C300057DD0A98652801D0452852D1A00550D516
:101C40000320B969000284436D1C1698761E8847EC
:101C5000002E0A900CDD2B2804D02D2808D1FF205F
:101C600001300443B96916986D1C8847761E0A90A6
:101C7000E00501D52D2100E02B210B9801700B9878
:101C8000401C0B90009025E0012012A94002044363
:101C90000B980131761E88420ED20A980B99303883
:101CA0000006000E087003D100990B9888420AD9EB
:101CB0000B98401C0B9006E0E00501D5254801E09B
:101CC000244840420C90B96916986D1C88470A90C8
:101CD00017980560002E04DD0A9803F0B9FE00286D
:101CE000D2D1F969169888470D99FF2004AA087087
:101CF0000B99087000200E900F900C9B10A90EA855
:101D0000FFF7C2FDA00502D40120C043ECE6242069
:101D1000044209D0E00713D138680F9A0E99031DC9
:101D20003B60006806C00BE00EA9684603F038FE71
:101D3000E00705D13868009A011D3960006802602B
:101D40002846D1E6A65F00003E400000FF070000E5
:101D50009C5E0000F1D8FFFF10B50446C046C046A7
:101D60002046FEF71EFA10BD024670B50A439207E0
:101D70002AD11E4DEE0104C808C9541B94433440B7
:101D800017D0D0B2D9B2401A2106014310D190B277
:101D900099B2401A210401430AD110021902000A23
:101DA000090A401A2102014302D1100E190E401AED
:101DB00070BD9A42DFD010BA19BA884201D9012009
:101DC00070BD0020C04370BD02780B78401C491CD8
:101DD000002A09D09A4207D102780B78401C491C8E
:101DE000002A01D09A42EFD0D01A70BD0101010142
:101DF0004343514330B55C18010C130C0D4692B2AD
:101E00005D4380B251432C19054655430A0C090421
:101E10004D1962415843010C00044019514130BD35
:101E200001491820ABBEFEE726000200FFB51F46A1
:101E300089B0139812994005C00FC0070590002083
:101E4000079005460446461E049002903C20491C1B
:101E500012910690B9690A98884703901498401E19
:101E600014901498002841DD03982E2816D01021D4
:101E7000FFF7FAFC002834DB0121049107990143A4
:101E80001AD0069900290CDB069AC11700F045FA12
:101E9000054306980C43001F069006E001200290BF
:101EA0000EE0002801D00120054301200790029890
:101EB000002805D1361D03E00298002800D0361F07
:101EC0001298401C1290B9690A9888470390149898
:101ED000401E149004980028C3D00B9912980860F3
:101EE000BFE70398702808D0502806D0F9690A98EF
:101EF00088470498002815D051E000200390012065
:101F00000290049800280AD01298401C1290B969D7
:101F10000A9888471499491E0029149106DCF9692A
:101F20000A9888470120C0430DB0F0BD2B2804D08B
:101F30002D280DD10020C04302901298401C129011
:101F4000B9690A9888471499491E00291491E6DD59
:101F5000411CE4D00A21FFF787FC0028DFDB03994E
:101F60000A225143081803901298401C1290B96934
:101F70000A9888470A21FFF777FC14990B9A491EA3
:101F80001491129911601499002901DD0028E6DAF4
:101F9000F9690A9888470299039848438619139863
:101FA0002421084004902846204304D0A10F89072B
:101FB000090002D006E005989BE0A90FA4000C439D
:101FC000AD00B61EE10FC907080002D16D196441CA
:101FD000761E0498002803D00B2002905D4803E091
:101FE000282002907D20C0438642039007DA811B9F
:101FF000029808184128029001DD41200290029ABF
:1020000001200021521E00F088F9024628400B46AC
:102010002140084301D0012000E00020079000206B
:10202000521EC04343412A4023401A4301D001209D
:1020300000E0002007990690014352D00021084695
:102040000020C0460321059A89050840002A05D0D2
:1020500082008018C20F1018401008408015012817
:1020600002DD0020C04301E0012815D0401C38D01B
:102070000798002835D0069800280DD1029A012033
:10208000002100F04AF928402140084301D00120F6
:1020900000E00020002824D0029A0120002100F056
:1020A0003CF9034640198C4661412A1A8C410FD3F2
:1020B0000298402807DD0498039E002801D0343E92
:1020C00002E0173E00E0761C01240025E40708E04A
:1020D0005B1E62460024E4436241DD43D443054075
:1020E0000C4003980121081AB04206DA1A490598F3
:1020F00008430190002000900EE060006205010B93
:10210000E80A1043059A009068460A4313490A43B7
:102110003146019203F092FC049800280AD01398EB
:10212000C00714D13868019A0099031D3B6000680C
:1021300006C00CE002A8694603F032FC1398C00701
:1021400005D13868029A011D396000680260129852
:10215000EAE6000002FCFFFF0000F07F0000F03F15
:10216000FFB51D4687B01198484A109C129E400545
:102170001399C00F761EC0070243019200220092FD
:10218000FF22D2051043202291434929059003D014
:1021900017464E2928D04FE03DA002AA0BC80127C0
:1021A0000BC2A9690898641C8847761E014607D4AB
:1021B00002A8C05D002803D02022914381420AD0AA
:1021C000E96908988847032F36D0082F34D00120BA
:1021D000C0430BB0F0BD7F1C032F01D0082FE0D10E
:1021E0000999601C0860DCE7A9690898641C8847A5
:1021F000761E2DD4B84341282AD1A9690898641CB9
:102200008847761E24D4B8434E2821D1A96908985E
:10221000641C884701990122D20411430191059958
:10222000D200114305910999761E0C6001D428282B
:1022300006D0E969089888471198C00712D023E0B2
:10224000A9690898641C8847761E01D4002803DA1F
:10225000E96908988847BAE72928F1D10998641CE8
:102260000460E9E711982421084207D02868019A00
:102270000099031D2B60006806C005E028680599D9
:10228000021D2A60006801602046A2E70000F07F7E
:10229000494E46494E495459000000000246C80FB5
:1022A000C00781434B0030B54B405B009B0D20D0F5
:1022B0001923DB06C91801231B05994220DB0324DF
:1022C000A40704251346AB400BD3002B04D1EB0627
:1022D00013409B00E34204D4012464070023121935
:1022E0005941FF231B0599420BD2C9000143500FEE
:1022F00009E0CB0204D501430803024305D0054899
:1023000030BDFF21C905084330BD08460721090536
:10231000884330BD0000C07F704710B5202A04DB21
:102320000146203A9140002010BD914020239C1A84
:102330000346E3401943904010BD0000F8B5224C1D
:102340004E00069DA6420AD8A64201D1002806D119
:102350005E00A64203D8A6420AD1002A08D00D2466
:10236000240425422CD02946002000F05FF8F8BD57
:102370000C461C430CD4994202D0EFF30080F8BD08
:10238000904202D0EFF30080F8BDEFF30080F8BD7B
:1023900009242407E5008B4206D0EFF30080A04318
:1023A000591A06D2284304E0101A05D3EFF300802F
:1023B000A04380F30088F8BDEFF30080A043F1E76D
:1023C000009500F04BF8F8BD0000E0FF70B5054641
:1023D0004800440D124B0020002C0AD0634008D066
:1023E0009A4206DA6642B24203DD120540195141B3
:1023F00070BD002C08D0002B09D0C90FC907002AD6
:10240000F6DB084A114370BDC90FC90770BD2846E5
:102410000A03104302D00020034970BD284670BD56
:10242000FF0700000000F07F0000F87FC80212D50F
:102430004803400F002804D0C803C043012188404E
:102440007047EFF3008000010009032109070843EA
:1024500080F30088704700207047000010B500200E
:102460000249029A00F004F810BD00000000F87F55
:1024700010B50C461107090F092904D00A290AD002
:1024800008290CD104E011460820FFF7CFFF06E031
:10249000510606D501E0510601D50120C0072146AD
:1024A00010BDD10607D501010909CC084907000E66
:1024B0000006044309E0410F20024907000A0143D6
:1024C000200E00061D22D14101430846E7E7000027
:1024D00010B504F059FB1349002008707D24E40076
:1024E00023460C2210A1144801F016FD23460C22AD
:1024F0000DA1114801F010FD23460C220AA10E483F
:1025000001F00AFD23460C2207A10B4801F004FD4F
:1025100023460C2204A1084801F0FEFC04F040FB15
:1025200010BD00001900002041542A475354415463
:10253000453F0D0A000000003801002010B5054895
:1025400000F05AF9044800F057F9044800F054F933
:1025500010BD000074030020D00300202C040020D4
:1025600010B5024800F048F910BD000060020020DC
:1025700010B5034800F040F9024800F03DF910BDE5
:10258000BC0200201803002010B50446006C094965
:102590008008800040186064207814210838FEF715
:1025A0002FF904498031A164C106C90E0120884079
:1025B000E06410BD000802400179084B8906890ECD
:1025C0008A00D2180265054A4432491E42658A07CC
:1025D000920F01219140816570470000FC08024084
:1025E000F0B5846CC56C6560046D002C02D0446D40
:1025F000856D65600B4C6568066C1C273E400127A5
:10260000B7403D436560046863608368102B0368CE
:1026100003D099600068C260F0BD9A600068C16034
:10262000F0BD00000000024072B6FEE7044A5069A7
:10263000044BC900184001430348014351617047EE
:102640000020024007E0FFFF0200010030B505490D
:102650004C6901252C434C610260BFF36F8F4360CE
:1026600030BD00000020024030B50B4C00236269F1
:102670000125AD042A436261EFF3108272B620C9CE
:102680005B1C20C0DBB2402BF9D32069C003FCD413
:1026900082F3108830BD000000200240F8B50446E7
:1026A00000F0C4FA012706463F04124D06E0601C04
:1026B00004D000F0BBFA801BA04213D22869384234
:1026C000F5D128690C4908400C4929610CD00C4906
:1026D00048600120F8BD601C06D000F0A7FA801BFE
:1026E000A04201D30320F8BD28694003F3D40020A1
:1026F000F8BD000000200240FA830000FB830000C8
:10270000280F0020F0B5002808D0014620314A7972
:10271000022A05D00422C263002008710120F0BD06
:10272000026813680E24A3431360426C1468FF23ED
:1027300001339C43146002681468640864001460E8
:102740000C4A5568066C1C24264001242746B740D5
:102750003D435560826CC56C5560026D002A05D002
:1027600015689D431560826D406D42604C7100207C
:102770000871F0BD00000240F8B500240246203286
:102780005179022903D00421C16301242DE001689D
:102790000B680E25AB430B6001680B685B085B00A0
:1027A0000B60416C0B68FF250135AB430B60104992
:1027B0004D68066C1C231E4001231F46B7403D4355
:1027C0004D60816CC56C4D60016D002906D00E68AE
:1027D0001D02AE430E60416D856D4D605371002149
:1027E0001171816B002900D088472046F8BD000098
:1027F00000000240C06B7047F0B42C490C680268BE
:102800001368056C1C273D400426AE40264211D0BB
:102810005E070FD513689B0603D4146804239C43FA
:1028200014604B68046C04223C40A24013434B608C
:10283000016B1CE00227AF40064627402036002FE0
:1028400019D09F0717D513689B0605D413680A246F
:10285000A3431360012272714B68046C1C22144064
:102860000222A24013434B6000213171C16A00294A
:102870001AD0F0BC08470827AF40274214D01B07E6
:1028800012D513680E24A34313604B68046C1C22FA
:10289000144001221546A5402B434B60C263727160
:1028A00000213171416BE2E7F0BC7047000002404B
:1028B00070B504003FD02548256814212818FDF77D
:1028C0009FFF800020640220264620367071286811
:1028D0001F4908402860E168A068626908432169CF
:1028E00011430843A1690843E1690843216A084389
:1028F00021680A68104308602046FFF745FE012161
:10290000A06889030025884200D165602079616C48
:102910008006800E0860A06CE16C41606068401E1B
:1029200003280AD82046FFF747FE206D0560606D3A
:10293000A16D416004E0012070BD25656565A56558
:10294000E563012070713571002070BDF8FFFDBF97
:102950000F80FFFFF8B504468C4620300179002532
:1029600001290BD00126067141790027012907D0E2
:102970008021E163077101252846F8BD0220F8BDDA
:1029800002214171E763206801684908490001603C
:1029900061462046FFF724FE206B0028206801686E
:1029A00001D00E2205E004229143016020680168F5
:1029B0000A2211430160606C0168CA03074902D50D
:1029C00002680A430260206D002802D002680A43B0
:1029D00002602068016831430160CDE7000100001A
:1029E00070B5044600F022F90546601C02D0044888
:1029F0000078241800F01AF9401BA042FAD370BDE9
:102A00001C00002010B57D200124C000FFF746FE09
:102A1000054841698204114341614069002800DA98
:102A20000024204610BD000000200240F0B51FB475
:102A3000144C06462078154601280AD00120207043
:102A400000277D20C0006760FFF728FE002803D024
:102A500010E0022005B0F0BD012E0DD029460198EE
:102A6000FFF702FE7D20C000FFF718FE06494A6905
:102A7000B2434A612770EDE72A46039B0198FFF7AE
:102A8000E5FDEFE7280F0020002002400649002066
:102A90004A69002A07DA054A8A60054A8A60496954
:102AA000002900DA01207047002002402301674519
:102AB000AB89EFCDF0B5002303249AE02A46012527
:102AC0009D402A407ED00E79B607B60F012E01D068
:102AD000022E16D186682746B4465E00B646B74039
:102AE0006646BE43B446CF687646B740664637432F
:102AF00087604668AE430D79ED06ED0F9D40354386
:102B000045600D79ED43AD0708D0C5685F002646E6
:102B1000BE40B5438E68BE402E43C6600D79AD07FA
:102B2000AD0F022D0ED1DD08AD002D18AC462D6A7B
:102B30005E07F60E0F27B740BD430F69B7402F431E
:102B400065462F6205685F002646BE40B5430E7994
:102B5000B607B60FBE402E4306604D68AD03AD0FFD
:102B600046D09E08264DB6007519AC462D6E9E07C0
:102B7000F60E0F27B740BD4305273F07B84201D1E6
:102B800000270FE01F4FB84201D101270AE01E4F76
:102B9000B84201D1022705E01C4FB84201D10327FA
:102BA00000E00527B7402F43154D664637662D6870
:102BB0004E689543F60200D51543114F3D607D6880
:102BC000954300E014E04E68B60200D515437D60E1
:102BD0000B4D80356E684F689643BF0300D5164392
:102BE0006E602E684F689643FF0300D516432E6033
:102BF0005B1C0A681546DA4000D05FE7F0BD0000B4
:102C0000001802400004005000080050000C005062
:102C1000426913460B401B0491430B438361704789
:102C2000002A01D081617047816270470148806845
:102C3000704700001C000020024881680278891853
:102C4000816070471C00002010B50848002401680E
:102C5000821511430160032000F00AF8002801D01A
:102C6000012401E000F052F8204610BD002002408F
:102C700030B505461F4887B0C26B10210A43C263B6
:102C8000C06B0840009005A901A800F0FDF9049868
:102C9000002815D000F014FA40001749FDF7B0FDE8
:102CA000411E1748154A0260164AC2604160002161
:102CB00001618160816100F056FC040003D015E0E1
:102CC00000F0FEF9E9E70E4800F074FC04000DD1B5
:102CD000112000F039F8042D07D2002229461120D6
:102CE00000F03EF80848056000E00124204607B0E7
:102CF00030BD00000010024040420F0000100040B4
:102D000088040020E70300002000002008B50D48DB
:102D100001680122114301600068104000900948D9
:102D20004038C26B01040A43C263C06B00220840F2
:102D300003210090481F00F013F80320400200F028
:102D400005FC08BD40100240002805DBC106C90E85
:102D500001208840014908607047000000E100E060
:102D600010B502F0E7FD10BDBFF34F8F04490348D3
:102D7000C860BFF34F8F00BFFDE700000400FA05F5
:102D800000ED00E010B50F4C216803225202914380
:102D900001432160C11FFF39FA390ED10A480621CB
:102DA000006848430949FDF72BFD401C02E000285C
:102DB00005D0401E61694905F9D4002010BD0320EB
:102DC00010BD0000007000402800002040420F00AD
:102DD000F8B5044600680026524D800358D5514886
:102DE00000274038C06BC00009D44E484038C26B41
:102DF00001040A43C263C06B0840012700904A489F
:102E00000168821511430160FFF710FF009005E093
:102E1000FFF70CFF0099401A022825D842480068A5
:102E2000C005F5D5E8690321090208400FD0A16962
:102E300081420CD0E86903210902EA698843012133
:102E400009040A43EA61EA698A43EA61E861C00762
:102E50000FD0FFF7EBFE009008E0FFF7E7FE0099C8
:102E6000411A3248814201D9032609E0E869800706
:102E7000F3D5E869032109028843A1690843E861A1
:102E8000002F05D027484038C16B02049143C1632D
:102E90002078C00705D06869616880088000084311
:102EA00068612078800705D568690C218843A1688E
:102EB000084368612078800606D568690321090304
:102EC0008843E168084368612088400411D5686937
:102ED0006169800080080843686101216069890791
:102EE000884206D10F484038C168012212041143BC
:102EF000C1602088000512D56869032189038843D1
:102F0000216908436861012120698903884206D14B
:102F100004484038C168012212041143C1603046A0
:102F2000F8BD00004010024000700040881300000F
:102F3000F8B50F46060043D04D4D28684007400FB6
:102F4000B84213D22868C008C00038432860FFF791
:102F50006DFE044605E0FFF769FE011B454881420E
:102F600061D828684007400FB842F4D13068424C1D
:102F700081070DD5400704D5A06807210903084340
:102F8000A060A0680F2109028843B1680843A060CF
:102F90003078C00732D0706801280AD002280BD0E0
:102FA00000280FD03449403103280ED0C969890761
:102FB00004E02168890301E021688901002906DB1A
:102FC0000120F8BD21684905F8E7096AEFE7A16823
:102FD000C908C9000143A160FFF728FE009006E080
:102FE000FFF724FE0099411A224881421BD8A068AD
:102FF000382108407168C9008842F1D1286840072B
:10300000400FB84217D91A480168C908C9003943A6
:103010000160FFF70BFE054607E0FFF707FE411BC7
:103020001448814201D90320F8BD114800684007C7
:10303000400FB842F1D13078400706D5A06807218B
:1030400009038843F1680843A06000F04DF8A168C7
:103050003C2289091140094A515CC906C90EC84081
:103060000749086007480068FFF702FEF8BD000046
:103070000020024088130000001002409C770008E6
:10308000280000202000002010B5072202600A4A14
:1030900093685B075B0F436093680F24240223400F
:1030A0008360926807231B031A40C26003480068CC
:1030B0004007400F086010BD001002400020024091
:1030C0000648074900688968064A4904490F89008B
:1030D000515CC906C90EC840704700002800002096
:1030E00000100240DC77000810B5204CA068204A90
:1030F0008006400F16D0A0688006410F50100129AD
:103100000FD0A1688906490F022912D0A068800655
:10311000400F042823D0A0688006400F032821D048
:10312000002010BD206801218004400F814010461E
:1031300012E0E1688B07E1689B0F4906490F491CC3
:10314000032B00D01046FDF75BFBE1684904490EF4
:103150004843E168490F491CFDF752FB10BD0120AF
:10316000C00310BD7D20000210BD00000010024011
:103170000024F400F8B504007ED020783827C0077A
:10318000E94D002846D0A868E96838408907890FCA
:10319000102802D008280BD001E0032908D0012014
:1031A0006268000482420AD129680143296015E05F
:1031B000286880032ED560680028DDD02AE005232A
:1031C00001211B0489049A422A6802D10A432A6019
:1031D000EAE782432A6028688843286060680028FC
:1031E0000CD0FFF723FD064604E0FFF71FFD801B10
:1031F000642873D828688003F7D50BE0FFF716FD25
:10320000064604E0FFF712FD801B6428F1D8286809
:103210008003F7D42078800769D5A868E96838402A
:103220008A070721920FC902102802D0002813D064
:1032300001E0022A10D0E068002846D028688843C0
:103240002169084328602868FF210131084328606C
:10325000FFF7ECFC06462CE02A68520502D5E2682E
:10326000002A89D06A687F231B029A4363691B0284
:103270001A436A60002800E08DE00ED12868884378
:10328000216908432860286801218004400F81409B
:10329000A648FDF7B5FAA6490860A6480068FFF7FA
:1032A000E7FC002877D122E0FFF7C0FC801B022852
:1032B0009FD828684005F7D568687F2109028843B0
:1032C000616909020843686011E02968FF20013044
:1032D00081432960FFF7AAFC064605E098E0FFF766
:1032E000A5FC801B022884D828684005F7D42078E4
:1032F000914E00072ED5A8688006400F03280AD0FB
:10330000A0690028306A16D0012108433062FFF717
:103310008DFC07460BE0306A80071BD5A0690028AA
:103320009FD017E0FFF782FCC01B022870D8306ADC
:103330008007F7D50EE0400840003062FFF776FCCA
:10334000074604E0FFF772FCC01B022860D8306A11
:103350008007F7D4207840076CD5A868002780063E
:10336000400F042818D0E86BC00008D4E96B012096
:1033700000070143E963E96B0140012700916F48B1
:103380000168C90519D40168821511430160FFF76E
:103390004DFC00900DE083E0F06980074AD5A068FD
:1033A00000287DD046E0FFF741FC0099401A022832
:1033B0002ED862480068C005F5D5A168012910D053
:1033C00004200529F16911D049084900F161F1692A
:1033D0008143F161A068002816D0FFF727FC009018
:1033E0000EE0F06901210843F061F3E70143F16168
:1033F000F7E7FFF71BFC0099411A5148814265D855
:10340000F0698007F5D50EE0FFF710FC009007E0AB
:103410005CE0FFF70BFC0099411A4948814255D8FE
:10342000F0698007F5D4002F04D0E96B0120000774
:103430008143E963E069002873D0A9688906490FD0
:1034400002294DD0012636060228286805D0B0434F
:103450002860FFF7EBFB04463AE0B0432860FFF733
:10346000E5FB074604E0FFF7E1FBC01B02282DD86F
:1034700028688001F7D4616A206AA26A0843E16A79
:10348000120211430843216B0843E9682D4A114099
:103490000843E860286830432860E868012100E0BC
:1034A0003DE009070843E860FFF7C0FB044604E07D
:1034B000FFF7BCFB001B022808D828688001F7D55D
:1034C0002FE0FFF7B3FB001B022801D90320F8BD52
:1034D00028688001F5D4E8681B490840E86020E0CE
:1034E0000128F4D0E868226A8107890F914216D139
:1034F0007021626A0140914211D17F21A26A0902C2
:103500000140120291420AD11F214904E26A01409E
:10351000914204D1400F216B4007884201D0012025
:10352000F8BD0020F8BD0000001002400024F400A7
:1035300028000020200000204010024000700040C1
:10354000881300008C80C11FFCFFFEEF03490A684E
:1035500003235B029A4302430A6070470000014064
:1035600070477047704770B5040005D02546203578
:10357000687F002802D006E0012070BD0020287777
:10358000204600F016F802206877211D206801F01F
:10359000FDFB012240342272AA77EA772270627022
:1035A000A270E27022716271A271E2716A770020EA
:1035B00070BD7047014620314A7F012A01D00120A9
:1035C000704702224A770168CB6801221343CB601F
:1035D00000680B49884205D00A49884202D00A494E
:1035E000884207D18168094B1940062905D0DB1FA5
:1035F000994202D001681143016000207047000029
:10360000002C014000040040004001400700010080
:1036100070470000F8B504460068C66805690027D1
:10362000A907002913DAB10711D5F91E016101209C
:103630002077206880698007204602D0FFF7E8FFE6
:1036400004E000F08BF8204600F089F8277768073F
:1036500016D5700714D504202168C04308610220E4
:103660002077206880698005800F204602D0FFF710
:10367000CFFF04E000F072F8204600F070F82777E2
:10368000280715D5300713D508202168C0430861E5
:10369000042020772068C0698007204602D0FFF709
:1036A000B7FF04E000F05AF8204600F058F82777FA
:1036B000E80616D5F00614D510202168C04308612D
:1036C000082020772068C0698005800F204602D03E
:1036D000FFF79EFF04E000F041F8204600F03FF8BD
:1036E0002777E80708D0F00706D001202168C043FB
:1036F0000861204600F034F8280601D4A80407D554
:10370000300605D52168134808612046FFF729FFD8
:10371000E80507D5300605D521680F480861204621
:10372000FFF71EFF680608D5700606D54020216801
:10373000C0430861204600F01DF8A80608D5B00671
:1037400006D520202168C04308612046FFF70AFF04
:10375000F8BD00007FDFFFFFFFFEFFFF70477047EF
:1037600010B500680249884201D1FFF765FA10BD23
:1037700000100040704710B5014680310A79012AD7
:1037800015D001220A7124228A6002681368146825
:1037900064086400146001225207934300224266C9
:1037A00000680360202088600A71104610BD022066
:1037B00010BD7047704770B50446054680342079C7
:1037C00001281AD0012020712420A06028680668F2
:1037D00002685208520002602868826807235B066C
:1037E0009A430A438260284601F01CFB2868066061
:1037F0002020A0600020207170BD022070BD70B537
:103800000446054680342079012819D00120207112
:103810002420A060286806680268520852000260EE
:1038200028688268D200D2080A438260284601F0E4
:10383000F9FA286806602020A0600020207170BD81
:10384000022070BD70477047F8B5054604468035C4
:10385000A868EE6821688A6810271206002A1BDA19
:10386000212819D1EFF31080012282F310888A6891
:1038700080239A438A6080F31088E06F002808D084
:10388000FEF740FF002804D0E06FFEF7B3FF2028CA
:1038900024D0204601F096FC2168886840061BD59C
:1038A000222E19D1EFF31080012282F310888A684A
:1038B00040239A438A6080F310882868002808D043
:1038C000FEF720FF002804D02868FEF793FF202889
:1038D00004D0204601F044FC0020F8BD2F610320F5
:1038E000F8BD7047F8B503680446D96918689A6846
:1038F000B44D0E462E4025468035002E75D0B24E72
:10390000B24F1640074037436ED0CF0706D0C705E9
:1039100004D501271F622B693B432B618B0708D518
:10392000D30706D0276802233B622B6904273B4359
:103930002B614B0708D5D30706D0276804233B62C9
:103940002B6902273B432B610B0709D5202303403A
:10395000334305D02668082333622E691E432E6147
:103960000B0509D5430107D501232668DB02336225
:103970002B69202633432B612B69002B42D089060B
:103980000AD520210840C9050A40104304D0616FC0
:10399000002901D02046884728692168896849069E
:1039A00002D42821084232D0204601F0D9FB2168F8
:1039B0008868400627D5EFF31080012282F3108833
:1039C0008B68402293438B6080F31088286800281E
:1039D00019D07F4981632868FEF7CEFE002811D0F8
:1039E0002868816B0DE000E017E08E0615D50127F1
:1039F00020263F07064017403E430ED0616FB5E0DA
:103A000020468847F8BD2046FFF76BFFF8BD2046EB
:103A1000FFF767FF00202861F8BDE66E012E7DD11B
:103A2000CE067BD5C60679D510221A62236898681F
:103A3000264640064036002849DA2968086840686A
:103A40000004000CE8D0B78B8742E5D9F083086802
:103A50000068800634D4EFF31080012181F31088D0
:103A600019681701B943196080F31088EFF31080CB
:103A7000012181F3108821688B685B085B008B60F3
:103A800080F31088EFF31080012181F31088216802
:103A90008B684027BB438B6080F310882020E86050
:103AA0000020E066EFF31080012181F31088216887
:103AB0000B6893430B6080F310882868FEF722FEA2
:103AC00002202067B08BF18B401A81B235E0B08BB9
:103AD000F18B401A81B2F08B00289DD000299BD039
:103AE000EFF31080012686F310881E68FF27213728
:103AF000BE431E6080F31088EFF31080012383F330
:103B0000108823689E68304FFF433E409E6080F3DC
:103B100010882020E8600020E06600E011E0606787
:103B2000EFF31080012383F3108823681D68954309
:103B30001D6080F31088022020672046FFF739FEC1
:103B4000F8BDCE0208D5560206D501200005186240
:103B50002046FFF778FEF8BD0E060BD5012780261C
:103B6000FF0506403A40164304D0A16F002900D05B
:103B700046E7F8BD4A0614D5420612D52046EFF3B3
:103B80001081012282F310881A684024A2431A602F
:103B900081F310882021A9600021816700F07AFA62
:103BA000F8BD0A0205D5420003D52046FFF74AFEBC
:103BB000F8BDC901FCD50028FADA2046FFF7FAFD66
:103BC000F8BD00000F0800000100001020010004F3
:103BD000ED4F000870B5040005D025468035A86873
:103BE000002802D006E0012070BD00202871204688
:103BF00000F026F82420A8602068016849084900E0
:103C00000160A06A002802D0204601F02DF920466C
:103C100001F0F6FA0128E7D0206841680922D202B3
:103C200091434160206881682A2291438160206825
:103C30000168012211430160204601F07BF970BD4B
:103C4000F0B58DB0044614216846FCF7A0FD1C2198
:103C500005A8FCF79CFD914927462068904E8037C7
:103C6000002588425ED101200590069505A8FFF742
:103C7000AFF8002801D0FEF7D7FC89484030026831
:103C8000012189030A430260006808400C90716BAF
:103C9000012001437163716B049001400C91032179
:103CA0004902009102210191029003210391052014
:103CB00069460007FEF7FEFE7B4E7A483060B5602D
:103CC0003220F56070607561B561F5618020356204
:103CD00030613046FEF7ECFD002801D0FEF7A4FC71
:103CE0003E60B4626F48704E14305C3630603320F2
:103CF00070601020F560B0607561B561F56180207D
:103D0000356230613046FEF7D3FD002801D0FEF762
:103D10008BFCE667002201211B20B462FFF720F82C
:103D20001B205EE0614988425FD102200590079523
:103D300005A8FFF74DF8002801D0FEF775FCF16BE0
:103D4000012040040143F163F16B01400C91716B60
:103D5000012001437163716B049001400C910C21AF
:103D600000910221019102900321039105206946EF
:103D70000007FEF79FFE4B494B482831B8300160E1
:103D80008560C560456185618026C5610661342115
:103D900005624160FEF78CFD002801D0FEF744FC6F
:103DA0004148B83038608462414F3E4839463C3023
:103DB0003860352078601020083161C17D61BD61B7
:103DC000FD6138463D62FEF773FD002801D0FEF725
:103DD0002BFCE767002203211C20BC62FEF7C0FF1A
:103DE0001C20FEF7B1FF0DB0F0BD32498842FAD178
:103DF000F16B012080040143F163F16B01400C91F0
:103E0000716B022001437163716B019001400C9151
:103E100001200290032003210390890204200091D5
:103E2000049069462448FEF745FE1E49204850315B
:103E30005C3001608560C560456185618026C56133
:103E40000661362105624160FEF732FD002801D08F
:103E5000FEF7EAFB16485C303860154F8462114863
:103E6000B837643038603720786039461020083120
:103E700061C17D61BD61FD6138463D62FEF718FD9F
:103E8000002801D0FEF7D0FBE767002202211D20A9
:103E9000BC62FEF765FF1D20A3E70000003801406B
:103EA0000010024008000240600200200044004070
:103EB00074030020004800400004005070B58C23BB
:103EC0001B58202B01D0022070BD00290BD0002AE6
:103ED00009D0012483682403A34206D10369002B7F
:103EE00003D1CB0701D0012070BD0023C366046855
:103EF00063681B020BD5EFF31083012585F310884F
:103F000025680126B6063543256083F3108801F045
:103F10003FFA70BD70477047FFB5064604468036CD
:103F2000B06883B00D46202802D0022007B0F0BD53
:103F3000002D0CD00598002809D00120A1680003AD
:103F4000814206D12069002803D1E80701D0012071
:103F5000ECE7002030612120B060FEF767FE0190A1
:103F6000274640370598B8820598F8820120A16855
:103F70000003814202D12069002802D00295002569
:103F800015E00020029012E000228021204601F07E
:103F900055FA002818D10298002819D02168007815
:103FA00088620298401C0290F88A401EF882F88AC3
:103FB000019B002806980090E6D10022402120466F
:103FC00001F03CFA00280AD02020B0600320ADE7C1
:103FD00028882168C005C00D8862AD1CE4E7202058
:103FE000B0600020A2E7000070B5054604468035A9
:103FF000A868202801D0022070BD00290BD0002A1B
:1040000009D00123A0681B03984206D1206900282B
:1040100003D1C80701D0012070BD20464030216582
:104020008282C282002028612121A960E16F0029DB
:1040300018D0154BCB62E36F14491963E36F144931
:104040005963E16F134688632668216D3246283232
:10405000E06FFEF77FFC002804D0102028612020AC
:10406000A860D8E7216840200862EFF310800121A2
:1040700081F3108821688A6880231A438A6080F35C
:104080001088002070BD00000B5100085751000837
:104090000150000870477047FEE7000008B510485F
:1040A000816B012211438163806B032110400090DA
:1040B00000220920FEF754FE0920FEF745FE0022EB
:1040C00003210A20FEF74CFE0A20FEF73DFE0022E7
:1040D00003210B20FEF744FE0B20FEF735FE08BD42
:1040E0000010024010B5174890B0006800220F90F1
:1040F00011460FA802F03CF8134C1249E06014225C
:10410000091D6846FCF790F80021684602F019F88E
:104110000C4920601422183105A8FCF785F800210D
:1041200005A802F00EF80749606014222C310AA895
:10413000FCF77AF800210AA802F003F8A06010B09A
:1041400010BD0000DC76000808000020F0B587B044
:1041500014216846FCF71BFB2448426B20210A43CC
:104160004263426B0A400592416B01242143416343
:10417000416B21400591416B022529434163416B0D
:1041800029400591426B08210A434263406B0F03AB
:1041900008400590002239461548FEF741FD0520EC
:1041A000002239460007FEF73BFD0022022111489C
:1041B000FEF736FD032601AA009770C269460C4837
:1041C000FEF778FC052001946946000700970396E6
:1041D0000294FEF76FFC0194694606480396009529
:1041E0000294FEF767FC07B0F0BD0000001002402B
:1041F00000040050000C00507047000010B5184833
:1042000016490160E1214902416000218160C160DD
:1042100001618161C16101620C224162426181627E
:10422000FFF7D8FC002801D0FEF7FEF900210C486A
:10423000FFF7E5FA002801D0FEF7F6F9002108485B
:10424000FFF7B9FA002801D0FEF7EEF90448FFF7AE
:1042500092FA002801D0FEF7E7F910BD00380140BE
:10426000A400002010B5184816490160E121490258
:10427000416000218160C16001618161C1610162B1
:104280000C22416242618162FFF7A4FC002801D048
:10429000FEF7CAF900210C48FFF7B1FA002801D057
:1042A000FEF7C2F900210848FFF785FA002801D07F
:1042B000FEF7BAF90448FFF75EFA002801D0FEF7CE
:1042C000B3F910BD004400403801002010B50D487E
:1042D0000B490160E1214902416000218160C16018
:1042E00001618161C16101620C22416242618162AE
:1042F000FFF770FC002801D0FEF796F910BD000012
:1043000000480040CC010020FEE70000F0B5C826C0
:104310000D460022B3B00446114601E0491CC9B263
:10432000435C002BFAD1012304E0C75C2A2F03D0A1
:104330007A405B1C8B42F8DB29A132A8FBF7ACFF6B
:10434000002707E02C212046FCF746F9002830D052
:10435000441C7F1CAF42F5DB2C212046FCF73CF9C6
:10436000002801D0001B02E02046FCF73FF9074679
:10437000701E874208D23A4621466846FCF70AFA80
:1043800000206946C85509E0721E21466846FCF7C0
:1043900001FA6946002089192039C877124C2B0090
:1043A00001F0A4FA060704090D1217076846007801
:1043B000207133B0F0BD684600786071F9E7684657
:1043C000FCF7F4F8A071F4E707486A4607A1C01D9E
:1043D00003E005486A4605A16B30FBF75DFFE8E79F
:1043E0002530325800000000580E002025730000D0
:1043F000F0B5C82604460022B3B00F46104601E0CF
:10440000401CC0B2215C0029FAD1012504E0615DA5
:104410002A2903D04A406D1C8542F8DB72A132A8DC
:10442000FBF73AFF6119022232A8491CFCF700F998
:1044300000285DD1002507E02C212046FCF7CCF8B0
:10444000002855D0441C6D1CBD42F5DB2C212046B4
:10445000FCF7C2F8002801D0001B02E02046FCF760
:10446000C5F80546701E854208D22A462146684690
:10447000FCF790F900206946485509E0721E214674
:104480006846FCF787F96846002180192038C17713
:10449000574C3B00264625468036603501F026FA0B
:1044A0000F28092A393D4C505462732884282895D6
:1044B00028000223002269464D4802F009FB4C48BF
:1044C000FCF774F80830287102231A4669464848F8
:1044D00002F0FEFA4648FCF769F8687102230422EC
:1044E0006946434802F0F4FA4148FCF75FF8A871C6
:1044F00033B0F0BD6846FCF779F803460022694600
:104500003B4802F0E5FA3A4801F0A9FAE166A066F4
:10451000EEE7684600782874EAE76846FCF766F834
:10452000034600226946324802F0D2FA304801F0D0
:1045300096FAE167A067DBE7684600783070D7E756
:10454000684600787070D3E76846FCF74FF803467A
:1045500000226946264802F0BBFA2548FCF726F8F7
:10456000B070C5E76846FCF741F80346002269468B
:104570001F4802F0ADFA1E4801F071FA882210516E
:104580008034E160B4E76846FCF730F80346002267
:104590006946174802F09CFA154801F060FA90222B
:1045A000105180346161A3E76846FCF71FF80346A9
:1045B000002269460E4802F08BFA0D4801F04FFACE
:1045C000982210518034E16192E76846FCF70EF8BA
:1045D000034600226946064802F07AFA0448FBF7CF
:1045E000E5FF308484E700002530325800000000E9
:1045F000880C0020F0B5C82604460022B3B00F4650
:10460000104601E0401CC0B2215C0029FAD101250E
:1046100004E0615D2A2903D04A406D1C8542F8DB25
:104620006CA132A8FBF738FE6119022232A8491C9E
:10463000FBF7FEFF00285ED1002507E02C21204675
:10464000FBF7CAFF002856D0441C6D1CBD42F5DBA9
:104650002C212046FBF7C0FF002801D0001B02E000
:104660002046FBF7C3FF0546701E854208D22A4646
:1046700021466846FCF78EF800206946485509E057
:10468000721E21466846FCF785F8684600218019AD
:104690002038C177514C3B00204626462546A030A5
:1046A0008036603501F022F90E2708292D3C404F55
:1046B000535B63828A8E9227022300226946474811
:1046C00002F006FA4548FBF771FF08302871022313
:1046D0001A466946414802F0FBF94048FBF766FF7D
:1046E00068710223042269463C4802F0F1F93B4814
:1046F000FBF75CFFA87133B0F0BD68460078E87145
:10470000F9E76846FBF772FF034600226946334823
:1047100002F0DEF9314801F0A2F9E166A066EAE7AD
:10472000684600782874E6E76846FBF75FFF0346B3
:1047300000226946294802F0CBF9284801F08FF998
:10474000E167A067D7E7684600783070D3E768462E
:1047500001F085F9882210518034E160CBE768468A
:1047600001F07DF99022105180346161C3E702238A
:1047700000226946194802F0ABF91848FBF716FF0A
:10478000B07602231A466946144802F0A1F913488C
:10479000FBF70CFF70760223042269460F4802F0F3
:1047A00097F90E48FBF702FF3076A4E7684601F060
:1047B00056F9A0221051803461629CE7694609785D
:1047C000017298E769460978417294E76946097869
:1047D000817290E72530325800000000280B00203D
:1047E000F0B5C82604460022B3B00F46104601E0DB
:1047F000401CC0B2215C0029FAD1012504E0615DB2
:104800002A2903D04A406D1C8542F8DB6CA132A8EE
:10481000FBF742FD6119022232A8491CFBF708FF91
:1048200000285ED1002507E02C212046FBF7D4FEAE
:10483000002856D0441C6D1CBD42F5DB2C212046BF
:10484000FBF7CAFE002801D0001B02E02046FBF760
:10485000CDFE0546701E854208D22A46214668468E
:10486000FBF798FF00206946485509E0721E214673
:104870006846FBF78FFF6846002180192038C17712
:10488000514C3B00204626462546A03080366035F8
:1048900001F02CF80E2708292D3C404F535B638212
:1048A0008A8E9227022300226946474802F010F9B7
:1048B0004548FBF77BFE0830287102231A466946FB
:1048C000414802F005F94048FBF770FE6871022389
:1048D000042269463C4802F0FBF83B48FBF766FEC1
:1048E000A87133B0F0BD68460078E871F9E7684612
:1048F000FBF77CFE034600226946334802F0E8F8E5
:10490000314801F0ACF8E166A066EAE76846007855
:104910002874E6E76846FBF769FE0346002269460D
:10492000294802F0D5F8284801F099F8E167A06716
:10493000D7E7684600783070D3E7684601F08FF813
:10494000882210518034E160CBE7684601F087F897
:104950009022105180346161C3E70223002269462E
:10496000194802F0B5F81848FBF720FEB07602238C
:104970001A466946144802F0ABF81348FBF716FED6
:1049800070760223042269460F4802F0A1F80E480F
:10499000FBF70CFE3076A4E7684601F060F8A02231
:1049A0001051803461629CE769460978017298E78A
:1049B00069460978417294E769460978817290E7FF
:1049C0002530325800000000D80B0020F0B5C82672
:1049D000B3B00D460446002707E02C212046FBF724
:1049E000FBFD002858D0441C7F1CAF42F5DB2C2176
:1049F0002046FBF7F1FD002801D0001B02E0204615
:104A0000FBF7F4FD0746701E874208D23A4621465E
:104A10006846FBF7BFFE00216846C15509E0721EDB
:104A200021466846FBF7B6FE694600208919203901
:104A3000C877224C032D17D8684601F087F9A17A70
:104A400001280CD0A8400F22C043D243104301409C
:104A50000807A172C9B2000F090909011AE0A840AC
:104A60000007000F0143F3E72E1F032E1CD86846F2
:104A700001F06CF9A17A012810D00A09B0408243F4
:104A800010010907090F0843A072A17A000900016B
:104A90000907090F0143A17233B0F0BD0A09B04004
:104AA00002431007000EECE7284608380328F3D825
:104AB000684601F04BF96119C870EDE7F607002070
:104AC00070470000144900260D46124CC0350F46B1
:104AD000C937207801280BD1267002F055F8287AC2
:104AE0003946801E82B20D48FFF77EFA02F058F870
:104AF0006078012809D1667002F046F82A7A3946B2
:104B00000748FFF771FA02F04BF8012001F00CFBA7
:104B1000DFE7000000000020D4040020380100205E
:104B2000CC0100201FB5344E3448354C002700908E
:104B3000B078012830D1B77002F026F831480078FB
:104B4000012806D002280AD0032810D0042818D043
:104B500020E02E482C49C06801F01CFB1AE02C48CC
:104B6000642307C8039202910190042207E02848B9
:104B700064230C3007C8039202910190052201A919
:104B800005E01E487D230938027A0099DB002148A0
:104B9000FFF7C2F902F004F83079012828D1377103
:104BA000F77001F0F1FF0020A07205462946009839
:104BB000FFF70CFF6D1C0C2DF8DBEB202070A07AAA
:104BC0007D230107090F61700009A070E07AE07091
:104BD000207B2071607B6071A07BA0719020E071D0
:104BE000DB00082206490B48FFF796F901F0D8FFD1
:104BF000012001F099FA9BE7000000202E07002019
:104C0000F60700201A0000201027000008000020EE
:104C10001C770008A4000020FFB0284DB5B0E8784C
:104C2000012847D10020E87002212548FDF7F0FF58
:104C300036A8009023A11DAB04AA234801F006FF6B
:104C4000642281A968A80292019100904FAB36AA14
:104C50001DA904A801F0C8FA002421464FA8FFF7B7
:104C6000C9FC214668A8FFF7C3FB214681A8FFF7CE
:104C7000B7FD641CE4B20E2CEFD901F085FF00F003
:104C80004BFF1248C26E816E03920291C16F806F1A
:104C900000900E480191603082790DA19AA8FBF72F
:104CA000FBFA7D23DB004E220D490E48FFF734F955
:104CB00001F076FF012001F037FAB0E70000002094
:104CC000000C00500D0A000098090020D80B0020AD
:104CD00025642D256C662D256C660D0A00000000EC
:104CE000300D0020A400002010B5FBF775FA044633
:104CF00002F0B4FA002803D00120034900074860FD
:104D00002046FBF76DFA10BD00ED00E030B591B024
:104D100034216846FBF73BFD002401200D940E94DE
:104D20000F9440021094FEF72DF809200090012006
:104D300000040190012006900320089010200A90A2
:104D4000400302250B90079500030C9009946846D8
:104D5000FEF710FA002801D072B6FEE707200D908A
:104D60000F9402210E9510940DA8FEF7E1F800288B
:104D700001D072B6FEE711B030BD704710B50248E1
:104D8000FEF748FC10BD000088040020F0B5026862
:104D90001E4B1F4C984201D0A04203D17025AA435C
:104DA0004D682A431B4D1C4E1C4F98420AD0A0420E
:104DB00008D01B4CA04205D0A84203D0B04201D07D
:104DC000B84205D11446032212029443CA68224312
:104DD0008024A2434C69224302608A68C2620A6846
:104DE0008262984205D0A84203D0B04201D0B842B6
:104DF00001D109690163012141610169C90703D03A
:104E00000169490849000161F0BD0000002C014022
:104E100000040040004001400044014000480140BF
:104E200000200040F8B50446416E4034002915D0FA
:104E300000688168806809014D0F0A4E400F3746AF
:104E4000315C083F385CC000FBF7DAFC6085785DB8
:104E5000715DC000FBF7D4FC2085F8BD01206085A2
:104E6000FAE700009477000810B5018D090707D50F
:104E700001684A680123DB039A43836B1A434A6043
:104E8000018DC90707D001684A6801235B049A4372
:104E9000C36A1A434A60018D890707D501684A68C9
:104EA00001231B049A43036B1A434A60018D49078F
:104EB00007D501684A6801239B049A43436B1A4350
:104EC0004A60018DC90607D50268916801231B035A
:104ED0009943C36B19439160018D890607D5016819
:104EE0008A6801235B039A43036C1A438A60018D2D
:104EF000490612D503685A6801210905446C8A43A2
:104F000022435A60426C8A4207D1026851680323E7
:104F10005B059943836C19435160018D090607D5E0
:104F200001684A680123DB04C06C9A4302434A606B
:104F300010BD0000FEB505460026803504462E61F2
:104F4000FDF774FE01902068006820270007002804
:104F500017DA25480090002239042046019B00F012
:104F60006DFA00280DD0EFF31080012181F3108835
:104F700021680A6880239A430A6080F31088AF6032
:104F800028E020680068400727D5174800900121D5
:104F9000002289052046019B00F050FA00281CD011
:104FA000EFF31080012181F3108821680A68FF2344
:104FB00021339A430A6080F31088EFF310800121B7
:104FC00081F3108821688A68520852008A6080F351
:104FD0001088EF602E710320FEBDAF60EF60E666C3
:104FE00026672E710020FEBDFFFFFF0110B5806A0D
:104FF000002201464031CA83CA82FEF772FC10BD0E
:10500000F8B5846A2046803081680546C668206805
:10501000806800270006002806DA212904D15620DE
:105020000753204600F0CEF820688068400606D579
:10503000222E04D15E200753204600F091F8286903
:105040001021084328612046FEF74BFCF8BD70B5DF
:1050500001460968806A096800228906002938DB50
:105060005E210A52EFF31081012383F31088036855
:105070001C68FF250135AC431C6081F31088EFF3F9
:105080001081012383F3108803689C68640864001E
:105090009C6081F31088EFF31081012383F3108863
:1050A00003689C684025AC439C6081F310882023F2
:1050B0008C210B50C16E01290BD1EFF3108101231C
:1050C00083F3108803681C681025AC431C6081F3CF
:1050D00010880267C16E012902D0FEF71BFF70BD68
:1050E0005C21095AFEF765FB70BD10B5806A01218D
:1050F0000167C16E012902D0FEF70DFF10BD5C21D2
:10510000095A4908FEF755FB10BD10B5014609685C
:10511000806A096889061BD4002256210A52EFF3DF
:105120001081012282F31088026893688024A343CF
:10513000936081F31088EFF31081012282F31088CD
:105140000068026840231A43026081F3108810BD92
:10515000FEF7A0FF10BD10B5806AFEF79CFF10BDE2
:1051600010B5EFF31081012282F3108802681368F2
:10517000FF242134A343136081F31088EFF31081DF
:10518000012282F31088026893680D4C23409360DB
:1051900081F31088C16E01290BD1EFF31081012238
:1051A00082F31088026813681024A343136081F30C
:1051B000108820228C210A500021C166416710BD51
:1051C000FEFFFFEF10B5EFF31081012282F310888C
:1051D00002681368C024A343136081F31088EFF3BF
:1051E0001081012282F31088026893680124E4058B
:1051F000A343936081F3108820218030816010BD2B
:10520000F8B5044680682169E269084361690025B0
:105210001143226808431168534B19400143116040
:1052200021684868032212039043E26810434860F3
:10523000A169206A2268084391684C4B19400143D8
:1052400091602068C16A626A090909011143C1625B
:10525000474A2068474990420AD148698007800F31
:1052600020D0012814D0022810D003281CD111E02E
:10527000414A904210D148690C21084012D00428BC
:1052800006D0082802D00C280ED103E002210CE041
:1052900004210AE0082108E03849884202D0384950
:1052A000884201D1002100E010210122E369D203EC
:1052B0003448354E354F934227D1002906D0022974
:1052C0000BD0042905D008293DD11CE0FDF7F8FEDC
:1052D00001E0FDF709FF00283CD0616A4900715ADE
:1052E000FBF78EFA616840004A088018FBF788FADD
:1052F00001461039B94226D82449491C014000070B
:10530000400F084324E01046E7E7002906D00229B1
:105310000BD0042905D0082915D116E0FDF7D0FEE1
:1053200001E0FDF7E1FE002814D0616A4900715ADE
:10533000FBF766FA61684A088018FBF761FA0146D4
:105340001039B94203D9012504E01046EDE780B2D7
:105350002168C86020460121403041850185002038
:105360006067A0672846F8BDF369FFCFFFF4FF111F
:105370000038014040100240004400400048004016
:10538000004C00400024F40074770008EFFF000098
:1053900070B5044681654030828300202546803503
:1053A00028612221E9602968002919D0204BCB62AD
:1053B0002B68204919632B681F49596329681346D4
:1053C0008863A66D2168324624312868FDF7C2FA49
:1053D000002805D0102028612020E860012070BD41
:1053E000206900280CD0EFF31080012181F3108890
:1053F00021680A68FF2301331A430A6080F310888A
:10540000EFF31080012181F31088226893680B4329
:10541000936080F31088EFF3108081F31088216887
:105420008A6840231A438A6080F31088002070BD88
:105430004F500008EB50000801500008FFB581B044
:1054400005460E46044680350A9F32E0781C30D06F
:10545000FDF7ECFB0499401AB84218D8002F16D07B
:1054600020680168490724D5802E22D0402E20D004
:10547000C169C94309070CD4082606622046FFF714
:105480006FFE2E6100202871012005B0F0BD0320C1
:10549000FBE7C069C04300050BD401202168C002AE
:1054A00008622046FFF75CFE20202861002028715A
:1054B000EDE72068C1693046884305D00021039894
:1054C0008142C3D00020E0E70121F8E7F0B53E4C6F
:1054D000B3B02068C069C043C00636D4FAF77CFE7A
:1054E00000902168102008622046FEF7ADF9374889
:1054F00000684068C821081A354CC2B22146C0393C
:105500000846C93022720646FBF7E2F8257AE01D0C
:10551000295C01222F4B401C342909D1295C4729E1
:1055200006D1011F6F5C2C49232F10D03F2F10D0C4
:10553000617A242912D05A702549C822C0392248DC
:10554000FEF7BCFC0098FAF74BFE33B0F0BD0A70D2
:1055500002E04A70022008701A70EDE7A17A7D27F8
:10556000FF0043290BD1E17A4F2908D1217B522931
:1055700005D1617B532902D1285C0A2806D03B461D
:105580002A4631461548FEF7C7FCD5E7C82101A8D1
:10559000FBF7FDF801210520C9030007FDF738FBE3
:1055A00032460FA101A8FAF777FE01A8FBF71EF813
:1055B00082B23B4601A90948FEF7AEFC01A800F003
:1055C0005BF9FDF7D1FBB7E7A400002060020020E3
:1055D0009405002000000020180000203801002061
:1055E0002573000010B50348FEF77CF9FFF76EFF46
:1055F00010BD0000A4000020F8B5404C2068C06930
:10560000C043C00678D4FAF7E7FD00902168102067
:1056100008622046FEF718F9394800684068C8213A
:10562000081A384CC2B22146C03908462272C93025
:10563000FBF74EF82046C821C038FBF7A6F8657A7C
:1056400001213148314A4F2D02D1A37A4B2B08D08A
:10565000237A2C4E1F5DB61C312F04D0302F0FD073
:1056600011E001700AE09E5D302E0CD1284B1B78B2
:10567000012B01D002230EE004230CE091702CE0FA
:105680009E5D302E06D02B2DF6D0242D05D07B2DFF
:105690001AD022E003230370F0E7E27B532A04D000
:1056A0004F2A06D0452A09D017E0227C542A09D077
:1056B00013E0217C4B2910D1022103E0217C5229E7
:1056C0000BD10321417008E0A07A222805D10D48B2
:1056D0000830185C7D2800D1117101210520C90313
:1056E0000007FDF795FA0749C822C0390348FEF7BD
:1056F000E5FB0098FAF774FDF8BD000038010020C2
:1057000018030020250700201A00002000000020B8
:105710001900002010B50348FEF7E4F8FFF76CFF0E
:1057200010BD00003801002010B50348FEF7DAF87C
:1057300000F004F810BD0000CC010020F8B52B4C9F
:105740002068C069C043C0064FD4FAF745FD0090F9
:105750002168102008622046FEF776F82448006889
:105760004068FF249134201A224D82B228462A82B2
:1057700021491230FAF7ACFF2B8A002101221F4E7B
:105780001D4F0A3B27E07818FF308130857C522D71
:1057900004D0472D0DD0522D12D01AE0C57C4D2DCE
:1057A00017D1057D432D14D1457D2C2D0ED1F270DE
:1057B00013E0C57C472D0CD1007D4128F7D008E0CF
:1057C000C57C4D2D05D1057D432D02D1407D482856
:1057D000EDD0491CC9B28B42D5DC224606490348AC
:1057E000FEF76CFB0098FAF7FBFCF8BDCC0100203B
:1057F000D0030020860900200608002000000020B9
:10580000FEB5002400940194642115480294FAF72F
:10581000BCFF144F00250020009001900446EE00CC
:1058200002903019C01903780A2B11D06A460EA1D4
:105830001046FAF731FD641CE4B2082CF1D3084A93
:105840006B460BA11046FAF727FD0835EDB2E2E7EB
:10585000034A6B4606A11046FAF71EFD0048FEBD3E
:10586000940D002000F80108257325630000000056
:105870002573257300000000FEB50446FAF7B6FE56
:1058800006463F2000F070FA00256F4611E0002028
:1058900004E03954401C641C082802DA21780029ED
:1058A000F7D10548E9000818019B009A00F078FA42
:1058B0000835B542EBDBFEBD00F80108F8B5040C75
:1058C0008BB2264682B25E43104658430D0C370C0D
:1058D000360400218019164679416E43370C360490
:1058E0008019264679416E438919F8BD30B4744653
:1058F000641E2578641CAB4200D21D46635D5B00CC
:10590000E31830BC184700004900CA0202431000E7
:1059100000D004204A0D01D001221043044A490D51
:10592000914201D102210843012800D1052070478E
:10593000FF0700008307FF22DB0E9A408907090E4C
:105940009940002808DB830809489B001B18186849
:1059500090430843186070470007000F0838830819
:1059600004489B001B18D86990430843D8617047CE
:1059700000E400E000ED00E010B50721024A00203D
:105980000907FCF723FD10BD01030000034A10B511
:1059900000201107FCF71AFD10BD000001FDFFFFFC
:1059A00010B504460868496800F002F8206010BD90
:1059B000F8B504460D466A4600F004FA00987E30B9
:1059C000009000281EDC002213462046294601F0E4
:1059D000FFFD17D0174E002130460020C046074675
:1059E00020462946FCF75AFC04463846304001461A
:1059F00030460020C046600002D10220FAF7B9FF0D
:105A00002046F8BD0098FF280EDB0220FAF7B1FF10
:105A1000002213462046294601F00CFE02D8FF2042
:105A2000C005F8BD0448F8BD20462946FCF736FC01
:105A3000F8BD000008080000000080FF10B5044613
:105A40000A460068616800F0EFF96160206010BDEF
:105A500030380A2801D2012070470020704730B545
:105A600083B00446FAF780FF054600200090024606
:105A7000019021466846FBF737FA2846FAF779FF86
:105A80000199009803B030BDF8B500260D460746D1
:105A90003446FAF7ABFD02461E4828E0B95D890896
:105AA000415C2955B95D641C89078B0E711C9142BC
:105AB00023DAB9198C46497809090B43C35C2B5585
:105AC00061464978B31C0907890E641C93421ADAAF
:105AD00063469B789B090B43C35C2B5561468978D1
